:100000000C94EA090C94140A0C94140A0C94140A23
:100010000C94140A0C94140A0C94140A0C94140AE8
:100020000C94140A0C94140A0C9425110C94CC1101
:100030000C94140A0C94140A0C94140A0C94140AC8
:100040000C94140A0C94140A0C94140A0C94140AB8
:100050000C94140A0C94140A0C94140A0C9449106D
:100060000C94140A0C94140A0C94140A0C94140A98
:100070000C94140A0C94140A0C94140A0C94140A88
:100080000C94140A0C94140A0C94140A0C94140A78
:100090000C94140A0C94140A01048E966E773EFE9A
:1000A0007E5F1DB8F2664EFF5D19B0C20469542A26
:1000B000D62EBFDD19B0C3E529B1E023A5A9B1C192
:1000C0000082674C1A978D795120C7068E7C7C7A06
:1000D000764FFD5930E2460E9EBEDF1D9991A0A5D8
:1000E000A1A9D022C6EF5C1B958990A2A7CCFB5595
:1000F00028B3E44AF76C3BF46A562EDE1F9DB8D352
:10010000058892A6CE1EBEDF1D99B0E246EF5C07C1
:10011000115D980B9D9497EE4E45336B44C729565D
:100120002730C6A7D5F256DFB43862CBA0B6E30FAE
:1001300084062405656F7689B577412782666582D6
:10014000CCD5E620D52717C5F803237C5F64A51D11
:10015000C1D636CB4CD4DB66D78BB1997E6F4C368B
:100160004006D6EBD7A2E4F495515A5496D55344A1
:10017000D78CE0B94068D218E9DD9A239248EE7F27
:1001800043AFEA7738848C0A72AF69F8DDF12483D3
:10019000A3F84ABFF59413DBBBD8B4B3A0FB45501A
:1001A000603059123171A2D313E7FAE7CE0F63150D
:1001B0000B6B94BB378326059DFB4692FC0A15D139
:1001C0000D7392D68C1B8CB8558ACEBDFE8EFCED7D
:1001D0000912839182513123FBB40C76AD7CD9B4E2
:1001E0004BB26714099C7F0C18BA3BD68E142AE4D4
:1001F0001B529F2B7DE1FB6A3302FAAC5AF23E8818
:100200007EAED1F378E805D1E3DC21F6E19ABD17A3
:100210000ED9469B8803EAF666BE0E1B50499640EF
:1002200097F1F1E480A66EE87734BF294044C2FF1D
:100230004E98D39CA3322B76510409E7A9D1A6325C
:10024000B12353E247ABD6F5695C3E5FFAAE452079
:10025000E5D244FF39326DFD27575CFDF0DEC1B5B4
:1002600099E5F51C770175C56D5892F2B24700010A
:1002700026967A30FFB7F0EF77C18A5DDCC0D129CE
:10028000301E77387A94F1B87A7EEFA4D1AC314A37
:10029000F25D643DB2E2F00899FC70EE24A77EEEB8
:1002A0001E20697D44BF8742DF883B0CDA42C904C7
:1002B000F94550FC838F116A72BC9995F0AC3DA74B
:1002C0003BCD1CE2887937115F3989950A16847A0B
:1002D000F68AA428E4ED83803BB123A50310F466DD
:1002E000EABB0C0FC5EC6C69C5D324ABD42AB79913
:1002F000887608A0A8957CD8386DCD5902514BF16D
:10030000B52B50E3B6BDD072CF9EFD6EBB44C82462
:100310008A77188A1306EF977DFA81F031E6FA772B
:10032000ED3106315B548A9F3068DBE240F84E7352
:10033000FAAB748B105813DCD2E678D1322E8A9F38
:100340002C58064827C5A95E81478946219103702C
:10035000A43E889CDA330ACEBC8B8ECF9FD37180AB
:1003600043CF6BA95183763082C56A853911501A03
:1003700082DC1E1CD57DA9719933471997B35AB1F8
:10038000DFEDA4F2E62684A2289A9EDFA66AF4D6C0
:10039000FC2E5B9D1A2A2768FBC183214B90E03617
:1003A000DD5B314255A013F7D08953719957092964
:1003B000C5F321F8372F40F3D4AF16083602FC7787
:1003C000C58B049056B9C9679A99E800D386FF9700
:1003D0002D08E9B7B391BCDF45C6ED0F8C4C1EE686
:1003E0005B6E3830E4AAE395DEB9E49AF5B2559A2B
:1003F000879BF66AB2F2779A31F47A31D11D04C044
:100400007C32A29E9AF562F8278DBF51FFD3DF643C
:10041000373F2A6F763A7D77069E777F5EEB3251C3
:10042000F916669A09F3B008A470964630FFDA4FC1
:10043000E91BED8DF8741F3192B3731736DB9130E1
:10044000D688556B3477877AE7EE06C61C8C190C74
:100450004846235E9C075CBFB47ED64F749CE2C5C1
:10046000508BC58B159060625729D01343A18088AB
:10047000910044C74D1986CC2F2A755AFCEB972A58
:1004800070E378D891B04F9907A395EA2421D5DE7F
:10049000512093270A3073A8FF8A97E9A76A8E0D27
:1004A000E8F0DFECEAB46C1D392A622D3D5A8B6509
:1004B000F890052E7E912C78EF8E7AC12FAC78EED5
:1004C000AF2845064C26AF3BA2DBA39306B53CA55F
:1004D000D8EE8FAF25CC3F856848A962CC978F7F37
:1004E0002AEAE0150AAD6207BD45F841D836CB4C83
:1004F000DB6EE63AE7DA15E9291E1210A0142C0E7D
:100500003DF4BF394192750B257BA3CE399C156410
:10051000C8FA3DEF7327FE262ECEDA6EFD718EDD12
:10052000FE76EEDC125C02C53A4E4E4FBFCA401555
:10053000C76E8D41F110E04F7E977F1CAE478E6BEA
:10054000B12531B073C71B9779F980D36622300784
:10055000741EE4D08021D6EE6B6C4FBFF5B7D9097D
:10056000872FA914BE27D9725001D41373A6A7519F
:10057000027525E1B345347DA88EEBF31649CB4FC8
:100580008CA1B9368539755D0800AEEBF6EAD71354
:100590003A215A5F3084522695C914F257556BB1EF
:1005A00010C2E1BD3B51C0B7554C711226C70DF9C1
:1005B00051A43802057FB8F1724BBF718914F377EB
:1005C00038D97124F30011A1D8D46927083735C967
:1005D000119D901C0EE71CFF2D1EE892E11810954E
:1005E0007CE080F4964321F975216438DD9F1E95E7
:1005F00016DA561D4F9A53B2E2E418CB6B1A65EB2C
:1006000056C63BE5FED8263F3A84597266A2F3757A
:10061000FFFB60B322AD3F2D6BF9EBEA057CD88F71
:100620006D2C989E2B93F15E46F08749297368D70D
:100630007FF9F0E57DDB1D7519F3C4589B1788A879
:1006400092E0BEBD8B1D8D9F5676ADAF29E2D9D508
:1006500052F6B55635573AC8E156431994D3049B20
:100660006D35D80B5F4D198EECFA64910A72202B10
:10067000BC1A4AFE8BFDBBED1B23EAAD7282A12999
:100680009971BDF095C103DD7BC2B23C2854D3689B
:10069000A472C86696E0D1D87FF8D1262BF7ADBA00
:1006A00055CA15B932C3E588978E5CFB92258BBF7E
:1006B000A245557AA76F8B575BCF0ECB1DFB2082CF
:1006C00077A88CCC16CE1DFADECC0B62FECCE1B73F
:1006D000F0C381647340A0C24D8911753355338DC9
:1006E000E84AFDEA6E300BD7312CDE47E3BFF85500
:1006F00042E27F59E517EF99346991B1238E208743
:100700002DA8FED58AF3843AF037E4090054EE6749
:100710004993E48170E3904DEFFE41B7997BC1832B
:10072000BA62126F7DDE6BAFDA16F95551EEA60C88
:100730002B02A3FD8DFB3017E46FDF3671C4CA872F
:100740002548B047ECEAB4BFA54D9B9F0293C4E394
:10075000E4E8422D6881150AEB845BD6A874FB7D22
:100760001DCB2CDA462A7662CEBC5C9E8BE7CFBED0
:1007700078F57CEBB33A9CAA6FCC72D159F2112375
:10078000D63F48D1B7CEB0BFCBEA80DE57D45E9714
:100790002F75D1508E802C6679BF724BBD8A816CCB
:1007A000D3E101DCD21526C536DA2C1AC02794ED28
:1007B000B79B850B5E8097C5EC4FEC885D50073585
:1007C00047DC0B3B3DDD60AFA85D813824255D5CD7
:1007D00015D1DEB3ABEC0569EF83ED5754B8646413
:1007E00011163269DA9F2D7F36BB445A34E87FBF39
:1007F00003EB007F59682279CF736C2C29A7A15F86
:1008000038A11DF02053E01A6314587110AA080C87
:100810003E161A6022827FBAA443A0D0AC1BD56BCF
:1008200064B51493319E5350D05766EE5A4FFB0374
:100830002A695876F183F74EBA8C4206605D6DCE18
:100840006088AEA4C3F103A54B98A1FF67E1ACA2F9
:10085000B862D76FA031B4D277AF211006C69AFF25
:100860001D09170E5FF1AA54344B458A8763A6DC35
:10087000F9243067C6B2D6613369EE50615728E774
:100880007EEEEC3A5A734EA88DE418EAEC4164C847
:10089000E2E866B62DB6FB6A6C16B3DD4643B97363
:1008A000006A71ED4E9D251AC33C4A951599358114
:1008B0001402D6989BECD8233B8429AF0C9983A6CD
:1008C0009A344FFAE8D03C4BD0FBB668B89E8FCD37
:1008D000F7602D7A22E57DAB651B95A7A87FB677DB
:1008E000477B5F8B1272D0D491EFDE19503CA78BFF
:1008F000C4A9B323CB76E681F0C1048FA3B8545BBF
:1009000097AC19FF3F55272FE01D429B57FC4B4EDC
:100910000FCE98A9435703BDE7C894DF6E367332F4
:10092000B4EF2E857A6EFC6C188275359007F3E46F
:100930009F3EDC68F3B5F31980920699A2E86FFF39
:100940002E7FAE42A45FFBD40E812BC304FF2BB3DA
:10095000744E365B9C1500C6472BE88B3DF19C031B
:100960009A587F9B9CBF854979352E567B41143917
:10097000478326AA078998111B86E7737AD87D7862
:100980006153E979F5368D449284F91350583BA4AC
:100990006A3665498E3C0EF16FD284C47E8E3F3933
:1009A000AE7C84F163378E3CCC3E448145F14BB93B
:1009B000ED6B365DBB20601A0FA3AA55773AA9AE3E
:1009C000374DBAB8866BBC0850F6CCA4BD1D40723A
:1009D000A586FAE210AE3D584B97F34374A99EEBFF
:1009E00021B701A4869397EE2F4F3B86A1416F411B
:1009F0002690785C7F30384B3FAAECED5C6F0EADF3
:100A00004387FD9335E601EF412690999EFB195BE4
:100A1000ADD2918AE046AF65FA4F84C1A12DCF4592
:100A20008BD38550557CF96788D44EE9D76B6154D8
:100A3000A1A4A6A2C2BF309C409F5FD7692B24828D
:100A40005ED9D6A712541AF7559F7650A99584E619
:100A50006B6DB59654D6CDB3A19B46A7944DC49467
:100A6000B498E3E1E234D533160754CDB77753DBBE
:100A70004F4D469DE9D49C8A36B6B838266C0EFF99
:100A80009C1B438B80CCB93DDAC7F18AF26DB8D795
:100A9000742F7E1EB7D34AB4ACFC79486CBC96B6B2
:100AA0009446572DB0A3FC1EB95260852D41D0430A
:100AB000011E1CD57DFCF3960DC7CB2A299A93DD28
:100AC000882D375DAAFB4968A09C50867F685657E1
:100AD000F9791839D4E001843361CAA5D2D6E4C9C2
:100AE0008A4A23444EBCF0DC24A1A0C4E2073C1097
:100AF000C4B5254B6563F480E7CF61B1718221876E
:100B00002CF59100320CECA9B59A7485E3368F76FA
:100B10004F9C6DCEBCAD0A4BED7604CBC3B9339E72
:100B2000019396697DC5A245799B045C8409ED8893
:100B300043C7AB931426A140B5CE4EBF2A42853E93
:100B40002C3B54E8121F0E9759B22789FAF2DF8E18
:100B50006859DC06BCB6850D0622ECB1CBE504E68F
:100B60003DB3B04173083F3C588663EB50EE1D2CFB
:100B70003774A9D318A3476E9354AD0A5DB82A55AC
:100B80005D78F6EEBE8E3C7669B940C234EC2AB987
:100B9000ED7E20E48D0038C7E68F44A886CEEB2A90
:100BA000E990F14CDF32FB731B6D921E95FEB4DBB6
:100BB00065DF4D23548948BF4A2E70D6D762B433BF
:100BC00029B13A334C236DA676A5216348E6905DA2
:100BD000ED90950B7A84BEB80D5E630C62264C14C2
:100BE0005AB3AC23A474A76F333005600142A02828
:100BF000B7EE1938F164808243E141271F1F9054FA
:100C00007AD5232ED13DCB28BA587FDC7C9124E9BC
:100C10002851836EC5562142EDA05622A140806B1B
:100C2000A8F794CA136B0C39D9FDE9F36FA69EFCA3
:100C3000708AB3BC593C1E1D6CF97CAFF988719564
:100C4000EB5700BD9F8C4FE12483C522EAFDD30CF6
:100C5000E217187C6A4CDE77B4539B4C81CD23603D
:100C6000AA0E25739C02793230DF74DF7519F4A562
:100C7000145CF77AA8A591847C6003063BCD50B63E
:100C8000279CFEB1DDCCD3B05924B2CAE21C81222C
:100C90009D078F8EB9BE4EFAFC3965BABF9D1237DB
:100CA0005E977EF389F55DF5E3098C62B5209D0CB6
:100CB000538A681BD28F75175DD4E5DA75621914F3
:100CC0006A262DEBF8AF37F06CA455B1BCE233C007
:100CD0009ACAB011494F689B3B6B3CCC13F6C78551
:100CE000616842AEBBDDCD4516291DEADBC8039421
:100CF0003CEE4F8211C3EC28BD970599DED7BB5E51
:100D0000221FD4EB64D992D985B76A056AE42441DD
:100D1000F1CDF0D83FF89E0ECD0B7A706B5A750A64
:100D20006A3388EC17750870102F24CFC4E942008D
:100D30006194CA1F3A7606FAD24881F0776003457B
:100D4000D961F4A46F3DD930C3046B542AB7EC3B8E
:100D5000F44BF5685226CEFF5D1991A0A3A5A9B169
:100D6000E023C40A774DF95120A3A5A9B1C100829F
:100D7000868E7F5D1991A0A3C4EB540B7568520752
:100D80008C9A978D79706246EF5C1B95897141E171
:100D900021A1A1A1C002674C1AB6CFFD785324ABA4
:100DA000B5C9F16023A5C812876D5813858892874D
:100DB0006D5832C70C9A97ACDA36EE5E3EDF1DB83E
:100DC000F2662FBDF87247ED5813858892878C7BA9
:100DD000550990A2C6EF3DF85324ABD42AB7EC5A7C
:100DE00036EE5E3EDF3CFA764FFD5930E246EF3D8F
:100DF000F853056931C10082868E7F5D19B0E22704
:100E0000CCFB744B148B948B756833C50892878C1C
:100E10009AB6CF1CBAD70D98B2E62FDC1B95897114
:100E20006023C40A968F9CBAF66E3FFC5B15A8D26D
:100E300026AFBDF872662FDC1BB4CB148B94AAB717
:100E4000CDF951018082866F3DD930E227CCFB7409
:100E50004B14AAB7CDF97043046B35C9F16023A5D3
:100E6000C8F3450892876D5832E62FBDF872664E7A
:100E70001EBEFE7E7E7E5F1D9991A0A3C40A774DA3
:100E80001893A4ABD40B754910A2C6EF3DF85324B8
:100E9000ABB5E833E44A16AEDE1FBCDB15A8B3C51C
:100EA000087345E931C1E121A1A1A1C002866F5CAF
:100EB0003AD70D9893A4CA16AEDE1F9D99B0E246AC
:100EC000EF3DF872470C9AB6CFFD5911A0A3A5C803
:100ED000F3450892876D39F043048A96AEDE3EDF13
:100EE0001D9991A0C2066F3DF872470C9A978D9894
:100EF0009385887345E931E023A5A9D003848A96B8
:100F0000AEDE1FBCDB15A8D226CEFF5D1991818015
:100F100082672DD813A4ABD40B94AAB7CDF9512076
:100F2000A3A5C8F345E95022C6EF5C3AD70D9893C4
:100F3000858873644AF74DF95120A3C40A96AEDE42
:100F40003EFE7E7E7E5F3CFA764FFD7872662FBD58
:100F5000D930C3E54812878C7B5528D2078C9A97E5
:100F6000ACDA178D795120A3C4EB540B948B94AA5F
:100F7000D62EBFFC5B15A8D226AFDC1BB4EA37EC3B
:100F80003BF46A37CD1893856931C1E140E325C848
:100F900012878C9AB6CFFD5911A0C2068E7F5D389C
:100FA000F2470C7B746A37EC5A36EE3FFC7A764F88
:100FB0001C9B95897141006344EB542AD60F9CBA5F
:100FC000D70D9893856931C10082868E9EBEDF3C25
:100FD000FA572CDA36EE3FFC5B15897141008286A8
:100FE0008E7F5D38F247ED5813A4CAF74DF95101D1
:100FF000806344EB542AD62EBFDD1991A0A3A5A986
:10100000B1E042068E7F5D1991A0A3C40A968F7D40
:101010007872470C7B746A562EDE1FBCFA570D7926
:1010200051016121A1C0E325A9B1C1E14002674C92
:101030001A978D9893A4ABD42AD60F9C9BB4CB144B
:10104000AAB7CDF95120A3C4EB35C9F16042068E91
:101050007F7C7A766E3FFC7A766E5E3EFE7E5F3CEB
:10106000DB15897141E121C0E344EB542AB7CDF986
:10107000706227ADD832C70C7B744B14AAB7EC3B17
:10108000D528D2076D39D120C2E74C1A978D98B276
:10109000C70C5928F39B0129022904290829102982
:1010A000202940298029012C022C01260226042611
:1010B00008261026202640268026402C802C01233E
:1010C000022304230823102320234023802301200C
:1010D0000220042008201020202040208020102CF6
:1010E000202C012F022F042F082F102F202F402FEC
:1010F000802F7EFE7EFD7EFB7EF77EEF7EDF7EBF55
:101100007E7F0001000051131200020000D91196E9
:1011100000220200FC1255002102002D12090022BB
:101120000300C41238002103004612090022040003
:101130006F1255002104005F120900030000D51151
:101140000401030904BB1118020309047B113E03C7
:101150000309046D110C040309045D110E0E035301
:101160000065007200690061006C0000000C033132
:1011700000320033003400350000003E03530065A8
:10118000007200690061006C002B004B0065007963
:101190000062006F006100720064002B004D006F60
:1011A000007500730065002B004A006F0079007322
:1011B000007400690063006B0000001803540065B0
:1011C0000065006E00730079006400750069006EB0
:1011D000006F0000000403090409029600050100E5
:1011E000C032080B000202020104090400000102DF
:1011F000020100052400100105240100010424025D
:1012000006052406000107058203100040090401B9
:1012100000020A00000007050302400000070584E1
:10122000024000000904020001030101000921112C
:10123000010001225500070581030800010904038C
:1012400000010301020009211101000122380007F9
:1012500005850308000209040400010300000009D9
:101260002111010001225500070586030C0001052C
:10127000010904A101150025017501952005091931
:101280000129208102150025073500463B01750420
:101290009501651405010939814205010901A10083
:1012A000150026FF03750A95040930093109320932
:1012B000358102C0150026FF03750A95020936091B
:1012C000368102C005010902A10105091901290899
:1012D00015002501950875018102050109300931C4
:1012E00009381581257F750895038106050C0A3894
:1012F000021581257F750895018106C00501090643
:10130000A10175019508050719E029E715002501D8
:1013100081029508750115002501050C09E909EA06
:1013200009E209CD09B509B609B709B881029505E1
:1013300075010508190129059102950175039103AD
:10134000950675081500257F05071900297F81007E
:10135000C012010002EF020140C0168704720201B0
:10136000020301C106C11280368136C106C1162CA6
:101370005E7460616264346667656E362D37382747
:101380001E1F202122232425267333762E77785F93
:101390004445464748494A4B4C4D4E4F5051525395
:1013A0005455565758595A5B5C5D2F3130636D3533
:1013B0000405060708090A0B0C0D0E0F1011121375
:1013C0001415161718191A1B1C1D6F7170752A0039
:1013D000560B3F1711241FBECFEFD0E2DEBFCDBFAB
:1013E00011E0A0E0B1E0EAE3F0E300E00BBF02C0EF
:1013F00007900D92AE38B107D9F721E0AEE8B1E021
:1014000001C01D92AE3BB207E1F719E0CAEED9E088
:1014100004C02197FE010E941218C83ED107C9F7E7
:101420000E94FD130C941B180C9400000F931F9343
:10143000CF93DF93EC01FB0101900020E9F7319796
:10144000AF01461B570BE881F9810280F381E02D43
:1014500009958C01CE010E94E313800F911FDF914B
:10146000CF911F910F910895FC016150862F8770D5
:1014700021E030E001C0220F8A95EAF7442319F1F8
:10148000683030F48091BE01282B2093BE0115C036
:10149000603130F48091BF01282B2093BF010DC033
:1014A000683130F48091C001282B2093C00105C021
:1014B0008091C101282B6032F0F0808181111EC023
:1014C000CF010C94EA162095683020F48091BE017B
:1014D0002823DBCF603120F49091BF012923DDCF99
:1014E000683120F49091C0012923DFCF603228F7C2
:1014F0009091C10129232093C101DFCF08950F935B
:101500001F93CF93DF9340E855E260E070E080EBFB
:1015100091E00E949A1540E253E064E170E08EE8A9
:1015200091E0C6D26DE071E0811102C06DE271E020
:1015300080EB91E07BDF60E476E08EE891E077D1AC
:1015400081E08093A8018091C2018F608093C201E5
:101550001092C8011092C9011092C50182E08093D7
:10156000C60188E08093C701CAE4D1E000E711E03A
:101570000C171D0721F08881229678D3F9CF3C986B
:10158000449A3B98439A3E9A3D9A569A3E9A81E0F5
:1015900090E09093990080939800809190008068EB
:1015A000809390003D9A10929B0010929A00809137
:1015B00090008062809390005E98DF91CF911F91A0
:1015C0000F910895EF92FF920F931F93CF93DF93A4
:1015D000CDB7DEB72C970FB6F894DEBF0FBECDBFE8
:1015E0008AE4E82E81E0F82E10E000E0B8010F5FF9
:1015F0001F4F04311105C1F0D701ED91FD917D011F
:10160000FF2756D441E050E0EE2311F050E040E0D7
:1016100085E991E068D041E0892B09F440E0602F32
:1016200088EA91E021DFE2CF85E991E070D088235C
:1016300021F088EA91E00E94EA166EE871E0CE019E
:10164000019613D18A81882321F18981882309F1A8
:101650004D815E814038510514F04FE750E041382C
:10166000BFEF5B0714F441E85FEF6B817C8160386A
:10167000710514F06FE770E061388FEF780714F4AC
:1016800061E87FEF619500E020E089EA91E00E9447
:10169000AC162C960FB6F894DEBF0FBECDBFDF910F
:1016A000CF911F910F91FF90EF9008956BE170E043
:1016B00085E991E003D08EE891E057C0CF93DF93A6
:1016C000EC011A82611580E4780750F4CB01880F91
:1016D000991F0E94031499838883DF91CF91089505
:1016E0008FEF9FEFF6CF660F771FDC01ED91FC9136
:1016F0001197E60FF71F208131812417350719F064
:1017000021E012962C9351834083CA010895FC0175
:1017100082811282089520919A01222359F021306A
:1017200061F42DB3209398013DB320919901209548
:1017300023232DBB8CBD9DBD08952FB7F894209316
:101740009801F8CF8EBD00000DB407FEFDCF8EB519
:10175000089590919A01992339F0809198019130E0
:1017600011F48DBB08958FBF0895FC01128213827E
:1017700014821582168208950F931F93CF938C01C4
:10178000603519F0DC0112961C92D801ED91FC91A4
:10179000FF279BD2C4E08C2F81500000E9F7862FF1
:1017A0008F77D0DF80E991E00197F1F780E0CADF21
:1017B000C1500000E9F7D801ED91FC91FF277FD2DD
:1017C0009CE491500000E9F7CF911F910F9108958B
:1017D0000F931F93CF93DF938C01D42F603519F0B3
:1017E000DC0112961C92D801ED91FC91FF276DD27D
:1017F000C4E08C2F81500000E9F7862F8068A2DFBB
:101800008D2FA0DF80E581500000E9F7C150000076
:10181000E9F7D801ED91FC91FF2751D280E991E0E1
:101820000197F1F7DF91CF911F910F9108950F93D9
:101830001F93CF93DF93EC018B018CE591E06BDF7D
:10184000C80164E670E00E94FE17AB0141505109E7
:101850004837510510F047E750E06FE0CE01B8DFA0
:10186000DF91CF911F910F9174CF4F925F926F9242
:101870007F928F929F92AF92BF92EF92FF920F93BF
:101880001F93CF93DF93CDB7DEB72C970FB6F894A5
:10189000DEBF0FBECDBF8C017B015BD44B015C0171
:1018A000D70113964D905D906D907C9016978CE5C6
:1018B00091E031DFF7018281882361F08418950877
:1018C000A608B708F1E28F16F1EA9F06FFEFAF0610
:1018D000BF0640F040E060E5C7017ADF81E0D70154
:1018E00012968C93D701ED91FC91FF27EED184E005
:1018F00081500000E9F780E525DF8CE88150000089
:10190000E9F789818EBDFE0131969E01245F3F4F2C
:101910002E173F0741F091810DB407FEFDCF8EB524
:101920009EBD8193F5CF0DB407FEFDCF8EB58C879C
:1019300084E0982F91500000E9F781500000E9F70A
:10194000D701ED91FC91FF27BAD103DF2981822FC6
:10195000877011F0F7011282FCD3D70113966D93B3
:101960007D938D939C9316976B817C814D815E81D5
:101970008B859C85322F331F3327331FF80130832B
:1019800023FB222720F931E02327218373836283FD
:10199000558344832F8126832885278329852087A3
:1019A0002A85218793878287C8012C960FB6F894E1
:1019B000DEBF0FBECDBFDF91CF911F910F91FF9082
:1019C000EF90BF90AF909F908F907F906F905F90BF
:1019D0004F900895FF920F931F93CF93DF93EC01E5
:1019E00040E060E1F5DE4DE163E1CE01F1DE6AE069
:1019F00070E080E090E08DD348E163E1CE01E8DE65
:101A0000E881F981FF2761D184E081500000E9F786
:101A100082EE98DE8CE381500000E9F710E000E0F0
:101A20008CE3F82EF801E856FF4F84918BDE8F2D62
:101A300081500000E9F70F5F1F4F0E3F8FE018073E
:101A400089F76AE2CE0198DE40E060E1CE01C0DEB7
:101A500084E081500000E9F7E881F981FF272FD168
:101A6000DF91CF911F910F91FF9008950F931F93D6
:101A7000CF93DF93EC018CE591E04DDE60E0CE0189
:101A80007BDE082F6FE3CE0177DE182F6AE2CE01EE
:101A900073DEC82F5EDE023429F41D3B19F481E0A9
:101AA000C43009F080E0DF91CF911F910F9108952C
:101AB000EF92FF921F93CF93DF93EC01862F7A0171
:101AC000688379831A82C1D0E881F981FF27F7D032
:101AD0006AD08CE591E01FDE14E0812F8150000078
:101AE000E9F7888199819927FC01E9D0FC01EDD0C3
:101AF000212F21500000E9F7212F21500000E9F7A4
:101B0000FC01DDD046EB6BE3CE0162DE22DE6CE24F
:101B100071E080E090E0FDD28CE591E0FCDD888111
:101B200099819927FC01D1D0212F21500000E9F79C
:101B300020EA322F31500000E9F711500000E9F798
:101B4000FC01BDD021500000E9F74AE56AE3CE016F
:101B50003FDEFFDD62E370E080E090E0DAD28CE50A
:101B600091E0D9DD62E0CE0107DE63E0CE0104DE64
:101B700064E0CE0101DE65E0CE01FEDD66E0CE016F
:101B8000FBDDCE0127DFE5DD6AE070E080E090E07C
:101B9000C0D2B701CE014BDECE01DF91CF911F91B4
:101BA000FF90EF9063CF289A209A8CB580618CBD0E
:101BB0008CB580648CBD219A229A08951DBA10922A
:101BC00068001CBC10BE1FBA10927A0010926E0002
:101BD00010926F0010927000109271001092C90064
:101BE0001092BC0011B814B817B81AB81DB810BAC2
:101BF00012B815B818B81BB81EB811BA0895F894E1
:101C0000E1E6F0E020E82083108283E084BD85BD1A
:101C1000EEE6F0E080818160808391E09093800027
:101C200082E0809381009093B0008093B100909304
:101C300090008093910086E880937A0020937B0047
:101C400010927E00A5D2789408958E3270F4E6E961
:101C5000F0E1880FE80FF11D2591E491F0E09FB7C6
:101C6000F8948181822B81839FBF08958E3210F575
:101C7000AAEDA80FA830F8F4E2EFF0E1AA0FEA0FFE
:101C8000F11DA591B0E09591E6E9F0E1880FE80F2C
:101C9000F11D3591E491F0E04FB7F8948181232F45
:101CA0002095282321838281832B8283EC919E239C
:101CB0009C934FBF08959FEFB0E0A0E0E5CFEE32D8
:101CC00050F4EE0FE459F14F0994EE3220F4EE0F88
:101CD000E853F14F09940895589AB6C0599AD0C064
:101CE0005A9A08955B9A08955C9A08955D9A0895AA
:101CF0005E9A08955F9A0895709A0895719A08956A
:101D0000409A0895419A0895429A0895439A0895F1
:101D1000449AC8C0459AC0C0469AB8C0479A089528
:101D2000769A0895779A0895289A0895299A089599
:101D30002A9A08952B9A08952C9A9CC02D9A88C0AF
:101D40002E9A8CC02F9A90C0109A0895119A0895D7
:101D5000129A0895139A0895149A0895159A089559
:101D6000169A0895179A0895749A0895759A089581
:101D7000889A0895899A08958A9A08958B9A089561
:101D80008C9A08958D9A08958E9A08958F9A089541
:101D900058985AC0599874C05A9808955B980895F5
:101DA0005C9808955D9808955E9808955F980895E9
:101DB00070980895719808954098089541980895ED
:101DC000429808954398089544986CC0459864C01B
:101DD00046985CC047980895769808957798089536
:101DE00028980895299808952A9808952B98089579
:101DF0002C9840C02D982CC02E9830C02F9834C0FD
:101E000010980895119808951298089513980895B8
:101E10001498089515980895169808951798089598
:101E200074980895759808958898089589980895E4
:101E30008A9808958B9808958C9808958D980895A0
:101E40008E9808958F980895E4B5EF7DE4BD0895C8
:101E5000E0918000EF77E09380000895E0918000AA
:101E6000EF7DE09380000895E0918000E77FE093AC
:101E700080000895E091B000EF77E093B0000895FE
:101E8000E091B000EF7DE093B0000895E091900004
:101E9000EF77E09390000895E0919000EF7DE0935C
:101EA00090000895E0919000E77FE09390000895FE
:101EB000EE3258F4EE0FEE0FFF27EC3718F4E75927
:101EC000F04F0994E559F04F0994EE270895E1E0A9
:101ED0000895E9B1E170D9F70895E9B1E270B9F771
:101EE0000895E9B1E47099F70895E9B1E87079F7D8
:101EF0000895E9B1E07159F70895E9B1E07239F751
:101F00000895E9B1E07419F70895E9B1E078F9F6B8
:101F10000895ECB1E170D9F60895ECB1E270B9F62C
:101F20000895E6B1E17099F60895E6B1E27079F6A8
:101F30000895E6B1E47059F60895E6B1E87039F60F
:101F40000895E6B1E07119F60895E6B1E072E9F599
:101F50000895E6B1E074C9F50895E6B1E078A9F511
:101F60000895ECB1E07489F50895ECB1E07869F575
:101F70000895E3B1E17049F50895E3B1E27029F500
:101F80000895E3B1E47009F50895E3B1E870E9F468
:101F90000895E3B1E071C9F40895E3B1E072A9F4E2
:101FA0000895E3B1E07489F40895E3B1E07869F449
:101FB0000895E0B1E17049F40895E0B1E27029F4C8
:101FC0000895E0B1E47009F40895E1E00895E0B106
:101FD000E870D9F70895E0B1E071B9F70895E0B17C
:101FE000E07299F70895E0B1E07479F70895E0B1EF
:101FF000E07859F70895ECB1E07139F70895ECB144
:10200000E07219F70895EFB1E170F9F60895EFB1B4
:10201000E270D9F60895EFB1E470B9F60895EFB122
:10202000E87099F60895EFB1E07179F60895EFB18F
:10203000E07259F60895EFB1E07439F60895EFB102
:10204000E07819F60895F89484B7877F84BF80916B
:1020500060008061809360001092600080E29EE4E6
:102060000197F1F781E08093E00080E28093D8004F
:1020700080E69AEE0197F1F7A1DD0C9400FEFFCF08
:10208000F8949CDD80E69AEE0197F1F70C9400003D
:10209000FFCF8F938FB78F9380919B018D5F8D378B
:1020A000D0F480939B0180919C018F5F80939C0171
:1020B000D8F080919D018F4F80939D01A8F0809171
:1020C0009E018F4F80939E0178F080919F018F4FEA
:1020D00080939F0109C08D5780939B0180919C0143
:1020E0008E5F80939C0128F78091A0018C5F809384
:1020F000A00158F08091A1018F4F8093A10128F099
:102100008091A2018F4F8093A2018F918FBF8F91F9
:102110001895CF92DF92EF92FF926B017C0119D05C
:102120009B01C114D104E104F10429F4FF90EF9064
:10213000DF90CF9008950DD0621B730B683E734003
:1021400080F381E0C81AD108E108F10828513C4F1A
:10215000E8CF0FB6F89466B515B27091A0018091E2
:10216000A1019091A2010FBE10FE05C06F3F19F0B2
:102170007C5F8F4F9F4F11240024660F001C660F59
:10218000001C702908958091E80080FFFCCF08951D
:102190008091D80087FF02C085FF56C081E88093F8
:1021A000D70080EA8093D80086E189BD09B400FE9B
:1021B000FDCF80E98093D8001092E0001092DA0100
:1021C0001092D9011092D8011092D0011092D10131
:1021D0001092D2011092D3011092D4011092D50125
:1021E0001092D6011092D70181E08093CF019DE734
:1021F0009093CE011092CD011092CC011092CB01A0
:102200008093CA011092BE011092BF011092C001CA
:102210001092C1018FE08093C20190E29093C301BC
:1022200080E88093C4011092C50122E02093C6018A
:1022300028E02093C7019093C8018093C9011092B0
:10224000E1008DE08093E20008951F920F920FB697
:102250000F9211240BB60F922F933F934F935F93DE
:102260006F937F938F939F93AF93BF93EF93FF935E
:102270009091E1001092E10093FF11C01092E900EB
:1022800081E08093EB001092EC0082E38093ED00FC
:1022900088E08093F0001092DA011092D80192FF4A
:1022A00047C08091DA01882309F442C08091A701D8
:1022B000882359F081508093A701811106C084E0E2
:1022C0008093E9008AE38093E8008091A601882347
:1022D00031F081508093A601811101C0B4DE80915C
:1022E000CE01882329F18091A4018F5F8093A401FE
:1022F0008370F1F481E08093E9008091E80085FF2C
:1023000017C08091CD018F5F8093CD012091CE01C8
:1023100082130EC01092CD01E0EDF1E08191809327
:10232000F10081E0E83DF807C9F78AE38093E8000F
:1023300090FF0CC080E18093E2001092DA0181E00E
:102340008093D90180EA8093D80019BC8091D9018B
:10235000882379F094FF0DC086E189BD09B400FEA1
:10236000FDCF80E98093D8008DE08093E200109249
:10237000D901FF91EF91BF91AF919F918F917F9183
:102380006F915F914F913F912F910F900BBE0F90E6
:102390000FBE0F901F9018951F920F920FB60F92BD
:1023A00011240BB60F92EF92FF920F931F932F936E
:1023B0003F934F935F936F937F938F939F93AF93CD
:1023C000BF93CF93DF93EF93FF931092E900809137
:1023D000E80083FF21C0D091F100C091F10000918D
:1023E000F1001091F100E090F100F090F1002091E7
:1023F000F1003091F10082EF8093E800C63009F0DF
:102400005CC08DE0E2E0F1E14591559104171507BC
:1024100039F035968150C1F781E28093EB002BC0F3
:1024200045915591E416F50611F03396F3CF459199
:10243000559184912F3F310519F010F02FEF30E0C6
:10244000821708F4282F3EEF8091E800982F9570AE
:10245000D9F382FD10C0822F213408F080E4982F38
:10246000911124C0922F981B892F3093E80091116D
:102470001BC02034C8F4FF91EF91DF91CF91BF9141
:10248000AF919F918F917F916F915F914F913F910C
:102490002F911F910F91FF90EF900F900BBE0F9017
:1024A0000FBE0F901F901895282FCECFFA0145919F
:1024B0004093F100AF019150D3CFC53041F48EEF7E
:1024C0008093E80060DE00680093E300D4CFC93059
:1024D00011F5D1118CC00093DA011092D80110923D
:1024E000A7018EEF8093E80081E0E3E6F3E121E0CD
:1024F0008093E9002093EB0095919093EC009591E7
:102500009093ED008F5F873099F78EE18093EA001A
:102510001092EA00B0CFC83049F4D03809F067C053
:1025200032DE8091DA018093F10010C0C13291F463
:10253000D13A09F00AC127DEE0E0F1E08081809322
:10254000F100319681E0E730F807C1F78EEF809314
:10255000E80091CFC03209F03EC0D13209F047C047
:102560008091E80082FFFCCFE0E0F1E08091F10093
:102570008083319691E0E730F907C1F78BEF8093C4
:10258000E8008EEF8093E8008091000190910101B6
:10259000A0910201B091030186389105A105B10512
:1025A00021F48FE08093A60166CF86399105A105BD
:1025B000B10509F060CF84E08093E9009FEF80913E
:1025C000EE00837009F45CDD9093E8008091E800F0
:1025D00082FDFCCFF4CFC23231F4D13241F400930A
:1025E000D801D1DDB3CFC332C1F4D132D1F382E00F
:1025F000E816F10409F095C0D13A09F051C0C13094
:1026000009F041C0C0DDE0EDF1E081918093F1007F
:1026100091E0E83DF907C9F799CFC11111C0B3DDC9
:10262000D23849F4E092E900C091EB00C5FBCC2719
:10263000C0F91092E900C093F1001092F10086CF2A
:102640008C2F8D7F813099F6D23089F601151105D6
:1026500009F062C02E2D2F778FEF820F863008F0A1
:102660005BC08EEF8093E8002093E900C33009F44B
:10267000D3CE89E18093EB0081E090E001C0880F28
:102680002A95EAF743CFC23021F47DDD8091CE0157
:102690004ACFC33009F0C0CE76DD8091CF0143CF61
:1026A000D13209F0B9CEC93061F48091E80082FFDF
:1026B000FCCF8091F1008093CC018BEF8093E800F8
:1026C00045CFCA3029F41093CE011092CD013ECFF0
:1026D000CB3009F0A1CE0093CF0138CFC33009F041
:1026E0009BCE51DD8091CA011ECF94E0E916F10422
:1026F00009F092CED13A09F08FCEC13009F08CCEDC
:1027000042DDEEEBF1E08AEC91E021912093F100C3
:102710008E179F07D1F71ACF82E0E816F10409F46B
:102720007BCE83E0E816F10401F7D13AB9F4C13069
:10273000A9F629DD8091CB018093F1001092F10080
:102740001092F1001092F10078CF92E0E916F104B6
:1027500009F4A6CF83E0E816F10439F6D13209F086
:102760005BCECB3009F058CE0093CA01EFCE90E09B
:1027700080E008950895CF92DF92EF92FF920F9339
:102780001F93CF93DF936C01EB017B01E40EF51EE9
:1027900010E000E0CE15DF0561F06991D601ED9102
:1027A000FC910190F081E02DC6010995080F191FD9
:1027B000F1CFC801DF91CF911F910F91FF90EF9062
:1027C000DF90CF900895CF93DF9300D0CDB7DEB7E1
:1027D0002DE029832AE02A83DC01ED91FC9102801F
:1027E000F381E02D42E050E0BE016F5F7F4F09951D
:1027F0000F900F90DF91CF91089501DA0E947F0A28
:102800000E94E20AFDCF5AC3CF93DF931F92CDB748
:10281000DEB76983DC01ED91FC910280F381E02D4C
:1028200041E050E0BE016F5F7F4F09950F90DF914F
:10283000CF910895FC018FB7F8949091DA0191112E
:102840000CC090E08FBF2085318537FD03C09F3FCE
:1028500009F09F5F892F90E0089593E09093E9003D
:102860009091F2009111EECF2091E80022FFE9CF84
:1028700025FDE7CF2BE62093E800E4CFCF93DF934D
:10288000EC018885998597FF09C0E881F981028468
:10289000F385E02DCE0109959987888788859985EC
:1028A000DF91CF9108952091DA01222371F02FB7A3
:1028B000F89433E03093E9003BE64091E80045FFAF
:1028C00003C03093E800F9CF2FBF2FEF3FEFFC019B
:1028D000318720870895FC012085318537FD07C0A9
:1028E0004FEF5FEF51874087C901992708959FB740
:1028F000F8948091DA01811104C09FBF8FEF9FEFA0
:10290000089583E08093E9002BE68091E80085FD3F
:1029100005C082FFF2CF2093E800F7CF8091F1004D
:102920002091E80025FD03C02BE62093E8009FBF1F
:1029300090E00895BF92CF92DF92EF92FF920F93B3
:102940001F93CF93DF937C018091DA01811110C036
:1029500081E0F701828310E000E0C801DF91CF91B0
:102960001F910F91FF90EF90DF90CF90BF9008954F
:102970002FB7F89484E08093E9008091A501882323
:1029800041F08091E80085FD02C02FBFE1CF109299
:10299000A50110E000E084E0D82E90E4C92EA1EF5C
:1029A000B0E03AE3B32E33E04115510509F4C0C05D
:1029B0008091E400815F9091E80095FD16C02FBFE3
:1029C0009091E400891306C081E08093A501F7018E
:1029D0008283C3CF9091DA01911102C081E0F7CFD9
:1029E0002FB7F894D092E900E6CF8091F2009C2DA9
:1029F000981B9417150611F008F0942FE92FF0E0BA
:102A00004E1B5F0B0E0F1F1FEB01E0E4E91BE034D0
:102A100028F4EE0FFF27E15FFA4E099480C09991E8
:102A20009C9399919C9399919C9399919C93999142
:102A30009C9399919C9399919C9399919C93999132
:102A40009C9399919C9399919C9399919C93999122
:102A50009C9399919C9399919C9399919C93999112
:102A60009C9399919C9399919C9399919C93999102
:102A70009C9399919C9399919C9399919C939991F2
:102A80009C9399919C9399919C9399919C939991E2
:102A90009C9399919C9399919C9399919C939991D2
:102AA0009C9399919C9399919C9399919C939991C2
:102AB0009C9399919C9399919C9399919C939991B2
:102AC0009C9399919C9399919C9399919C939991A2
:102AD0009C9399919C9399919C9399919C93999192
:102AE0009C9399919C9399919C9399919C93999182
:102AF0009C9399919C9399919C9399919C93999172
:102B00009C9399919C9399919C9399919C93999161
:102B10009C9399919C9399919C9399919C93BE01BC
:102B20008091E80085FFB092E8003093A7013CCF88
:102B30002FBF13CF2FEF3FEFFC013187208728DB1A
:102B40000FB6F89480919C0190919D01A0919E01F7
:102B5000B0919F010FBE9C018091DA01882329F07A
:102B600068EC70E080E090E0D4CA8091D9018823BD
:102B700001F10FB6F89440919C0150919D01609134
:102B80009E0170919F010FBE8091D901882389F029
:102B90000FB6F89480919C0190919D01A0919E01A7
:102BA000B0919F010FBE841B950B8B3F910560F385
:102BB00008950FB6F89480919C0190919D01A09189
:102BC0009E01B0919F010FBE821B930B853C9940E3
:102BD00008F4C2CF08956032710540F46A3071057F
:102BE00069F06B30710561F48BE20895603871050E
:102BF00038F4615B7C4EFB018491089588E208956E
:102C000080E008958091DA01882309F441C08FB7EC
:102C1000F89491E09093E9009091E4009E5C21E0AB
:102C20003091E80035FD0EC08FBF8091DA01882316
:102C300079F18091E400981759F18FB7F8942093B7
:102C4000E900EECF9091D0019093F1009091D101E5
:102C50009093F1009091D2019093F1009091D30163
:102C60009093F1009091D4019093F1009091D5014F
:102C70009093F1009091D6019093F1009091D7013B
:102C80009093F1009AE39093E8001092CD018FBFEA
:102C90000895CF93DF93EC0182E066FF80E080939C
:102CA000D0011092D1016F736093D2011092D301C1
:102CB0001092D4011092D5011092D6011092D70132
:102CC000CE01A0DF1092D0011092D201CE01DF918F
:102CD000CF9198CF6111DDCF0895CF93DF93EC01B1
:102CE00067FD0CC01B8270E0CE0175DF682FCE013E
:102CF000F1DF81E090E0DF91CF910895603CD0F466
:102D00006F738B81813039F41B828C819D819C0192
:102D1000262BB901E9CF823061F730E4639FB0011F
:102D200011248C819D81682B792B7D836C8381E0BC
:102D30008B83DFCF603E38F480E4689FB0011124BC
:102D4000607C7770F2CF8FEF603F90F76295607F85
:102D50001C826D8382E0ECCF0F938091DA0188238F
:102D6000B9F1603809F461E8403809F441E82038E5
:102D700009F421E8003809F401E88FB7F89495E0E8
:102D80009093E9009091E4009E5C35E05091E8005A
:102D900055FD0EC08FBF8091DA018823C9F0809164
:102DA000E4009817A9F08FB7F8943093E900EECFBC
:102DB0009091CB019093F1006093F1004093F1006A
:102DC0002093F1000093F1009AE39093E8008FBF05
:102DD0000F9108958091DA01882309F44FC08FB7CD
:102DE000F89496E09093E9009091E4009E5C26E0D0
:102DF0003091E80035FD0EC08FBF8091DA01882345
:102E0000E9F18091E4008917C9F18FB7F894209314
:102E1000E900EECF9091BE019093F1009091BF0137
:102E20009093F1009091C0019093F1009091C101B5
:102E30009093F1009091C2019093F1009091C301A1
:102E40009093F1009091C4019093F1009091C5018D
:102E50009093F1009091C6019093F1009091C70179
:102E60009093F1009091C8019093F1009091C90165
:102E70009093F1009AE39093E8008FBF0895E0EB00
:102E8000F1E011861086128288EE93E0A0E0B0E0B7
:102E900083839483A583B683178284E791E091832B
:102EA0008083EAEAF1E0128213821482158286E8B6
:102EB00091E0918380831092A80108950F931F934E
:102EC000CF93DF938230910510F482E090E0E0919F
:102ED000BC01F091BD0130E020E070E060E0D0E0A6
:102EE000C0E0B0E0A0E0309799F42115310509F475
:102EF0004AC0281B390B24303105D8F58A819B81C3
:102F00006115710589F1FB0193838283FE0111C074
:102F1000408151810281138148175907E0F0481719
:102F2000590799F4109761F012960C931297139623
:102F30001C933296CF01DF91CF911F910F9108958D
:102F40000093BC011093BD01F4CF2115310551F060
:102F50004217530738F0A901DB019A01BD01DF01D7
:102F6000F801C1CFEF01F9CF9093BD018093BC016F
:102F7000CDCFFE01E20FF31F8193919322503109CF
:102F800039832883D7CF2091BA013091BB01232BFD
:102F900041F42091090130910A013093BB01209343
:102FA000BA0120910701309108012115310541F442
:102FB0002DB73EB740910B0150910C01241B350BEE
:102FC000E091BA01F091BB01E217F307A0F42E1BC8
:102FD0003F0B2817390778F0AC014E5F5F4F24177D
:102FE000350748F04E0F5F1F5093BB014093BA0165
:102FF000819391939FCFF0E0E0E09CCFAA1BBB1B95
:1030000051E107C0AA1FBB1FA617B70710F0A61BE8
:10301000B70B881F991F5A95A9F780959095BC0109
:10302000CD010895EE0FFF1F0024001C0BBE07907A
:0A303000F691E02D0994F894FFCF0B
:10303A0000E100000000080000DB01800053656E1B
:10304A00736F7220696E697469616C697A617469F7
:10305A006F6E207375636365737365640053656E81
:10306A00736F7220696E697469616C697A617469D7
:10307A006F6E206661696C65640026002A001B0079
:10308A0004000B0027002B000000050028002C007C
:10309A000100080029002D000200090003000A00AF
:1030AA000000000004149A14B71353141A146B1472
:0E30BA003E14000000006D16BB13B713BA13CE
:00000001FF
