:100000000C94EA090C94140A0C94140A0C94140A23
:100010000C94140A0C94140A0C94140A0C94140AE8
:100020000C94140A0C94140A0C94BA120C946113D4
:100030000C94140A0C94140A0C94140A0C94140AC8
:100040000C94140A0C94140A0C94140A0C94140AB8
:100050000C94140A0C94140A0C94140A0C94DE11D7
:100060000C94140A0C94140A0C94140A0C94140A98
:100070000C94140A0C94140A0C94140A0C94140A88
:100080000C94140A0C94140A0C94140A0C94140A78
:100090000C94140A0C94140A01048E966E773EFE9A
:1000A0007E5F1DB8F2664EFF5D19B0C20469542A26
:1000B000D62EBFDD19B0C3E529B1E023A5A9B1C192
:1000C0000082674C1A978D795120C7068E7C7C7A06
:1000D000764FFD5930E2460E9EBEDF1D9991A0A5D8
:1000E000A1A9D022C6EF5C1B958990A2A7CCFB5595
:1000F00028B3E44AF76C3BF46A562EDE1F9DB8D352
:10010000058892A6CE1EBEDF1D99B0E246EF5C07C1
:10011000115D980B9D9497EE4E45336B44C729565D
:100120002730C6A7D5F256DFB43862CBA0B6E30FAE
:1001300084062405656F7689B577412782666582D6
:10014000CCD5E620D52717C5F803237C5F64A51D11
:10015000C1D636CB4CD4DB66D78BB1997E6F4C368B
:100160004006D6EBD7A2E4F495515A5496D55344A1
:10017000D78CE0B94068D218E9DD9A239248EE7F27
:1001800043AFEA7738848C0A72AF69F8DDF12483D3
:10019000A3F84ABFF59413DBBBD8B4B3A0FB45501A
:1001A000603059123171A2D313E7FAE7CE0F63150D
:1001B0000B6B94BB378326059DFB4692FC0A15D139
:1001C0000D7392D68C1B8CB8558ACEBDFE8EFCED7D
:1001D0000912839182513123FBB40C76AD7CD9B4E2
:1001E0004BB26714099C7F0C18BA3BD68E142AE4D4
:1001F0001B529F2B7DE1FB6A3302FAAC5AF23E8818
:100200007EAED1F378E805D1E3DC21F6E19ABD17A3
:100210000ED9469B8803EAF666BE0E1B50499640EF
:1002200097F1F1E480A66EE87734BF294044C2FF1D
:100230004E98D39CA3322B76510409E7A9D1A6325C
:10024000B12353E247ABD6F5695C3E5FFAAE452079
:10025000E5D244FF39326DFD27575CFDF0DEC1B5B4
:1002600099E5F51C770175C56D5892F2B24700010A
:1002700026967A30FFB7F0EF77C18A5DDCC0D129CE
:10028000301E77387A94F1B87A7EEFA4D1AC314A37
:10029000F25D643DB2E2F00899FC70EE24A77EEEB8
:1002A0001E20697D44BF8742DF883B0CDA42C904C7
:1002B000F94550FC838F116A72BC9995F0AC3DA74B
:1002C0003BCD1CE2887937115F3989950A16847A0B
:1002D000F68AA428E4ED83803BB123A50310F466DD
:1002E000EABB0C0FC5EC6C69C5D324ABD42AB79913
:1002F000887608A0A8957CD8386DCD5902514BF16D
:10030000B52B50E3B6BDD072CF9EFD6EBB44C82462
:100310008A77188A1306EF977DFA81F031E6FA772B
:10032000ED3106315B548A9F3068DBE240F84E7352
:10033000FAAB748B105813DCD2E678D1322E8A9F38
:100340002C58064827C5A95E81478946219103702C
:10035000A43E889CDA330ACEBC8B8ECF9FD37180AB
:1003600043CF6BA95183763082C56A853911501A03
:1003700082DC1E1CD57DA9719933471997B35AB1F8
:10038000DFEDA4F2E62684A2289A9EDFA66AF4D6C0
:10039000FC2E5B9D1A2A2768FBC183214B90E03617
:1003A000DD5B314255A013F7D08953719957092964
:1003B000C5F321F8372F40F3D4AF16083602FC7787
:1003C000C58B049056B9C9679A99E800D386FF9700
:1003D0002D08E9B7B391BCDF45C6ED0F8C4C1EE686
:1003E0005B6E3830E4AAE395DEB9E49AF5B2559A2B
:1003F000879BF66AB2F2779A31F47A31D11D04C044
:100400007C32A29E9AF562F8278DBF51FFD3DF643C
:10041000373F2A6F763A7D77069E777F5EEB3251C3
:10042000F916669A09F3B008A470964630FFDA4FC1
:10043000E91BED8DF8741F3192B3731736DB9130E1
:10044000D688556B3477877AE7EE06C61C8C190C74
:100450004846235E9C075CBFB47ED64F749CE2C5C1
:10046000508BC58B159060625729D01343A18088AB
:10047000910044C74D1986CC2F2A755AFCEB972A58
:1004800070E378D891B04F9907A395EA2421D5DE7F
:10049000512093270A3073A8FF8A97E9A76A8E0D27
:1004A000E8F0DFECEAB46C1D392A622D3D5A8B6509
:1004B000F890052E7E912C78EF8E7AC12FAC78EED5
:1004C000AF2845064C26AF3BA2DBA39306B53CA55F
:1004D000D8EE8FAF25CC3F856848A962CC978F7F37
:1004E0002AEAE0150AAD6207BD45F841D836CB4C83
:1004F000DB6EE63AE7DA15E9291E1210A0142C0E7D
:100500003DF4BF394192750B257BA3CE399C156410
:10051000C8FA3DEF7327FE262ECEDA6EFD718EDD12
:10052000FE76EEDC125C02C53A4E4E4FBFCA401555
:10053000C76E8D41F110E04F7E977F1CAE478E6BEA
:10054000B12531B073C71B9779F980D36622300784
:10055000741EE4D08021D6EE6B6C4FBFF5B7D9097D
:10056000872FA914BE27D9725001D41373A6A7519F
:10057000027525E1B345347DA88EEBF31649CB4FC8
:100580008CA1B9368539755D0800AEEBF6EAD71354
:100590003A215A5F3084522695C914F257556BB1EF
:1005A00010C2E1BD3B51C0B7554C711226C70DF9C1
:1005B00051A43802057FB8F1724BBF718914F377EB
:1005C00038D97124F30011A1D8D46927083735C967
:1005D000119D901C0EE71CFF2D1EE892E11810954E
:1005E0007CE080F4964321F975216438DD9F1E95E7
:1005F00016DA561D4F9A53B2E2E418CB6B1A65EB2C
:1006000056C63BE5FED8263F3A84597266A2F3757A
:10061000FFFB60B322AD3F2D6BF9EBEA057CD88F71
:100620006D2C989E2B93F15E46F08749297368D70D
:100630007FF9F0E57DDB1D7519F3C4589B1788A879
:1006400092E0BEBD8B1D8D9F5676ADAF29E2D9D508
:1006500052F6B55635573AC8E156431994D3049B20
:100660006D35D80B5F4D198EECFA64910A72202B10
:10067000BC1A4AFE8BFDBBED1B23EAAD7282A12999
:100680009971BDF095C103DD7BC2B23C2854D3689B
:10069000A472C86696E0D1D87FF8D1262BF7ADBA00
:1006A00055CA15B932C3E588978E5CFB92258BBF7E
:1006B000A245557AA76F8B575BCF0ECB1DFB2082CF
:1006C00077A88CCC16CE1DFADECC0B62FECCE1B73F
:1006D000F0C381647340A0C24D8911753355338DC9
:1006E000E84AFDEA6E300BD7312CDE47E3BFF85500
:1006F00042E27F59E517EF99346991B1238E208743
:100700002DA8FED58AF3843AF037E4090054EE6749
:100710004993E48170E3904DEFFE41B7997BC1832B
:10072000BA62126F7DDE6BAFDA16F95551EEA60C88
:100730002B02A3FD8DFB3017E46FDF3671C4CA872F
:100740002548B047ECEAB4BFA54D9B9F0293C4E394
:10075000E4E8422D6881150AEB845BD6A874FB7D22
:100760001DCB2CDA462A7662CEBC5C9E8BE7CFBED0
:1007700078F57CEBB33A9CAA6FCC72D159F2112375
:10078000D63F48D1B7CEB0BFCBEA80DE57D45E9714
:100790002F75D1508E802C6679BF724BBD8A816CCB
:1007A000D3E101DCD21526C536DA2C1AC02794ED28
:1007B000B79B850B5E8097C5EC4FEC885D50073585
:1007C00047DC0B3B3DDD60AFA85D813824255D5CD7
:1007D00015D1DEB3ABEC0569EF83ED5754B8646413
:1007E00011163269DA9F2D7F36BB445A34E87FBF39
:1007F00003EB007F59682279CF736C2C29A7A15F86
:1008000038A11DF02053E01A6314587110AA080C87
:100810003E161A6022827FBAA443A0D0AC1BD56BCF
:1008200064B51493319E5350D05766EE5A4FFB0374
:100830002A695876F183F74EBA8C4206605D6DCE18
:100840006088AEA4C3F103A54B98A1FF67E1ACA2F9
:10085000B862D76FA031B4D277AF211006C69AFF25
:100860001D09170E5FF1AA54344B458A8763A6DC35
:10087000F9243067C6B2D6613369EE50615728E774
:100880007EEEEC3A5A734EA88DE418EAEC4164C847
:10089000E2E866B62DB6FB6A6C16B3DD4643B97363
:1008A000006A71ED4E9D251AC33C4A951599358114
:1008B0001402D6989BECD8233B8429AF0C9983A6CD
:1008C0009A344FFAE8D03C4BD0FBB668B89E8FCD37
:1008D000F7602D7A22E57DAB651B95A7A87FB677DB
:1008E000477B5F8B1272D0D491EFDE19503CA78BFF
:1008F000C4A9B323CB76E681F0C1048FA3B8545BBF
:1009000097AC19FF3F55272FE01D429B57FC4B4EDC
:100910000FCE98A9435703BDE7C894DF6E367332F4
:10092000B4EF2E857A6EFC6C188275359007F3E46F
:100930009F3EDC68F3B5F31980920699A2E86FFF39
:100940002E7FAE42A45FFBD40E812BC304FF2BB3DA
:10095000744E365B9C1500C6472BE88B3DF19C031B
:100960009A587F9B9CBF854979352E567B41143917
:10097000478326AA078998111B86E7737AD87D7862
:100980006153E979F5368D449284F91350583BA4AC
:100990006A3665498E3C0EF16FD284C47E8E3F3933
:1009A000AE7C84F163378E3CCC3E448145F14BB93B
:1009B000ED6B365DBB20601A0FA3AA55773AA9AE3E
:1009C000374DBAB8866BBC0850F6CCA4BD1D40723A
:1009D000A586FAE210AE3D584B97F34374A99EEBFF
:1009E00021B701A4869397EE2F4F3B86A1416F411B
:1009F0002690785C7F30384B3FAAECED5C6F0EADF3
:100A00004387FD9335E601EF412690999EFB195BE4
:100A1000ADD2918AE046AF65FA4F84C1A12DCF4592
:100A20008BD38550557CF96788D44EE9D76B6154D8
:100A3000A1A4A6A2C2BF309C409F5FD7692B24828D
:100A40005ED9D6A712541AF7559F7650A99584E619
:100A50006B6DB59654D6CDB3A19B46A7944DC49467
:100A6000B498E3E1E234D533160754CDB77753DBBE
:100A70004F4D469DE9D49C8A36B6B838266C0EFF99
:100A80009C1B438B80CCB93DDAC7F18AF26DB8D795
:100A9000742F7E1EB7D34AB4ACFC79486CBC96B6B2
:100AA0009446572DB0A3FC1EB95260852D41D0430A
:100AB000011E1CD57DFCF3960DC7CB2A299A93DD28
:100AC000882D375DAAFB4968A09C50867F685657E1
:100AD000F9791839D4E001843361CAA5D2D6E4C9C2
:100AE0008A4A23444EBCF0DC24A1A0C4E2073C1097
:100AF000C4B5254B6563F480E7CF61B1718221876E
:100B00002CF59100320CECA9B59A7485E3368F76FA
:100B10004F9C6DCEBCAD0A4BED7604CBC3B9339E72
:100B2000019396697DC5A245799B045C8409ED8893
:100B300043C7AB931426A140B5CE4EBF2A42853E93
:100B40002C3B54E8121F0E9759B22789FAF2DF8E18
:100B50006859DC06BCB6850D0622ECB1CBE504E68F
:100B60003DB3B04173083F3C588663EB50EE1D2CFB
:100B70003774A9D318A3476E9354AD0A5DB82A55AC
:100B80005D78F6EEBE8E3C7669B940C234EC2AB987
:100B9000ED7E20E48D0038C7E68F44A886CEEB2A90
:100BA000E990F14CDF32FB731B6D921E95FEB4DBB6
:100BB00065DF4D23548948BF4A2E70D6D762B433BF
:100BC00029B13A334C236DA676A5216348E6905DA2
:100BD000ED90950B7A84BEB80D5E630C62264C14C2
:100BE0005AB3AC23A474A76F333005600142A02828
:100BF000B7EE1938F164808243E141271F1F9054FA
:100C00007AD5232ED13DCB28BA587FDC7C9124E9BC
:100C10002851836EC5562142EDA05622A140806B1B
:100C2000A8F794CA136B0C39D9FDE9F36FA69EFCA3
:100C3000708AB3BC593C1E1D6CF97CAFF988719564
:100C4000EB5700BD9F8C4FE12483C522EAFDD30CF6
:100C5000E217187C6A4CDE77B4539B4C81CD23603D
:100C6000AA0E25739C02793230DF74DF7519F4A562
:100C7000145CF77AA8A591847C6003063BCD50B63E
:100C8000279CFEB1DDCCD3B05924B2CAE21C81222C
:100C90009D078F8EB9BE4EFAFC3965BABF9D1237DB
:100CA0005E977EF389F55DF5E3098C62B5209D0CB6
:100CB000538A681BD28F75175DD4E5DA75621914F3
:100CC0006A262DEBF8AF37F06CA455B1BCE233C007
:100CD0009ACAB011494F689B3B6B3CCC13F6C78551
:100CE000616842AEBBDDCD4516291DEADBC8039421
:100CF0003CEE4F8211C3EC28BD970599DED7BB5E51
:100D0000221FD4EB64D992D985B76A056AE42441DD
:100D1000F1CDF0D83FF89E0ECD0B7A706B5A750A64
:100D20006A3388EC17750870102F24CFC4E942008D
:100D30006194CA1F3A7606FAD24881F0776003457B
:100D4000D961F4A46F3DD930C3046B542AB7EC3B8E
:100D5000F44BF5685226CEFF5D1991A0A3A5A9B169
:100D6000E023C40A774DF95120A3A5A9B1C100829F
:100D7000868E7F5D1991A0A3C4EB540B7568520752
:100D80008C9A978D79706246EF5C1B95897141E171
:100D900021A1A1A1C002674C1AB6CFFD785324ABA4
:100DA000B5C9F16023A5C812876D5813858892874D
:100DB0006D5832C70C9A97ACDA36EE5E3EDF1DB83E
:100DC000F2662FBDF87247ED5813858892878C7BA9
:100DD000550990A2C6EF3DF85324ABD42AB7EC5A7C
:100DE00036EE5E3EDF3CFA764FFD5930E246EF3D8F
:100DF000F853056931C10082868E7F5D19B0E22704
:100E0000CCFB744B148B948B756833C50892878C1C
:100E10009AB6CF1CBAD70D98B2E62FDC1B95897114
:100E20006023C40A968F9CBAF66E3FFC5B15A8D26D
:100E300026AFBDF872662FDC1BB4CB148B94AAB717
:100E4000CDF951018082866F3DD930E227CCFB7409
:100E50004B14AAB7CDF97043046B35C9F16023A5D3
:100E6000C8F3450892876D5832E62FBDF872664E7A
:100E70001EBEFE7E7E7E5F1D9991A0A3C40A774DA3
:100E80001893A4ABD40B754910A2C6EF3DF85324B8
:100E9000ABB5E833E44A16AEDE1FBCDB15A8B3C51C
:100EA000087345E931C1E121A1A1A1C002866F5CAF
:100EB0003AD70D9893A4CA16AEDE1F9D99B0E246AC
:100EC000EF3DF872470C9AB6CFFD5911A0A3A5C803
:100ED000F3450892876D39F043048A96AEDE3EDF13
:100EE0001D9991A0C2066F3DF872470C9A978D9894
:100EF0009385887345E931E023A5A9D003848A96B8
:100F0000AEDE1FBCDB15A8D226CEFF5D1991818015
:100F100082672DD813A4ABD40B94AAB7CDF9512076
:100F2000A3A5C8F345E95022C6EF5C3AD70D9893C4
:100F3000858873644AF74DF95120A3C40A96AEDE42
:100F40003EFE7E7E7E5F3CFA764FFD7872662FBD58
:100F5000D930C3E54812878C7B5528D2078C9A97E5
:100F6000ACDA178D795120A3C4EB540B948B94AA5F
:100F7000D62EBFFC5B15A8D226AFDC1BB4EA37EC3B
:100F80003BF46A37CD1893856931C1E140E325C848
:100F900012878C9AB6CFFD5911A0C2068E7F5D389C
:100FA000F2470C7B746A37EC5A36EE3FFC7A764F88
:100FB0001C9B95897141006344EB542AD60F9CBA5F
:100FC000D70D9893856931C10082868E9EBEDF3C25
:100FD000FA572CDA36EE3FFC5B15897141008286A8
:100FE0008E7F5D38F247ED5813A4CAF74DF95101D1
:100FF000806344EB542AD62EBFDD1991A0A3A5A986
:10100000B1E042068E7F5D1991A0A3C40A968F7D40
:101010007872470C7B746A562EDE1FBCFA570D7926
:1010200051016121A1C0E325A9B1C1E14002674C92
:101030001A978D9893A4ABD42AD60F9C9BB4CB144B
:10104000AAB7CDF95120A3C4EB35C9F16042068E91
:101050007F7C7A766E3FFC7A766E5E3EFE7E5F3CEB
:10106000DB15897141E121C0E344EB542AB7CDF986
:10107000706227ADD832C70C7B744B14AAB7EC3B17
:10108000D528D2076D39D120C2E74C1A978D98B276
:10109000C70C5928F39B0129022904290829102982
:1010A000202940298029012C022C01260226042611
:1010B00008261026202640268026402C802C01233E
:1010C000022304230823102320234023802301200C
:1010D0000220042008201020202040208020102CF6
:1010E000202C012F022F042F082F102F202F402FEC
:1010F000802F7EFE7EFD7EFB7EF77EEF7EDF7EBF55
:101100007E7F0001000051131200020000D91196E9
:1011100000220200FC1255002102002D12090022BB
:101120000300C41238002103004612090022040003
:101130006F1255002104005F120900030000D51151
:101140000401030904BB1118020309047B113E03C7
:101150000309046D110C040309045D110E0E035301
:101160000065007200690061006C0000000C033132
:1011700000320033003400350000003E03530065A8
:10118000007200690061006C002B004B0065007963
:101190000062006F006100720064002B004D006F60
:1011A000007500730065002B004A006F0079007322
:1011B000007400690063006B0000001803540065B0
:1011C0000065006E00730079006400750069006EB0
:1011D000006F0000000403090409029600050100E5
:1011E000C032080B000202020104090400000102DF
:1011F000020100052400100105240100010424025D
:1012000006052406000107058203100040090401B9
:1012100000020A00000007050302400000070584E1
:10122000024000000904020001030101000921112C
:10123000010001225500070581030800010904038C
:1012400000010301020009211101000122380007F9
:1012500005850308000209040400010300000009D9
:101260002111010001225500070586030C0001052C
:10127000010904A101150025017501952005091931
:101280000129208102150025073500463B01750420
:101290009501651405010939814205010901A10083
:1012A000150026FF03750A95040930093109320932
:1012B000358102C0150026FF03750A95020936091B
:1012C000368102C005010902A10105091901290899
:1012D00015002501950875018102050109300931C4
:1012E00009381581257F750895038106050C0A3894
:1012F000021581257F750895018106C00501090643
:10130000A10175019508050719E029E715002501D8
:1013100081029508750115002501050C09E909EA06
:1013200009E209CD09B509B609B709B881029505E1
:1013300075010508190129059102950175039103AD
:10134000950675081500257F05071900297F81007E
:10135000C012010002EF020140C0168704720201B0
:10136000020301C106C11280368136C106C1162CA6
:101370005E7460616264346667656E362D37382747
:101380001E1F202122232425267333762E77785F93
:101390004445464748494A4B4C4D4E4F5051525395
:1013A0005455565758595A5B5C5D2F3130636D3533
:1013B0000405060708090A0B0C0D0E0F1011121375
:1013C0001415161718191A1B1C1D6F7170752A0039
:1013D0007E0BBD1811241FBECFEFD0E2DEBFCDBF04
:1013E00011E0A0E0B1E0E6E4F2E300E00BBF02C0F0
:1013F00007900D92AE36B107D9F722E0AEE6B1E024
:1014000001C01D92A836B207E1F719E0CAEED9E093
:1014100004C02197FE010E941819C83ED107C9F7E0
:101420000E944C150C9421190C940000CF92DF926D
:10143000EF92FF920F931F93CF93DF93CDB7DEB759
:1014400028970FB6F894DEBF0FBECDBFCE01019630
:101450005BD442E050E065E070E0CE01019682D4BA
:1014600065E070E0CE0101968DD488E0FE013196F2
:10147000AEEAB1E001900D928A95E1F7CE010196B6
:1014800043D442E050E070E060E0CE0101966AD4BF
:1014900065E070E0CE01019675D488E0FE013196DA
:1014A000A6EBB1E001900D928A95E1F70DE211E013
:1014B0008EEBE82E81E0F82E9FE4C92E91E0D92E24
:1014C000CE01019621D4F801619171918F0142E022
:1014D00050E0CE01019646D465E070E0CE01019661
:1014E00051D488E0FE013196D70101900D928A9582
:1014F000E1F7F8E0EF0EF11CC016D10609F740E461
:1015000056E064E170E08EE691E078D3469A8091EF
:1015100090008F778093900028960FB6F894DEBFE6
:101520000FBECDBFDF91CF911F910F91FF90EF9034
:10153000DF90CF9008950F93CF93DF93CDB7DEB7B1
:101540002C970FB6F894DEBF0FBECDBF6EE671E0EC
:10155000CE01019630D28A81882321F189818823A6
:1015600009F14D815E814038510514F04FE750E09C
:1015700041388FEF580714F441E85FEF6B817C81AD
:101580006038710514F06FE770E061388FEF78070D
:1015900014F461E87FEF619500E020E087E592E0D8
:1015A0000E945E182C960FB6F894DEBF0FBECDBF1A
:1015B000DF91CF910F910895CF93DF93EC01FC0160
:1015C000EE0FFF1FE758FE4F6081718188E592E0C2
:1015D0000E94E317C356DE4F81E08883DF91CF91ED
:1015E0000895CF93DF93EC01FC01EE0FFF1FE75846
:1015F000FE4F6081718188E592E00E943318C356E6
:10160000DE4F1882DF91CF9108950F931F93CF93F0
:10161000DF930EEB11E0D0E0C0E0C801B7D3C80102
:1016200027D4882369F0CE01C7DF2196085F1F4FBA
:10163000C131D10591F7DF91CF911F910F9108959D
:10164000C8010ED4882389F3CE01CBDFEECFCF9330
:10165000DF93EC01FC01EE0FFF1FEB58FE4F6081A2
:1016600087E592E00E949C18C556DE4F81E0888392
:10167000DF91CF910895CF93DF93EC01FC01EE0F42
:10168000FF1FEB58FE4F608187E592E00E94AC1887
:10169000C556DE4F1882DF91CF9108958EEA91E012
:1016A00075D38EEA91E0E4D3811113C08EEA91E004
:1016B000D7D3882319F090E080E0DDDF86EB91E05E
:1016C00065D386EB91E0D4D3882339F081E090E0B4
:1016D000BECF90E080E0BBDFF1CF86EB91E0C0D3DE
:1016E000882319F081E090E0C6CF0895D7DF8DDF21
:1016F00022DF65E070E080E090E0A0C60F931F93CA
:10170000CF93DF93CEEBD1E006E412E0CE01FCD222
:1017100028960C171D07D1F78EEA91E0F5D286EBDB
:1017200091E0F2D2809100019091010190937A01B1
:1017300080937901809102019091030190937C0143
:1017400080937B01809104019091050190937E012B
:1017500080937D0180910601909107019093800113
:1017600080937F01809108019091090190938201FB
:101770008093810180910A0190910B0190938401E3
:101780008093830180910C0190910D0190938601CB
:101790008093850180910E0190910F0190938801B3
:1017A00080938701809110019091110190938A019B
:1017B00080938901809112019091130190938C0183
:1017C00080938B0180911C0190911D0190938E015B
:1017D00080938D018091180190911901909390014F
:1017E00080938F0180911A0190911B019093920137
:1017F0008093910180911E0190911F01909394011B
:101800008093930180912001909121019093960102
:1018100080939501809122019091230190939801EA
:1018200080939701809124019091250190939A01D2
:101830008093990180911401909115019093760104
:101840008093750180911601909117019093780112
:10185000809377018EE691E0DF91CF911F910F91F8
:101860002AC020914802222359F0213061F42DB37F
:10187000209346023DB320914702209523232DBBA0
:101880008CBD9DBD08952FB7F89420934602F8CFE4
:101890008EBD00000DB407FEFDCF8EB5089590916A
:1018A0004802992339F080914602913011F48DBBA2
:1018B00008958FBF0895FC0112821382148215824D
:1018C000168208950F931F93CF938C01603519F002
:1018D000DC0112961C92D801ED91FC91FF278AD36E
:1018E000C4E08C2F81500000E9F7862F8F77D0DF7E
:1018F00080E991E00197F1F780E0CADFC150000074
:10190000E9F7D801ED91FC91FF276ED39CE491504B
:101910000000E9F7CF911F910F9108950F931F9346
:10192000CF93DF938C01D42F603519F0DC01129630
:101930001C92D801ED91FC91FF275CD3C4E08C2F61
:1019400081500000E9F7862F8068A2DF8D2FA0DF8D
:1019500080E581500000E9F7C1500000E9F7D801A7
:10196000ED91FC91FF2740D380E991E00197F1F7D9
:10197000DF91CF911F910F9108950F931F93CF93F4
:10198000DF93EC018B018CE591E06BDFC80164E62D
:1019900070E00E940419AB014150510948375105CC
:1019A00010F047E750E06FE0CE01B8DFDF91CF9154
:1019B0001F910F9174CF4F925F926F927F928F928F
:1019C0009F92AF92BF92EF92FF920F931F93CF938C
:1019D000DF93CDB7DEB72C970FB6F894DEBF0FBEFE
:1019E000CDBF8C017B014AD54B015C01D701139619
:1019F0004D905D906D907C9016978CE591E031DF75
:101A0000F7018281882361F084189508A608B70839
:101A1000F1E28F16F1EA9F06FFEFAF06BF0640F036
:101A200040E060E5C7017ADF81E0D70112968C9330
:101A3000D701ED91FC91FF27DDD284E081500000B9
:101A4000E9F780E525DF8CE881500000E9F789811E
:101A50008EBDFE0131969E01245F3F4F2E173F073A
:101A600041F091810DB407FEFDCF8EB59EBD8193EF
:101A7000F5CF0DB407FEFDCF8EB58C8784E0982F8F
:101A800091500000E9F781500000E9F7D701ED918E
:101A9000FC91FF27A9D203DF2981822F877011F0E3
:101AA000F7011282EBD4D70113966D937D938D933A
:101AB0009C9316976B817C814D815E818B859C8583
:101AC000322F331F3327331FF801308323FB2227A4
:101AD00020F931E023272183738362835583448374
:101AE0002F81268328852783298520872A8521879A
:101AF00093878287C8012C960FB6F894DEBF0FBE7D
:101B0000CDBFDF91CF911F910F91FF90EF90BF90CC
:101B1000AF909F908F907F906F905F904F900895BF
:101B2000FF920F931F93CF93DF93EC0140E060E1AE
:101B3000F5DE4DE163E1CE01F1DE6AE070E080E0C8
:101B400090E07CD448E163E1CE01E8DEE881F981F0
:101B5000FF2750D284E081500000E9F782EE98DE42
:101B60008CE381500000E9F710E000E08CE3F82EF0
:101B7000F801E856FF4F84918BDE8F2D81500000D5
:101B8000E9F70F5F1F4F0E3F8FE0180789F76AE2F2
:101B9000CE0198DE40E060E1CE01C0DE84E08150FD
:101BA0000000E9F7E881F981FF271ED2DF91CF918C
:101BB0001F910F91FF9008950F931F93CF93DF9381
:101BC000EC018CE591E04DDE60E0CE017BDE082F7C
:101BD0006FE3CE0177DE182F6AE2CE0173DEC82FE5
:101BE0005EDE023429F41D3B19F481E0C43009F0B3
:101BF00080E0DF91CF911F910F910895EF92FF92B6
:101C00001F93CF93DF93EC01862F7A01688379834A
:101C10001A827FD1E881F981FF27E6D16AD08CE56D
:101C200091E01FDE14E0812F81500000E9F78881E8
:101C300099819927FC01D8D1FC01DCD1212F2150B9
:101C40000000E9F7212F21500000E9F7FC01CCD179
:101C500046EB6BE3CE0162DE22DE6CE271E080E0F7
:101C600090E0ECD38CE591E0FCDD888199819927A7
:101C7000FC01C0D1212F21500000E9F720EA322FCA
:101C800031500000E9F711500000E9F7FC01ACD138
:101C900021500000E9F74AE56AE3CE013FDEFFDDAF
:101CA00062E370E080E090E0C9D38CE591E0D9DD9B
:101CB00062E0CE0107DE63E0CE0104DE64E0CE0127
:101CC00001DE65E0CE01FEDD66E0CE01FBDDCE018A
:101CD00027DFE5DD6AE070E080E090E0AFD3B70198
:101CE000CE014BDECE01DF91CF911F91FF90EF909F
:101CF00063CF289A209A8CB580618CBD8CB58064A6
:101D00008CBD219A229A0895FC01108211821282C0
:101D100013828AE090E09583848316821782089567
:101D2000DC0117966C931797FB01FF2756D2E11140
:101D300014C016961C9216970FB6F89440914A025A
:101D400050914B0260914C0270914D020FBE4D9329
:101D50005D936D937C931397089583E016968C930F
:101D60001697EACF0F931F93CF93DF938C01EB016C
:101D7000642F8C2F32D1BE01C801DF91CF911F910A
:101D80000F91CECFFC017583648308950F931F9349
:101D9000DC011796EC911797F0E01FD216969C91F4
:101DA0001697892F877F16968C93169791FBFF279E
:101DB000F0F921E0E11101C020E0F217E9F00FB6DF
:101DC000F89440914A0250914B0260914C027091FC
:101DD0004D020FBE4D935D936D937C93139792E0EC
:101DE000892716968C93169716968C9183FB8827D5
:101DF00080F91F910F9108950FB6F89400914A024F
:101E000010914B0220914C0230914D020FBE4D912A
:101E10005D916D917C911397041B150B260B370B6D
:101E200014964D915C91159770E060E004171507CA
:101E300026073707C8F29170F917B1F20FB6F89478
:101E400040914A0250914B0260914C0270914D02B8
:101E50000FBE4D935D936D937C93139799E0C0CF24
:101E6000FC019681997081E0993009F080E0089535
:101E7000FC01868180FD04C083FB882780F90895DA
:101E800080E008951DBA109268001CBC10BE1FBAF5
:101E900010927A0010926E0010926F0010927000F3
:101EA000109271001092C9001092BC0011B814B8C1
:101EB00017B81AB81DB810BA12B815B818B81BB8A8
:101EC0001EB811BA0895F894E1E6F0E020E8208306
:101ED000108283E084BD85BDEEE6F0E08081816004
:101EE000808391E09093800082E0809381009093C2
:101EF000B0008093B100909390008093910086E8A9
:101F000080937A0020937B0010927E00D6D2789442
:101F100008958E3270F4E6E9F0E1880FE80FF11DC4
:101F20002591E491F0E09FB7F8948181822B818321
:101F30009FBF08958E3218F5AAEDA80FA83000F5BE
:101F4000E2EFF0E1AA0FEA0FF11DA591B0E0959143
:101F5000E6E9F0E1880FE80FF11D2591E491F0E04A
:101F60004FB7F8943181822F8095232F2823218326
:101F7000228182238283EC919E239C934FBF0895FC
:101F80009FEFB0E0A0E0E4CF8E3210F5AAEDA80FED
:101F9000A830F8F4E2EFF0E1AA0FEA0FF11DA591E5
:101FA000B0E09591E6E9F0E1880FE80FF11D359179
:101FB000E491F0E04FB7F8948181232F20952823F6
:101FC00021838281832B8283EC919E239C934FBF3C
:101FD00008959FEFB0E0A0E0E5CF613009F499CF1C
:101FE000623009F4D1CFA6CFEE3250F4EE0FEF5F9E
:101FF000FF4E0994EE3220F4EE0FE35AFF4E09949F
:102000000895589AB6C0599AD0C05A9A08955B9AC2
:1020100008955C9A08955D9A08955E9A08955F9A6E
:102020000895709A0895719A0895409A0895419A72
:102030000895429A0895439A0895449AC8C0459ACB
:10204000C0C0469AB8C0479A0895769A0895779A7C
:102050000895289A0895299A08952A9A08952B9AFE
:1020600008952C9A9CC02D9A88C02E9A8CC02F9AC5
:1020700090C0109A0895119A0895129A0895139A8B
:102080000895149A0895159A0895169A0895179A1E
:102090000895749A0895759A0895889A0895899A6A
:1020A00008958A9A08958B9A08958C9A08958D9A26
:1020B00008958E9A08958F9A089558985AC05998FD
:1020C00074C05A9808955B9808955C9808955D9837
:1020D00008955E9808955F9808957098089571988E
:1020E0000895409808954198089542980895439816
:1020F000089544986CC0459864C046985CC0479861
:1021000008957698089577980895289808952998BD
:1021100008952A9808952B9808952C9840C02D98DA
:102120002CC02E9830C02F9834C010980895119864
:10213000089512980895139808951498089515987D
:1021400008951698089517980895749808957598A5
:10215000089588980895899808958A9808958B9885
:1021600008958C9808958D9808958E9808958F9865
:102170000895E4B5EF7DE4BD0895E0918000EF7728
:10218000E09380000895E0918000EF7DE09380006F
:102190000895E0918000E77FE09380000895E0914A
:1021A000B000EF77E093B0000895E091B000EF7DCC
:1021B000E093B0000895E0919000EF77E0939000F5
:1021C0000895E0919000EF7DE09390000895E091F4
:1021D0009000E77FE09390000895EE3258F4EE0F00
:1021E000EE0FFF27EC3718F4E250FF4E0994E05051
:1021F000FF4E0994EE270895E1E00895E9B1E170FA
:10220000D9F70895E9B1E270B9F70895E9B1E4703A
:1022100099F70895E9B1E87079F70895E9B1E071A7
:1022200059F70895E9B1E07239F70895E9B1E0741A
:1022300019F70895E9B1E078F9F60895ECB1E17085
:10224000D9F60895ECB1E270B9F60895E6B1E170FF
:1022500099F60895E6B1E27079F60895E6B1E47072
:1022600059F60895E6B1E87039F60895E6B1E071DF
:1022700019F60895E6B1E072E9F50895E6B1E07463
:10228000C9F50895E6B1E078A9F50895ECB1E074D8
:1022900089F50895ECB1E07869F50895E3B1E1704E
:1022A00049F50895E3B1E27029F50895E3B1E470CA
:1022B00009F50895E3B1E870E9F40895E3B1E07138
:1022C000C9F40895E3B1E072A9F40895E3B1E074AC
:1022D00089F40895E3B1E07869F40895E0B1E1701C
:1022E00049F40895E0B1E27029F40895E0B1E47092
:1022F00009F40895E1E00895E0B1E870D9F7089590
:10230000E0B1E071B9F70895E0B1E07299F708958E
:10231000E0B1E07479F70895E0B1E07859F70895F5
:10232000ECB1E07139F70895ECB1E07219F7089556
:10233000EFB1E170F9F60895EFB1E270D9F60895C2
:10234000EFB1E470B9F60895EFB1E87099F6089529
:10235000EFB1E07179F60895EFB1E07259F60895A2
:10236000EFB1E07439F60895EFB1E07819F6089509
:10237000F89484B7877F84BF8091600080618093E8
:1023800060001092600080E29EE40197F1F781E026
:102390008093E00080E28093D80080E69AEE019777
:1023A000F1F770DD0C9400FEFFCFF8946BDD80E652
:1023B0009AEE0197F1F70C940000FFCF8F938FB73F
:1023C0008F93809149028D5F8D37D0F480934902BD
:1023D00080914A028F5F80934A02D8F080914B022D
:1023E0008F4F80934B02A8F080914C028F4F8093C7
:1023F0004C0278F080914D028F4F80934D0209C0BE
:102400008D578093490280914A028E5F80934A02E1
:1024100028F780914E028C5F80934E0258F0809195
:102420004F028F4F80934F0228F0809150028F4FC0
:10243000809350028F918FBF8F911895CF92DF922A
:10244000EF92FF926B017C0119D09B01C114D10462
:10245000E104F10429F4FF90EF90DF90CF9008950C
:102460000DD0621B730B683E734080F381E0C81A85
:10247000D108E108F10828513C4FE8CF0FB6F89495
:1024800066B515B270914E0280914F029091500244
:102490000FBE10FE05C06F3F19F07C5F8F4F9F4F3E
:1024A00011240024660F001C660F001C702908957B
:1024B0008091E80080FFFCCF08958091D80087FFCD
:1024C00002C085FF56C081E88093D70080EA8093E0
:1024D000D80086E189BD09B400FEFDCF80E9809374
:1024E000D8001092E00010928402109283021092A1
:1024F000820210927A0210927B0210927C02109259
:102500007D0210927E0210927F0210928002109241
:10251000810281E0809379029DE790937802109286
:1025200077021092760210927502809374021092D4
:1025300068021092690210926A0210926B028FE098
:1025400080936C0290E290936D0280E880936E021B
:1025500010926F0222E02093700228E02093710213
:1025600090937202809373021092E1008DE0809349
:10257000E20008951F920F920FB60F9211240BB62E
:102580000F922F933F934F935F936F937F938F930C
:102590009F93AF93BF93EF93FF939091E1001092BD
:1025A000E10093FF11C01092E90081E08093EB00FD
:1025B0001092EC0082E38093ED0088E08093F000BD
:1025C000109284021092820292FF47C0809184028E
:1025D000882309F442C080915502882359F0815024
:1025E00080935502811106C084E08093E9008AE35C
:1025F0008093E80080915402882331F081508093C9
:102600005402811101C0B4DE80917802882329F13F
:10261000809152028F5F809352028370F1F481E0C7
:102620008093E9008091E80085FF17C080917702D0
:102630008F5F809377022091780282130EC01092F0
:102640007702EAE7F2E081918093F10082E0E238DC
:10265000F807C9F78AE38093E80090FF0CC080E197
:102660008093E2001092840281E08093830280EAEA
:102670008093D80019BC80918302882379F094FF5D
:102680000DC086E189BD09B400FEFDCF80E98093CD
:10269000D8008DE08093E20010928302FF91EF91C9
:1026A000BF91AF919F918F917F916F915F914F916A
:1026B0003F912F910F900BBE0F900FBE0F901F9068
:1026C00018951F920F920FB60F9211240BB60F920E
:1026D000EF92FF920F931F932F933F934F935F932C
:1026E0006F937F938F939F93AF93BF93CF93DF931A
:1026F000EF93FF931092E9008091E80083FF21C0DF
:10270000D091F100C091F1000091F1001091F10021
:10271000E090F100F090F1002091F1003091F10093
:1027200082EF8093E800C63009F05CC08DE0E2E003
:10273000F1E1459155910417150739F0359681500F
:10274000C1F781E28093EB002BC045915591E416CF
:10275000F50611F03396F3CF4591559184912F3FB3
:10276000310519F010F02FEF30E0821708F4282F10
:102770003EEF8091E800982F9570D9F382FD10C04C
:10278000822F213408F080E4982F911124C0922FD9
:10279000981B892F3093E80091111BC02034C8F496
:1027A000FF91EF91DF91CF91BF91AF919F918F9169
:1027B0007F916F915F914F913F912F911F910F9159
:1027C000FF90EF900F900BBE0F900FBE0F901F90D9
:1027D0001895282FCECFFA0145914093F100AF0113
:1027E0009150D3CFC53041F48EEF8093E80060DE86
:1027F00000680093E300D4CFC93011F5D1118CC02B
:102800000093840210928202109255028EEF809300
:10281000E80081E0E3E6F3E121E08093E900209322
:10282000EB0095919093EC0095919093ED008F5F64
:10283000873099F78EE18093EA001092EA00B0CFDA
:10284000C83049F4D03809F067C032DE8091840284
:102850008093F10010C0C13291F4D13A09F00AC15D
:1028600027DEE6E2F1E080818093F100319681E09D
:10287000ED32F807C1F78EEF8093E80091CFC032B8
:1028800009F03EC0D13209F047C08091E80082FFD4
:10289000FCCFE6E2F1E08091F1008083319691E097
:1028A000ED32F907C1F78BEF8093E8008EEF80934C
:1028B000E8008091260190912701A0912801B09114
:1028C000290186389105A105B10521F48FE0809397
:1028D000540266CF86399105A105B10509F060CF94
:1028E00084E08093E9009FEF8091EE00837009F40B
:1028F0005CDD9093E8008091E80082FDFCCFF4CF8E
:10290000C23231F4D13241F400938202D1DDB3CF2F
:10291000C332C1F4D132D1F382E0E816F10409F0F8
:1029200095C0D13A09F051C0C13009F041C0C0DDB5
:10293000EAE7F2E081918093F10092E0E238F90752
:10294000C9F799CFC11111C0B3DDD23849F4E09273
:10295000E900C091EB00C5FBCC27C0F91092E9005B
:10296000C093F1001092F10086CF8C2F8D7F8130C3
:1029700099F6D23089F60115110509F062C02E2DA5
:102980002F778FEF820F863008F05BC08EEF809339
:10299000E8002093E900C33009F4D3CE89E18093A5
:1029A000EB0081E090E001C0880F2A95EAF743CF61
:1029B000C23021F47DDD809178024ACFC33009F026
:1029C000C0CE76DD8091790243CFD13209F0B9CE05
:1029D000C93061F48091E80082FFFCCF8091F10062
:1029E000809376028BEF8093E80045CFCA3029F4BC
:1029F00010937802109277023ECFCB3009F0A1CE2F
:102A00000093790238CFC33009F09BCE51DD80911D
:102A100074021ECF94E0E916F10409F092CED13A87
:102A200009F08FCEC13009F08CCE42DDE8E6F2E04D
:102A300084E792E021912093F1008E179F07D1F750
:102A40001ACF82E0E816F10409F47BCE83E0E816A1
:102A5000F10401F7D13AB9F4C130A9F629DD80912A
:102A600075028093F1001092F1001092F100109223
:102A7000F10078CF92E0E916F10409F4A6CF83E0E3
:102A8000E816F10439F6D13209F05BCECB3009F00B
:102A900058CE00937402EFCE16DA0E94160A0E94F6
:102AA000760BFDCF90E080E008950895CF93DF93FB
:102AB0001F92CDB7DEB76983DC01ED91FC910280F6
:102AC000F381E02D41E050E0BE016F5F7F4F09953B
:102AD0000F90DF91CF910895FC018FB7F8949091FA
:102AE000840291110CC090E08FBF2085318537FDA5
:102AF00003C09F3F09F09F5F892F90E0089593E006
:102B00009093E9009091F2009111EECF2091E800AE
:102B100022FFE9CF25FDE7CF2BE62093E800E4CFA5
:102B2000CF93DF93EC018885998597FF09C0E881F1
:102B3000F9810284F385E02DCE0109959987888774
:102B400088859985DF91CF91089520918402222371
:102B500071F02FB7F89433E03093E9003BE64091F1
:102B6000E80045FF03C03093E800F9CF2FBF2FEFF7
:102B70003FEFFC01318720870895FC0120853185D6
:102B800037FD07C04FEF5FEF51874087C901992795
:102B900008959FB7F89480918402811104C09FBF6B
:102BA0008FEF9FEF089583E08093E9002BE68091FB
:102BB000E80085FD05C082FFF2CF2093E800F7CF43
:102BC0008091F1002091E80025FD03C02BE62093C1
:102BD000E8009FBF90E00895BF92CF92DF92EF92FE
:102BE000FF920F931F93CF93DF937C018091840218
:102BF000811110C081E0F701828310E000E0C8017C
:102C0000DF91CF911F910F91FF90EF90DF90CF90C8
:102C1000BF9008952FB7F89484E08093E9008091E5
:102C20005302882341F08091E80085FD02C02FBF48
:102C3000E1CF1092530210E000E084E0D82E90E43F
:102C4000C92EA1EFB0E03AE3B32E33E041155105B0
:102C500009F4C0C08091E400815F9091E80095FD87
:102C600016C02FBF9091E400891306C081E08093C5
:102C70005302F7018283C3CF90918402911102C065
:102C800081E0F7CF2FB7F894D092E900E6CF80919A
:102C9000F2009C2D981B9417150611F008F0942F44
:102CA000E92FF0E04E1B5F0B0E0F1F1FEB01E0E45E
:102CB000E91BE03428F4EE0FFF27EF59F94E099491
:102CC00080C099919C9399919C9399919C9399918F
:102CD0009C9399919C9399919C9399919C93999190
:102CE0009C9399919C9399919C9399919C93999180
:102CF0009C9399919C9399919C9399919C93999170
:102D00009C9399919C9399919C9399919C9399915F
:102D10009C9399919C9399919C9399919C9399914F
:102D20009C9399919C9399919C9399919C9399913F
:102D30009C9399919C9399919C9399919C9399912F
:102D40009C9399919C9399919C9399919C9399911F
:102D50009C9399919C9399919C9399919C9399910F
:102D60009C9399919C9399919C9399919C939991FF
:102D70009C9399919C9399919C9399919C939991EF
:102D80009C9399919C9399919C9399919C939991DF
:102D90009C9399919C9399919C9399919C939991CF
:102DA0009C9399919C9399919C9399919C939991BF
:102DB0009C9399919C9399919C9399919C939991AF
:102DC0009C93BE018091E80085FFB092E8003093AB
:102DD00055023CCF2FBF13CF6032710540F46A30EB
:102DE000710569F06B30710561F48BE2089560380C
:102DF000710538F4615B7C4EFB018491089588E293
:102E0000089580E0089580918402882309F441C0E8
:102E10008FB7F89491E09093E9009091E4009E5C64
:102E200021E03091E80035FD0EC08FBF8091840213
:102E3000882379F18091E400981759F18FB7F894BD
:102E40002093E900EECF90917A029093F100909157
:102E50007B029093F10090917C029093F10090910D
:102E60007D029093F10090917E029093F1009091F9
:102E70007F029093F100909180029093F1009091E5
:102E800081029093F1009AE39093E8001092770208
:102E90008FBF0895CF93DF93EC0182E066FF80E05F
:102EA00080937A0210927B026F7360937C0210927F
:102EB0007D0210927E0210927F0210928002109288
:102EC0008102CE01A0DF10927A0210927C02CE0124
:102ED000DF91CF9198CF6111DDCF0895CF93DF932C
:102EE000EC0167FD0CC01B8270E0CE0175DF682F1E
:102EF000CE01F1DF81E090E0DF91CF910895603C59
:102F0000D0F46F738B81813039F41B828C819D8169
:102F10009C01262BB901E9CF823061F730E4639F31
:102F2000B00111248C819D81682B792B7D836C836A
:102F300081E08B83DFCF603E38F480E4689FB0018E
:102F40001124607C7770F2CF8FEF603F90F762952D
:102F5000607F1C826D8382E0ECCFCF93DF93EC0126
:102F60004423D1F090917A02892F84238417A1F011
:102F7000942B90937A0291E0611111C0CE01DF9100
:102F8000CF9141CF2F5F3F4F28303105A1F49111F0
:102F9000F5CFDF91CF91089590E06623D1F3ACE7B0
:102FA000B2E0FD018191861791F382E0E238F807E3
:102FB000C9F722E030E08D918111E4CF26583D4FD2
:102FC000F9016083DBCFCF93DF93EC01872F992743
:102FD000823C68F0803EC0F46F73772726E0880F4C
:102FE000991F2A95E1F7807C9770682B792BCE0189
:102FF000F3DE882381F042E086FF40E0682F6F73A4
:10300000CE01DF91CF91A9CF40E0803FC9F3462F99
:1030100060E0803EA9F3DF91CF9108959C014423A5
:10302000F9F090917A02892F8423D1F040954923B9
:1030300040937A0291E0611103C0C901E4CE90E0AF
:10304000EAE7F2E040E852E08281861302C0128291
:1030500091E031964E175F07B9F79111EECF0895C1
:103060006111EDCF0895CF93DF93EC01872F99275E
:10307000823C68F0803EC0F46F73772726E0880FAB
:10308000991F2A95E1F7807C9770682B792BCE01E8
:10309000A3DE882381F042E086FF40E0682F6F7353
:1030A000CE01DF91CF91BACF40E0803FC9F3462FE8
:1030B00060E0803EA9F3DF91CF9108950F93809156
:1030C00084028823B9F1603809F461E8403809F4D2
:1030D00041E8203809F421E8003809F401E88FB705
:1030E000F89495E09093E9009091E4009E5C35E0BF
:1030F0005091E80055FD0EC08FBF80918402882357
:10310000C9F08091E4009817A9F08FB7F894309334
:10311000E900EECF909175029093F1006093F10079
:103120004093F1002093F1000093F1009AE3909313
:10313000E8008FBF0F9108950F932091750267707B
:10314000622B60937502621729F000E020E040E0F6
:1031500060E0B4DF0F9108950F93209175026770BE
:103160006095622360937502621729F000E020E009
:1031700040E060E0A3DF0F910895EEE5F2E01186F4
:103180001086128288EE93E0A0E0B0E083839483FF
:10319000A583B683178283E591E091838083E8E578
:1031A000F2E0128213821482158285E691E0918307
:1031B0008083109256020895CF92DF92EF92FF9291
:1031C0000F931F93CF93DF936C01EB017B01E40E10
:1031D000F51E10E000E0CE15DF0561F06991D60123
:1031E000ED91FC910190F081E02DC6010995080F49
:1031F000191FF1CFC801DF91CF911F910F91FF905F
:10320000EF90DF90CF900895AA1BBB1B51E107C040
:10321000AA1FBB1FA617B70710F0A61BB70B881F66
:10322000991F5A95A9F780959095BC01CD010895F5
:10323000EE0FFF1F0024001C0BBE0790F691E02D3F
:063240000994F894FFCF91
:1032460048F02BF056F055F054F062F05FF060F065
:1032560061F057F0010002005DF05EF05CF059F09D
:103266005AF05BF063F000E100000000080A00037A
:1032760000090002002D002900080001002C00288A
:10328600000B002B00270004001B002A002600006C
:103296000000005615EC155215A5156C15BD1590B8
:0E32A60015000000006E17DC185215551500BB
:00000001FF
