:100000000C94F3090C94120A0C94120A0C94120A20
:100010000C94120A0C94120A0C94120A0C94120AF0
:100020000C94120A0C94120A0C9486190C94BD18A4
:100030000C94C2250C94120A0C94120A0C94120A05
:100040000C94120A0C94120A0C94120A0C94120AC0
:100050000C94120A0C9463250C94120A0C94120A44
:100060000C94120A0C94120A0C94120A0C94120AA0
:100070000C94120A0C94120A0C94120A0C94120A90
:100080000C94120A0C94120A0C94120A0C94120A80
:100090000C94120A0C94120A730E760E9D0EAA0E80
:1000A000B10ED10E830F830F830F6A0F740FD40E1E
:1000B000D60EDB0E000F220F250F280F4B0F3A1321
:1000C0003A1374137413C713E31375157515EE13F0
:1000D000CC14DD14DD14C816EF169F18EF169F1808
:1000E0003B175E179F185C186C18661B661B791B04
:1000F000791B6F1B791B791B791B661B661B741B95
:10010000791B791B741B01048E966E773EFE7E5F11
:100110001DB8F2664EFF5D19B0C20469542AD62E8E
:10012000BFDD19B0C3E529B1E023A5A9B1C10082A3
:10013000674C1A978D795120C7068E7C7C7A764F52
:10014000FD5930E2460E9EBEDF1D9991A0A5A1A9E2
:10015000D022C6EF5C1B958990A2A7CCFB5528B393
:10016000E44AF76C3BF46A562EDE1F9DB8D305882F
:1001700092A6CE1EBEDF1D99B0E246EF5C07115D70
:10018000980B9D9497EE4E45336B44C72956273004
:10019000C6A7D5F256DFB43862CBA0B6E30F84060B
:1001A0002405656F7689B577412782666582CCD54F
:1001B000E620D52717C5F803237C5F64A51DC1D6AB
:1001C00036CB4CD4DB66D78BB1997E6F4C3640066C
:1001D000D6EBD7A2E4F495515A5496D55344D78C14
:1001E000E0B94068D218E9DD9A239248EE7F43AF28
:1001F000EA7738848C0A72AF69F8DDF12483A3F8BA
:100200004ABFF59413DBBBD8B4B3A0FB45506030B4
:1002100059123171A2D313E7FAE7CE0F63150B6BB6
:1002200094BB378326059DFB4692FC0A15D10D73BE
:1002300092D68C1B8CB8558ACEBDFE8EFCED091271
:10024000839182513123FBB40C76AD7CD9B44BB28F
:100250006714099C7F0C18BA3BD68E142AE41B52F3
:100260009F2B7DE1FB6A3302FAAC5AF23E887EAEE8
:10027000D1F378E805D1E3DC21F6E19ABD170ED978
:10028000469B8803EAF666BE0E1B5049964097F1DE
:10029000F1E480A66EE87734BF294044C2FF4E984F
:1002A000D39CA3322B76510409E7A9D1A632B123FE
:1002B00053E247ABD6F5695C3E5FFAAE4520E5D226
:1002C00044FF39326DFD27575CFDF0DEC1B599E57D
:1002D000F51C770175C56D5892F2B247000126965C
:1002E0007A30FFB7F0EF77C18A5DDCC0D129301ECC
:1002F00077387A94F1B87A7EEFA4D1AC314AF25DC6
:10030000643DB2E2F00899FC70EE24A77EEE1E2058
:10031000697D44BF8742DF883B0CDA42C904F94556
:1003200050FC838F116A72BC9995F0AC3DA73BCD10
:100330001CE2887937115F3989950A16847AF68A22
:10034000A428E4ED83803BB123A50310F466EABB47
:100350000C0FC5EC6C69C5D324ABD42AB799887649
:1003600008A0A8957CD8386DCD5902514BF1B52B1A
:1003700050E3B6BDD072CF9EFD6EBB44C8248A77D1
:10038000188A1306EF977DFA81F031E6FA77ED319E
:1003900006315B548A9F3068DBE240F84E73FAAB5B
:1003A000748B105813DCD2E678D1322E8A9F2C58E9
:1003B000064827C5A95E8147894621910370A43E5E
:1003C000889CDA330ACEBC8B8ECF9FD3718043CF0B
:1003D0006BA95183763082C56A853911501A82DC47
:1003E0001E1CD57DA9719933471997B35AB1DFED1A
:1003F000A4F2E62684A2289A9EDFA66AF4D6FC2EF2
:100400005B9D1A2A2768FBC183214B90E036DD5B98
:10041000314255A013F7D089537199570929C5F373
:1004200021F8372F40F3D4AF16083602FC77C58B7E
:10043000049056B9C9679A99E800D386FF972D08AA
:10044000E9B7B391BCDF45C6ED0F8C4C1EE65B6E81
:100450003830E4AAE395DEB9E49AF5B2559A879B61
:10046000F66AB2F2779A31F47A31D11D04C07C3247
:10047000A29E9AF562F8278DBF51FFD3DF64373F04
:100480002A6F763A7D77069E777F5EEB3251F916BA
:10049000669A09F3B008A470964630FFDA4FE91B5C
:1004A000ED8DF8741F3192B3731736DB9130D68817
:1004B000556B3477877AE7EE06C61C8C190C4846D4
:1004C000235E9C075CBFB47ED64F749CE2C5508B04
:1004D000C58B159060625729D01343A18088910085
:1004E00044C74D1986CC2F2A755AFCEB972A70E326
:1004F00078D891B04F9907A395EA2421D5DE5120F1
:1005000093270A3073A8FF8A97E9A76A8E0DE8F04F
:10051000DFECEAB46C1D392A622D3D5A8B65F890E8
:10052000052E7E912C78EF8E7AC12FAC78EEAF2815
:1005300045064C26AF3BA2DBA39306B53CA5D8EEFF
:100540008FAF25CC3F856848A962CC978F7F2AEA78
:10055000E0150AAD6207BD45F841D836CB4CDB6EDD
:10056000E63AE7DA15E9291E1210A0142C0E3DF424
:10057000BF394192750B257BA3CE399C1564C8FA0F
:100580003DEF7327FE262ECEDA6EFD718EDDFE76F0
:10059000EEDC125C02C53A4E4E4FBFCA4015C76E24
:1005A0008D41F110E04F7E977F1CAE478E6BB125D9
:1005B00031B073C71B9779F980D366223007741E58
:1005C000E4D08021D6EE6B6C4FBFF5B7D909872FE9
:1005D000A914BE27D9725001D41373A6A75102756E
:1005E00025E1B345347DA88EEBF31649CB4F8CA1A2
:1005F000B9368539755D0800AEEBF6EAD7133A21B6
:100600005A5F3084522695C914F257556BB110C207
:10061000E1BD3B51C0B7554C711226C70DF951A42D
:100620003802057FB8F1724BBF718914F37738D95E
:100630007124F30011A1D8D46927083735C9119D59
:10064000901C0EE71CFF2D1EE892E11810957CE02F
:1006500080F4964321F975216438DD9F1E9516DAE2
:10066000561D4F9A53B2E2E418CB6B1A65EB56C68F
:100670003BE5FED8263F3A84597266A2F375FFFB2C
:1006800060B322AD3F2D6BF9EBEA057CD88F6D2C62
:10069000989E2B93F15E46F08749297368D77FF9BE
:1006A000F0E57DDB1D7519F3C4589B1788A892E00F
:1006B000BEBD8B1D8D9F5676ADAF29E2D9D552F6C2
:1006C000B55635573AC8E156431994D3049B6D3556
:1006D000D80B5F4D198EECFA64910A72202BBC1A6C
:1006E0004AFE8BFDBBED1B23EAAD7282A1299971F5
:1006F000BDF095C103DD7BC2B23C2854D368A4721F
:10070000C86696E0D1D87FF8D1262BF7ADBA55CA86
:1007100015B932C3E588978E5CFB92258BBFA24545
:10072000557AA76F8B575BCF0ECB1DFB208277A826
:100730008CCC16CE1DFADECC0B62FECCE1B7F0C33A
:1007400081647340A0C24D8911753355338DE84AD9
:10075000FDEA6E300BD7312CDE47E3BFF85542E29D
:100760007F59E517EF99346991B1238E20872DA821
:10077000FED58AF3843AF037E4090054EE674993D2
:10078000E48170E3904DEFFE41B7997BC183BA627B
:10079000126F7DDE6BAFDA16F95551EEA60C2B0207
:1007A000A3FD8DFB3017E46FDF3671C4CA8725487F
:1007B000B047ECEAB4BFA54D9B9F0293C4E3E4E8C5
:1007C000422D6881150AEB845BD6A874FB7D1DCB96
:1007D0002CDA462A7662CEBC5C9E8BE7CFBE78F5DB
:1007E0007CEBB33A9CAA6FCC72D159F21123D63F5D
:1007F00048D1B7CEB0BFCBEA80DE57D45E972F7515
:10080000D1508E802C6679BF724BBD8A816CD3E14A
:1008100001DCD21526C536DA2C1AC02794EDB79B19
:10082000850B5E8097C5EC4FEC885D50073547DC43
:100830000B3B3DDD60AFA85D813824255D5C15D1A3
:10084000DEB3ABEC0569EF83ED5754B86464111661
:100850003269DA9F2D7F36BB445A34E87FBF03EB01
:10086000007F59682279CF736C2C29A7A15F38A12A
:100870001DF02053E01A6314587110AA080C3E169C
:100880001A6022827FBAA443A0D0AC1BD56B64B59A
:100890001493319E5350D05766EE5A4FFB032A698A
:1008A0005876F183F74EBA8C4206605D6DCE608853
:1008B000AEA4C3F103A54B98A1FF67E1ACA2B86257
:1008C000D76FA031B4D277AF211006C69AFF1D09A9
:1008D000170E5FF1AA54344B458A8763A6DCF924CE
:1008E0003067C6B2D6613369EE50615728E77EEEB5
:1008F000EC3A5A734EA88DE418EAEC4164C8E2E879
:1009000066B62DB6FB6A6C16B3DD4643B973006A52
:1009100071ED4E9D251AC33C4A95159935811402F7
:10092000D6989BECD8233B8429AF0C9983A69A34A4
:100930004FFAE8D03C4BD0FBB668B89E8FCDF7603D
:100940002D7A22E57DAB651B95A7A87FB677477BFF
:100950005F8B1272D0D491EFDE19503CA78BC4A9E3
:10096000B323CB76E681F0C1048FA3B8545B97AC78
:1009700019FF3F55272FE01D429B57FC4B4E0FCED2
:1009800098A9435703BDE7C894DF6E367332B4EFBE
:100990002E857A6EFC6C188275359007F3E49F3EC5
:1009A000DC68F3B5F31980920699A2E86FFF2E7FF9
:1009B000AE42A45FFBD40E812BC304FF2BB3744E55
:1009C000365B9C1500C6472BE88B3DF19C039A587B
:1009D0007F9B9CBF854979352E567B4114394783CF
:1009E00026AA078998111B86E7737AD87D78615308
:1009F000E979F5368D449284F91350583BA46A3650
:100A000065498E3C0EF16FD284C47E8E3F39AE7C38
:100A100084F163378E3CCC3E448145F14BB9ED6B9C
:100A2000365DBB20601A0FA3AA55773AA9AE374DA1
:100A3000BAB8866BBC0850F6CCA4BD1D4072A58622
:100A4000FAE210AE3D584B97F34374A99EEB21B7E1
:100A500001A4869397EE2F4F3B86A1416F412690CC
:100A6000785C7F30384B3FAAECED5C6F0EAD43876E
:100A7000FD9335E601EF412690999EFB195BADD2BF
:100A8000918AE046AF65FA4F84C1A12DCF458BD343
:100A90008550557CF96788D44EE9D76B6154A1A481
:100AA000A6A2C2BF309C409F5FD7692B24825ED92B
:100AB000D6A712541AF7559F7650A99584E66B6D08
:100AC000B59654D6CDB3A19B46A7944DC494B49883
:100AD000E3E1E234D533160754CDB77753DB4F4DFE
:100AE000469DE9D49C8A36B6B838266C0EFF9C1B0E
:100AF000438B80CCB93DDAC7F18AF26DB8D7742F39
:100B00007E1EB7D34AB4ACFC79486CBC96B694460A
:100B1000572DB0A3FC1EB95260852D41D043011E54
:100B20001CD57DFCF3960DC7CB2A299A93DD882D21
:100B3000375DAAFB4968A09C50867F685657F979B3
:100B40001839D4E001843361CAA5D2D6E4C98A4AEF
:100B500023444EBCF0DC24A1A0C4E2073C10C4B581
:100B6000254B6563F480E7CF61B1718221872CF555
:100B70009100320CECA9B59A7485E3368F764F9CC0
:100B80006DCEBCAD0A4BED7604CBC3B9339E019359
:100B900096697DC5A245799B045C8409ED8843C7AD
:100BA000AB931426A140B5CE4EBF2A42853E2C3BC6
:100BB00054E8121F0E9759B22789FAF2DF8E68594E
:100BC000DC06BCB6850D0622ECB1CBE504E63DB3F0
:100BD000B04173083F3C588663EB50EE1D2C3774D0
:100BE000A9D318A3476E9354AD0A5DB82A555D7812
:100BF000F6EEBE8E3C7669B940C234EC2AB9ED7E81
:100C000020E48D0038C7E68F44A886CEEB2AE99011
:100C1000F14CDF32FB731B6D921E95FEB4DB65DF7A
:100C20004D23548948BF4A2E70D6D762B43329B1B8
:100C30003A334C236DA676A5216348E6905DED908E
:100C4000950B7A84BEB80D5E630C62264C145AB3C1
:100C5000AC23A474A76F333005600142A028B7EE1F
:100C60001938F164808243E141271F1F90547AD5DF
:100C7000232ED13DCB28BA587FDC7C9124E9285122
:100C8000836EC5562142EDA05622A140806BA8F785
:100C900094CA136B0C39D9FDE9F36FA69EFC708AD8
:100CA000B3BC593C1E1D6CF97CAFF9887195EB57AC
:100CB00000BD9F8C4FE12483C522EAFDD30CE217CF
:100CC000187C6A4CDE77B4539B4C81CD2360AA0E0E
:100CD00025739C02793230DF74DF7519F4A5145C3A
:100CE000F77AA8A591847C6003063BCD50B6279C7B
:100CF000FEB1DDCCD3B05924B2CAE21C81229D07DB
:100D00008F8EB9BE4EFAFC3965BABF9D12375E9719
:100D10007EF389F55DF5E3098C62B5209D0C538A5D
:100D2000681BD28F75175DD4E5DA756219146A26CF
:100D30002DEBF8AF37F06CA455B1BCE233C09ACAC2
:100D4000B011494F689B3B6B3CCC13F6C78561687B
:100D500042AEBBDDCD4516291DEADBC803943CEE4F
:100D60004F8211C3EC28BD970599DED7BB5E221FC9
:100D7000D4EB64D992D985B76A056AE42441F1CDF0
:100D8000F0D83FF89E0ECD0B7A706B5A750A6A3315
:100D900088EC17750870102F24CFC4E942006194C5
:100DA000CA1F3A7606FAD24881F077600345D961C6
:100DB000F4A46F3DD930C3046B542AB7EC3BF44B19
:100DC000F5685226CEFF5D1991A0A3A5A9B1E02335
:100DD000C40A774DF95120A3A5A9B1C10082868E1E
:100DE0007F5D1991A0A3C4EB540B756852078C9AD0
:100DF000978D79706246EF5C1B95897141E121A165
:100E0000A1A1C002674C1AB6CFFD785324ABB5C977
:100E1000F16023A5C812876D5813858892876D5895
:100E200032C70C9A97ACDA36EE5E3EDF1DB8F2663A
:100E30002FBDF87247ED5813858892878C7B550932
:100E400090A2C6EF3DF85324ABD42AB7EC5A36EE45
:100E50005E3EDF3CFA764FFD5930E246EF3DF853F7
:100E6000056931C10082868E7F5D19B0E227CCFB17
:100E7000744B148B948B756833C50892878C9AB623
:100E8000CF1CBAD70D98B2E62FDC1B958971602371
:100E9000C40A968F9CBAF66E3FFC5B15A8D226AFAB
:100EA000BDF872662FDC1BB4CB148B94AAB7CDF9B6
:100EB00051018082866F3DD930E227CCFB744B1400
:100EC000AAB7CDF97043046B35C9F16023A5C8F307
:100ED000450892876D5832E62FBDF872664E1EBEE9
:100EE000FE7E7E7E5F1D9991A0A3C40A774D189364
:100EF000A4ABD40B754910A2C6EF3DF85324ABB593
:100F0000E833E44A16AEDE1FBCDB15A8B3C5087390
:100F100045E931C1E121A1A1A1C002866F5C3AD7A8
:100F20000D9893A4CA16AEDE1F9D99B0E246EF3D20
:100F3000F872470C9AB6CFFD5911A0A3A5C8F34586
:100F40000892876D39F043048A96AEDE3EDF1D9924
:100F500091A0C2066F3DF872470C9A978D989385C1
:100F6000887345E931E023A5A9D003848A96AEDED3
:100F70001FBCDB15A8D226CEFF5D19918180826748
:100F80002DD813A4ABD40B94AAB7CDF95120A3A5A7
:100F9000C8F345E95022C6EF5C3AD70D989385888F
:100FA00073644AF74DF95120A3C40A96AEDE3EFEA3
:100FB0007E7E7E5F3CFA764FFD7872662FBDD9301B
:100FC000C3E54812878C7B5528D2078C9A97ACDAF8
:100FD000178D795120A3C4EB540B948B94AAD62E71
:100FE000BFFC5B15A8D226AFDC1BB4EA37EC3BF4A0
:100FF0006A37CD1893856931C1E140E325C812876E
:101000008C9AB6CFFD5911A0C2068E7F5D38F2478B
:101010000C7B746A37EC5A36EE3FFC7A764F1C9B99
:1010200095897141006344EB542AD60F9CBAD70DC1
:101030009893856931C10082868E9EBEDF3CFA5747
:101040002CDA36EE3FFC5B158971410082868E7F7B
:101050005D38F247ED5813A4CAF74DF9510180638A
:1010600044EB542AD62EBFDD1991A0A3A5A9B1E067
:1010700042068E7F5D1991A0A3C40A968F7D787277
:10108000470C7B746A562EDE1FBCFA570D7951014E
:101090006121A1C0E325A9B1C1E14002674C1A97C3
:1010A0008D9893A4ABD42AD60F9C9BB4CB14AAB72B
:1010B000CDF95120A3C4EB35C9F16042068E7F7C87
:1010C0007A766E3FFC7A766E5E3EFE7E5F3CDB1586
:1010D000897141E121C0E344EB542AB7CDF9706234
:1010E00027ADD832C70C7B744B14AAB7EC3BD5287C
:1010F000D2076D39D120C2E74C1A978D98B2C70C30
:101100005928F39B000000000000000000000000D0
:1011100000000000000000007E0F00D4FFFFFFC7AA
:101120000000007800000000000000002A2B2800CA
:101130000000000000000000000000000000002986
:10114000000000002C1E3420212224342627252EC6
:10115000362D3738271E1F202122232425263333FE
:10116000362E37381F0405060708090A0B0C0D0E2A
:101170000F101112131415161718191A1B1C1D2FF6
:101180003130232D350405060708090A0B0C0D0E16
:101190000F101112131415161718191A1B1C1D2FD6
:1011A0003130354C05010902A10185020901A10078
:1011B000050919012905150025019505750181020B
:1011C0009501750381010501093009311581257FDC
:1011D00095027508810609381581257F95017508E6
:1011E0008106050C0A38021581257F950175088155
:1011F00006C0C005010980A101850319012AB700B5
:10120000150126B700950175108100C0050C090174
:10121000A101850419012AA002150126A002950149
:1012200075108100C00660FF0961A1010962150007
:1012300026FF009520750881020963150026FF002E
:10124000952075089102C005010906A1010507193D
:10125000E029E715002501950875018102950175C2
:101260000881010507190029FF150026FF009506D2
:101270007508810005081901290595057501910278
:10128000950175039101C009025B00030100A0FAFA
:1012900009040000010301010009211101000122DC
:1012A0004000070581030800010904010002030052
:1012B00000000921110100012222000705820320FC
:1012C00000010705030320000109040200010300D7
:1012D000000009211101000122810007058403207B
:1012E000000112011001000000086B6D7A7401000A
:1012F00001020301040330000000160354005200F1
:10130000410043004B007A00650072006F006E00E0
:10131000000006034D004B00000004030904000018
:1013200048002B000000000000005600500055004F
:10133000540000005F006000610057005C00003056
:1013400001305D005E00000059005A005B00630040
:101350000000010001000000000000000100010089
:101360000100010000000100010001000100010076
:101370000100010001000100000001000100010066
:101380000100000001000100000000000000010059
:101390000100010001000000010001000100010046
:1013A0000100010001000100010000000100010036
:1013B0000100010000000100010000000000000029
:1013C0000100010001000100000001000100010016
:1013D0000100010001000100010001000000010006
:1013E00001000100010011241FBECFEFD0E2DEBFDB
:1013F000CDBF11E0A0E0B1E0E4E0F6E500E00BBF16
:1014000002C007900D92AC36B107D9F722E0ACE6E6
:10141000B1E001C01D92A932B207E1F70E94140A9F
:101420000C94002B0C940000CF93DF93CDB7DEB764
:10143000C854D1090FB6F894DEBF0FBECDBF84B734
:10144000877F84BF0FB6F894A8958091600088616B
:1014500080936000109260000FBE90E080E80FB6AD
:10146000F89480936100909361000FBE85B7806807
:1014700085BF85B7806885BF0E9405190E94241921
:101480008091E20084608093E20078948091B501BD
:101490008823A1F01091E9001F709091EC00892F32
:1014A000817090FD80E8182B1092E9008091E8008F
:1014B00083FD0E94E4151F701093E90082E084BD53
:1014C00093E095BD9AEF97BD80936E0042E151E0A5
:1014D000ABE2B1E001E010E020E030E0FA01E20F21
:1014E000F31F80818F3FA1F0E82FE295EF70F0E0CD
:1014F00061A18F70780102C0EE0CFF1C8A95E2F7A3
:10150000C7019E2D9095962391A392A1892B82A32A
:101510002F5F3F4F2530310509F74B5F5F4FA41711
:10152000B507D1F6EEE6F1E083E791E0A4E9B1E09A
:1015300011921D928E179F07D9F789E190E00E94C2
:10154000DF29AC0190936D0180936C0120E030E0C5
:101550008BEFFA01E20FF31F90E081939F5F9530CC
:10156000E1F72B5F3F4F2931310599F70E9489221E
:101570008FE39CE90197F1F700C000000E948922E7
:101580008091940180FF0BC080E00E9423206FEFC8
:101590007FEF80E090E00E9491290E94312580E059
:1015A00090E00E946D298C3E9E4F11F00E942326F0
:1015B00082E290E00E946529803281F483E290E02B
:1015C0000E946529813151F484E290E00E946529EE
:1015D00091E0873209F090E0892F01C080E080FF20
:1015E000B7C480E090E00E946D298C3E9E4F11F0C0
:1015F0000E94232682E090E00E94652980938E015C
:101600000E941226909374018093730183E090E00E
:101610000E946529682F70E080E090E00E94C82752
:101620000E948C28109284010E943D290E94D021A2
:101630000E943D2966EB8BE30E94F4212FEF35EAEF
:101640004EE0215030404040E1F700C000000E94D1
:10165000D02185ED8A95F1F7000095E09A95F1F794
:1016600000000E943D29E5EDEA95F1F700006AE5EA
:101670008AE30E94F421FFEF20E732E0F15020409E
:101680003040E1F700C0000082E00E94DC2183E0EE
:101690000E94DC2184E00E94DC2185E00E94DC21A4
:1016A00086E00E94DC2160E080E10E94F4216DE18F
:1016B00083E10E94F4218FE39CE90197F1F700C0D8
:1016C000000068E183E10E94F4210E94D02182EEB3
:1016D0000E940D2990E59A95F1F706E011E054E09B
:1016E000E52E51E1F52EE016F10651F0F801849156
:1016F0000E940D29F0E5FA95F1F70F5F1F4FF3CF28
:101700008FE193E00197F1F700C000008AE20E94A8
:10171000DC2160E080E10E94F4210E943D29EFE39A
:10172000FCE93197F1F700C0000064E181E10E941B
:10173000F421F5E0FA95F1F700000E943D298FE3CE
:101740009CE90197F1F700C000000E94D0216FE0F2
:101750008FE00E94F4210E943D29EFE9FFE03197DC
:10176000F1F700C0000080E00E94DC218FE30E94BE
:10177000DC218AE20E94DC2186E091E090937601F0
:10178000809375018091B501853009F03AC0809150
:10179000B501843021F11092770120E488E190E0D6
:1017A0000FB6F894A895809360000FBE2093600058
:1017B00083B7817F846083BF83B7816083BF789460
:1017C000889583B78E7F83BF0FB6F894A8958091D4
:1017D0006000886180936000109260000FBE80916D
:1017E000AB01882309F4CECF0E94892289E991E0D8
:1017F000E4E9F1E0219121118CC38E179F07D1F705
:10180000C1CF0E9489220FE811E044E9842E41E013
:10181000942EE12CD12CF401A1904F01F801B0805D
:10182000BA2499F1C12CFF24F3948B2D8F2141F11F
:10183000CFAE2196DFAE219791E08A2D8F2109F45A
:1018400090E022969FAF22970E9498258160782F82
:1018500024969FAF8EAF24974FAD21965FAD219711
:1018600022966FAD229724968FAD24970E94CA1EB0
:10187000F80180818F258083E394F3E0FE1568F101
:10188000C394FF0C25E0C212D0CFD3940F5F1F4F3B
:1018900035E0D312C0CFE11020C08FEF25968FAF77
:1018A000259726968FAF269727961FAE27970E94DB
:1018B00098258160782F29969FAF8EAF299725961E
:1018C0004FAD259726965FAD269727966FAD279744
:1018D00029968FAD29970E94CA1E86E0EEE7F1E0B7
:1018E0008E010F5F1F4FD80101900D928A95E1F78D
:1018F000C0908001D0908101E0908201F09083013E
:101900001092800110928101109282011092830145
:10191000C11003C0DD2009F451C080917C01909179
:101920007D010E9489259C0190917B01992309F4F6
:101930001CC32333310508F441C09F3F19F09F5F5A
:1019400090937B01CC2061F00E94A9241C1414F414
:1019500091E001C09FEF899F802D11248093800129
:10196000DD2061F00E94A9241D1414F491E001C04F
:101970009FEF899F802D11248093810130918001F8
:101980003323E1F0209181012223C1F045EB3403A0
:10199000C0011124992319F09093800103C081E0C4
:1019A0008093800135EB2303C0011124992319F0A2
:1019B0009093810103C081E080938101E11003C015
:1019C000FF2009F451C08091790190917A010E9421
:1019D00089259C0190917801992309F4CBC2253681
:1019E000310508F441C09F3F19F09F5F9093780143
:1019F000EE2061F00E9487241E1414F491E001C0CF
:101A00009FEF899F802D112480938201FF2061F038
:101A10000E9487241F1414F491E001C09FEF899F56
:101A2000802D112480938301309182013323E1F0D2
:101A3000209183012223C1F045EB3403C00111241E
:101A4000992319F09093820103C081E08093820171
:101A500035EB2303C0011124992319F090938301DE
:101A600003C081E0809383018091800181110BC0CC
:101A700080918101811107C080918201811103C091
:101A80008091830181110E94A425CB82DC82ED82AA
:101A9000FE8286E0F801AEE7B1E001900D928A95F2
:101AA000E1F786E0E7E8F1E0DE01919601900D9222
:101AB0008A95E1F786E0FE01B196DE0197960190E6
:101AC0000D928A95E1F786E0FE01B796D801019064
:101AD0000D928A95E1F789A49AA4809184018111DD
:101AE00007C060E080E50E94F42181E080938401DA
:101AF0000E94D02180E50E940D294AEB4A95F1F71A
:101B000000C00E942529782E80E00E940D290E94A5
:101B100025297C010E942529A82E0E9425296C01D7
:101B20000E942529B82E0E943D29872D8870682E95
:101B30000E943D29872D877011F010928401611059
:101B400038C077FE36C08091850190918601892B3F
:101B500031F40E94982590938601809385018A2D07
:101B6000AA0C990B982F8827E82AF92A8827992701
:101B70008E199F098038910514F08FE790E0813825
:101B8000EFEF9E0714F481E89FEF882E8B2DBB0C9E
:101B9000990B982F88278C299D298038910514F05E
:101BA0008FE790E08138FFEF9F0714F481E89FEF03
:101BB000982E8B829C8286E0F801DE019D96019032
:101BC0000D928A95E1F78FA698AA86E0FE01BD9650
:101BD000A7E8B1E001900D928A95E1F786E0E7E889
:101BE000F1E0DE01D39601900D928A95E1F786E04F
:101BF000FE01F396DE01D99601900D928A95E1F7E8
:101C00002AAD8BAD9CAD3A8131110DC021110BC0B5
:101C1000811009C0811107C081E0911005C09111A8
:101C200003C080E001C081E080FF0CC087E891E044
:101C30000E94921F1092890110928A0110928B01CA
:101C400010928C010E94A01F90918D01891721F0A4
:101C50000E94A01F80938D018091B501843009F00E
:101C600091CD83E08093E9008091E80082FF8ACDE6
:101C70008091E80085FF21C00E94631A81111BC07A
:101C800080E2E82EF12C680109C08091F100F60194
:101C900081936F01F1E0EF1AF10869F08091E8009B
:101CA00085FDF3CF8091E8008B778093E8000E9458
:101CB000631A882399F391E001C090E08091E800D5
:101CC0008B778093E800992309F45CCDE9818E2F0E
:101CD00090E0FC013197E331F10508F014C1E45BB9
:101CE000FF4F0C94CF291A8289E063C08A81823029
:101CF00009F425C1833089F0813009F004C12FB780
:101D0000F8948091990190919A01A0919B01B091D2
:101D10009C012FBFBB83AC8322C0809194018B8335
:101D2000809195018C83809196018D83809197019C
:101D30008E83809198018F83E8C08A81823009F078
:101D4000E2C06B817C818D819E810E94D82985E2D1
:101D500090E024C04C816B818A810E94F01F9D839A
:101D6000F5C0CD80DE80DC24CD24DC248C81EB80AA
:101D70009A812AE0E29E7001112432E3939FE00CE5
:101D8000F11C1124E80EF11CE80EF11C6D2DC701A9
:101D900086960E9473296C2DC70187960E9473292D
:101DA000B4C00E94BC1FB1C080E150C087E08A83EC
:101DB00082E18B83AAC0EA80FB80FE24EF24FE240C
:101DC000AC80B12C6801C70182519F4F9601201B46
:101DD000310B2A153B0508F098C042E1E41647E0B4
:101DE000F40628F40E946529F601848302C0F601F6
:101DF0001482FFEFEF1AFF0A2FEFC21AD20AE3CFC5
:101E0000EA80FB80FE24EF24FE24AC80B12C680124
:101E1000C70182519F4F9601201B310B2A153B05AC
:101E200008F073C032E1E31637E0F30620F4F60160
:101E300064810E947329FFEFEF1AFF0A2FEFC21A85
:101E4000D20AE6CF0E94AC1F60C084E08A835DC0E6
:101E5000EA80FB80FE24EF24FE24AC80B12C6801D4
:101E6000C70186969601201B310B2A153B0508F009
:101E70004CC038ECE316F10428F40E946529F60101
:101E8000848302C0F6011482FFEFEF1AFF0A2FEFDE
:101E9000C21AD20AE5CFEA80FB80FE24EF24FE249A
:101EA000AC80B12C6801C70186969601201B310BCE
:101EB0002A153B0550F538ECE316F10420F4F60141
:101EC00064810E947329FFEFEF1AFF0A2FEFC21AF5
:101ED000D20AE9CF80E00E9423206FEF7FEF80E0FD
:101EE00090E00E94912911C0C8010E94C21A3FEFE0
:101EF00041EE84E0315040408040E1F700C00000F6
:101F00000E94312502C08FEF8983C8010E94C21A46
:101F100039CC84E189BD86E189BD09B400FEFDCFDD
:101F20008091D8008F7D8093D8008091E0008260FE
:101F30008093E0008091E00081FDFCCF23CC85E21E
:101F400090E00E9465291B821C821D828E83DDCF5A
:101F500060E085E290E00E9473290E94BC1F0E940D
:101F6000AC1F81E00E9423203CCB2D32314008F091
:101F7000E6CC24CD2D32314008F037CD75CD5F92BF
:101F80006F927F928F929F92AF92BF92CF92DF9289
:101F9000EF92FF920F931F93CF93DF93CDB7DEB7EE
:101FA00029970FB6F894DEBF0FBECDBFFC0180812C
:101FB000918123813481232B31F09F3F31F491E0D3
:101FC0008F3F19F403C091E001C090E090FDC8C5B7
:101FD0007F0185E0DE01119601900D928A95E1F76F
:101FE000F701228189819A81222349F00E94B92632
:101FF000182F682F89819A810E94332703C00E947D
:102000000627182F69817A81812F0E9416208C0162
:10201000F7018281882309F4DEC0980122513F45EF
:102020002031310508F003C18FEF97E00E94652948
:102030008111DBC002513EEEA32EB12C002379F0BA
:10204000A114F8E0BF0609F4D0C0C5010E946529BB
:10205000811101C001501FEFA11AB10AEFCF1E82FA
:102060001F8218861986662463942AE0522E850101
:102070000F5F1F4FC5010E9465298E831F82882331
:1020800009F4B3C09FEF980F933060F48F836E8292
:1020900022E0A20EB11CC8010E9465298887811127
:1020A00002C0A3C058018E010A5F1F4FF8012081B2
:1020B0002223E9F2213009F04CC08181813049F4BA
:1020C0006801F2E0CF0ED11CF80182810E94741EDB
:1020D0000AC0823051F46801F2E0CF0ED11CF80141
:1020E00082810E94D01D860173C0833049F468014B
:1020F000F2E0CF0ED11CF80182810E94691DF3CF5E
:10210000843019F00F5F1F4F63C0F80122810E5F0A
:102110001F4F80E090E030E0205331092A30310534
:1021200068F4589EA001599E500D1124C901840FD6
:10213000951F0F5F1F4FF8012081EDCF009709F425
:1021400047C0EFE9FFE03197F1F700C000000197C9
:10215000F5CFE22FF0E0EC5DFE4E7490822F869575
:102160008695869590E0FC01EC5EFE4E849027708B
:10217000912C022E02C0959487940A94E2F7F1E024
:102180008F229924FC01EC5FFE4EC490D12C02C03A
:10219000D594C7942A95E2F721E0C222DD24811468
:1021A000910419F081EE0E94D01DC114D10419F0E0
:1021B00086EE0E94D01D872D0E94741ECD2819F036
:1021C00086EE0E94691D892819F081EE0E94691D22
:1021D0000F5F1F4F6BCF00313FE5130709F0B7C406
:1021E00081E00E9469270E94C615809119028770BC
:1021F00009F4B6C4F7018281882309F4B1C482E0EE
:1022000029960FB6F894DEBF0FBECDBFDF91CF91F8
:102210001F910F91FF90EF90DF90CF90BF90AF9004
:102220009F908F907F906F905F900C948E270031DD
:10223000FFE51F0711F481E005C001312FE512070A
:1022400021F482E00E94A727CECF0115F0E31F07FB
:1022500031F4882311F084EF0AC084EF0CC0013000
:1022600020E3120709F037C1882321F085EF0E948F
:10227000D01D03C085EF0E94691DF701828188236C
:1022800009F488C110929D010230FCE51F0708F493
:102290006BC106312CE5120738F098012A5F3C45E6
:1022A0002930310508F060C10E9412269093740114
:1022B0008093730100313CE5130709F4C3C008F0B3
:1022C00041C008309CE5190709F49AC0F0F40430C5
:1022D000FCE51F0709F487C068F402303CE51307EA
:1022E00009F477C003301C4509F0E5C08091730103
:1022F000826076C006309CE5190709F46EC008F0CC
:102300007BC08091730188606BC00C30FCE51F07B7
:1023100009F485C068F40A303CE5130709F474C079
:1023200008F079C00E94491D80917301806858C0EF
:102330000E309CE5190709F476C008F07FC0809143
:1023400073018BC00B3FFCE51F0709F44FC018F564
:1023500003313CE5130709F47DC078F401319CE5B5
:10236000190709F473C002311C4509F0A4C00E948A
:10237000491D809173018F7733C00531FCE51F073C
:1023800009F472C008F486C00A3F1C4509F093C0E6
:10239000809174013EC00F3F8CE5180709F45FC0BF
:1023A00058F40D3FECE51E0709F444C008F43FC0A3
:1023B0008091740182602DC001302DE5120709F46F
:1023C00075C008F45DC002301D4509F074C060E0BE
:1023D0006EC080917301816003C080917301806140
:1023E0008093730168C08091730111C08091740162
:1023F0008260809374015FC0809173018062F0CF2E
:10240000809173018064ECCF809173018860846057
:10241000E7CF8160EECF809173018E7FE1CF809115
:1024200073018D7FDDCF80917301877FD9CF80913C
:10243000740118C0809174018D7FDBCF809173018E
:102440008F7ECECF809173018F7DCACF8091730133
:102450008F7BC6CF80917301877F8B7FC1CF8091A7
:1024600074018D7F8E7FC5CF8091730182FB2227FF
:1024700020F991E0922790FB82F990FB83F9B0CF8D
:1024800080917401982F909591708E7F892B90FB8D
:1024900081F9AFCF0E94491D8091730187FB2227EC
:1024A00020F991E0922790FB87F99ACF61E08EE0C6
:1024B00090E00E947329609173011091740184E08F
:1024C00090E00E947329612F81E290E00E947329BD
:1024D0000E94491D8ACE033F3CE5130751F198F451
:1024E000083D9CE51907F9F0093DECE51E0799F157
:1024F000073DFCE51F0709F0C0CE06E221EE41EEE4
:1025000067ED7CE52DC0053F2CE51207F1F0B8F032
:10251000063F8CE5180709F0B0CE07E225EE46EE3F
:1025200066EF7CE51DC007E225EE45EE68ED7CE533
:1025300017C006E221EE40EE63EF7CE511C007E232
:1025400025EE44EE64EF7CE50BC006E221EE42EEA0
:1025500065EF7CE505C008E221E045EE69ED7CE52C
:10256000C7010E94162241CE06313CE5130711F542
:1025700080911C028A7A91E009F490E090939E0188
:10258000882311F065E301C069E285EC91E00E94C7
:10259000F8250DC006311C4529F580919E01882340
:1025A00009F4DCC265E385EC91E00E94EB250E9412
:1025B0008C261BCE01159CE5190731F00E3D1C45FC
:1025C00089F40E94232611CE0E94491DFFEF04E3E7
:1025D0001CE0F15000401040E1F700C000000E94F4
:1025E000312503CEF70100811181882349F0C8010C
:1025F0000E94B926D82E682FC8010E94332704C034
:10260000C8010E940627D82EB8018D2D0E944120B6
:102610008C01982EF701A580A2949FE0A922D28078
:10262000D11010921B0280911902877099F0DD2061
:1026300089F0812F807F803421F080E2800F883004
:1026400048F082E00E948E27809119028770CC2486
:10265000C3948111C12CB12EB2948FE0B8228B2D7E
:1026600090E08C30910508F040C2FC01E15AFF4F28
:102670000C94CF29812F807F1F70882311F0129531
:10268000107FDD20B9F0112309F41AC280E2800F17
:10269000883010F0911006C080911C02182B109306
:1026A0001C0205C080911B02182B10931B020E9474
:1026B0008C2606C2802F0E94691D112309F415C2C1
:1026C000005E1095083010F0911006C080911C0239
:1026D000182310931C0205C080911B02182310932D
:1026E0001B020E948C2601C2812F807F1F708032C6
:1026F00011F01295107F992021F0F1E09F16E1F082
:102700002AC0DD2081F080911D02AA2051F001E055
:10271000A01207C0182B181709F4E7C110931D0267
:10272000E4C1812B10C0AA2021F021E0A21609F4F7
:10273000DCC10E94862627C0DD2041F035E03A1535
:1027400008F4D3C1812F0E945F1DCFC184E08A1598
:1027500008F4CBC118C0DD2049F0AA2099F3F70195
:10276000858180FFADC18F708583ECCFAA2059F0A1
:10277000093309F0B7C1FFEF17EE23E0F150104025
:102780002040E1F7ADC1812F0E94541DAEC1812FC1
:1027900086958695837019F0813059F0A6C1DD20A9
:1027A00019F0C801937002C080E090E00E947C1F85
:1027B000A2C1DD2019F0C801937002C080E090E052
:1027C0000E94661F98C1802FDD2019F00E94C92445
:1027D00002C00E9402240E94A4258DC1812F837013
:1027E00009F069C0D11085C1902F92959695977088
:1027F000990F990F802F8F70882E912CA12CB12CBE
:10280000092E04C0880C991CAA1CBB1C0A94D2F780
:1028100004FF12C04FE050E060E070E004C0440FDD
:10282000551F661F771F9A95D2F7DB01CA01809565
:102830009095A095B09503C080E090E0DC011695DE
:102840001695412F4370423019F1C8F400911E02D1
:1028500010911F022091200230912102413059F045
:1028600088299929AA29BB29BC01CD01602371239C
:10287000822393230AC0802A912AA22AB32ABC0168
:10288000CD01682979298A299B290E94C82731C14D
:1028900088299929AA29BB2900911E0210911F029B
:1028A0002091200230912102BC01CD0160277127C7
:1028B00082279327EACFDD2019F0812F817001C094
:1028C0008695882309F415C1902F92959695977057
:1028D000990F990F802F8F70882E912CA12CB12CDD
:1028E000092E04C0880C991CAA1CBB1C0A94D2F7A0
:1028F00004FF12C04FE050E060E070E004C0440FFD
:10290000551F661F771F9A95D2F7DB01CA01809584
:102910009095A095B09503C080E090E0DC011695FD
:102920001695412F43704230D9F068F50091B601F9
:102930001091B7012091B8013091B901413059F09F
:1029400088299929AA29BB29BC01CD0160237123BB
:10295000822393231EC0802A912AA22AB32A13C05D
:1029600088299929AA29BB290091B6011091B7019C
:102970002091B8013091B901BC01CD0160277127C8
:102980008227932706C0BC01CD01682979298A29AD
:102990009B290E945F27ADC01F70DD2039F0812F79
:1029A0000E94A727802F0E945F1DA3C0802F0E9436
:1029B000541D812F0E9469279CC0802F32EF9316EF
:1029C00009F440C0391538F090EF991661F0E1EF45
:1029D0009E1699F170C0F3EF9F16D9F124EF92166D
:1029E00009F44EC068C0DD2019F134E03A1508F44E
:1029F0007CC01F7181E090E0A0E0B0E0AC01BD01BF
:102A000004C0440F551F661F771F1A95D2F7809197
:102A1000B6019091B701A091B801B091B9018A01B6
:102A20009B01082719272A273B27C901B80125C080
:102A300025E02A1508F459C0DCCFDD2029F0812FCC
:102A40008F712CC0DD20D9F3812F8F710E946927EF
:102A50004CC0DD2079F01F7181E090E0A0E0B0E093
:102A6000BC01CD0104C0660F771F881F991F1A95FE
:102A7000D2F703C060E070E0CB010E945F2735C051
:102A8000DD2079F01F71812F0E94A72738E0139F66
:102A9000C0011124836080931902812F0E94A7270F
:102AA00024C081E00E948E2781E08A15F0F482E044
:102AB0000E948E271AC0DD2039F0AA2009F4BFCF6A
:102AC000802F0E94D01D11C0AA2009F4BDCF8933E8
:102AD00049F49FEFE7EEF3E09150E040F040E1F77A
:102AE00000C00000802F0E94691D88EF8B0D84308C
:102AF00010F40E94A01FCC2099F18091190280FD52
:102B00002FC0F70112828595859585950E94A7278C
:102B1000C7010E94BF0F8091190285958595859503
:102B200029960FB6F894DEBF0FBECDBFDF91CF91CF
:102B30001F910F91FF90EF90DF90CF90BF90AF90DB
:102B40009F908F907F906F905F900C9469270131D8
:102B50009FE5190709F079CB82E043CB69E223CDE9
:102B600029960FB6F894DEBF0FBECDBFDF91CF918F
:102B70001F910F91FF90EF90DF90CF90BF90AF909B
:102B80009F908F907F906F905F9008950F931F9309
:102B90008091B6019091B701A091B801B091B901AF
:102BA0008C019D010670112722273327BC01CD011E
:102BB000063011052105310511F4686001C0677FF9
:102BC0001F910F910C945F271F93CF93DF93CDB785
:102BD000DEB7AA970FB6F894DEBF0FBECDBFEDEA01
:102BE000F1E08091F100819341E0E53BF407C9F702
:102BF0008091AE01833009F460C030F4813071F00F
:102C0000823009F49AC0B1C08A3009F486C08B3092
:102C100009F46BC0893009F0A8C020C08091AD01D3
:102C2000813A09F0A2C08091E800877F8093E80094
:102C30008091B1019091B201892B21F468E082EA80
:102C400091E003C060E080E090E070E00E943028F6
:102C50008091E8008B778093E80087C08091AD0178
:102C6000813209F082C08091B1019091B201009748
:102C700019F0029709F079C08091E800877F80936E
:102C8000E8008091E80082FD05C08091B5018111C6
:102C9000F8CF6BC08091F2009091F300029729F475
:102CA0008091F1008B7F813021F48091F10080933D
:102CB000A1018091E8008B7754C08091AD01813AE9
:102CC00009F053C08091B1019091B201892B09F0B4
:102CD0004CC08091E800877F8093E8008091E800F5
:102CE00080FFFCCF8091100137C08091AD0181320F
:102CF000E1F58091B1019091B201892BB1F58091FC
:102D0000E800877F8093E8000E94DC278091AF0174
:102D1000809310010E94491D28C08091AD0181322D
:102D200021F58091E800877F8093E8000E94DC27EE
:102D30008091B0018093A00118C08091AD01813ACB
:102D4000A1F48091E800877F8093E8008091E800FB
:102D500080FFFCCF8091A0018093F1008091E8007A
:102D60008E778093E8000E94DC278091E80083FF43
:102D7000E6C18091AD019091AE01492F50E04A30FB
:102D8000510508F0DCC1FA01E559FF4F0C94CF2939
:102D9000803821F0823809F0D2C108C08091AA01A0
:102DA0009091AB01992389F082600FC08091B101AD
:102DB0008F70873008F0C3C18093E9008091EB00E9
:102DC00085FB882780F91092E9009091E800977FB1
:102DD0009093E8008093F1001092F10079C1282FC0
:102DE0002D7F09F0ACC1882319F0823061F0A7C1B2
:102DF0008091AF01813009F0A2C1933009F080E0E9
:102E00008093AB012EC08091AF0181112AC08091C7
:102E1000B1018F702FEF280F263008F090C18093FA
:102E2000E9002091EB0020FF1CC0933021F4809139
:102E3000EB00806214C09091EB0090619093EB00E6
:102E400021E030E0A90102C0440F551F8A95E2F746
:102E50004093EA001092EA008091EB008860809332
:102E6000EB001092E9008091E800877F8093E800F2
:102E70000E94DC2764C1811162C11091AF011F77EC
:102E80008091E3008078812B8093E3008091E800BB
:102E9000877F8093E8000E94DC278091E80080FF14
:102EA000FCCF8091E30080688093E300111102C0A1
:102EB00082E001C083E08093B50141C18058823037
:102EC00008F03DC12091AF013091B0012C3D53E09D
:102ED000350779F583E08A838AE289834FB7F894CE
:102EE000DE01139620E03EE051E2E32FF0E0509344
:102EF0005700E49120FF03C0E295EF703F5FEF7051
:102F00008E2F90E0EA3010F0C79601C0C0968D93E6
:102F10009D932F5F243149F74FBF8091E800877F51
:102F20008093E8006AE270E0CE0101960E943028AA
:102F3000BDC08091B1019091B201432F552743301C
:102F40005105B1F068F44130510509F407C1423030
:102F5000510509F0F4C08BE590E0E7E8F2E157C0D5
:102F60004132510589F14232510509F43CC0E7C0B4
:102F7000C901992781309105B9F070F0823091052F
:102F8000D9F0039709F0DBC0E4EFF2E1E4918E2F72
:102F900090E0E4EFF2E138C0EAE1F3E1E4918E2F52
:102FA00090E0EAE1F3E130C0E2E1F3E1E4918E2F59
:102FB00090E0E2E1F3E128C0EAEFF2E1E4918E2F44
:102FC00090E0EAEFF2E120C08330910508F0B7C04D
:102FD000880F991FFC01EC5CFE4F0190F081E02D01
:102FE00089E090E014C08330910508F0A8C0FC018E
:102FF000EE0FFF1FE25DFE4F0190F081E02DDC013E
:10300000A55DBE4F8C9190E0009709F498C0209187
:10301000E800277F2093E8002091B3013091B401AC
:103020002817390708F4C90140E0009771F1209191
:10303000B5012223D9F12530C9F12091E80023FD03
:1030400035C02091E80022FD2DC02091E80020FF2E
:10305000ECCF2091F2003091F300009759F0283026
:10306000310540F444914093F100319601972F5F70
:103070003F4FF3CF41E02830310509F040E0209187
:10308000E8002E772093E800D0CF4111D0CF0AC0BE
:103090008091B501882351F0853041F08091E8009E
:1030A00083FD04C08091E80082FFF2CF8091E800A8
:1030B0008B778093E80043C0803809F040C080914E
:1030C000E800877F8093E8008091AC018093F10055
:1030D0008091E8008E77CACE811131C08091AF0116
:1030E0009091B0019927029754F58091E800877F6D
:1030F0008093E8001091AF011093AC010E94DC278F
:10310000111106C08091E30087FD02C081E001C07B
:1031100084E08093B50142E061EC81E00E94FB27EE
:1031200042E261EC84E00E94FB2742E261EC82E033
:103130000E94FB2742E260EC83E00E94FB27809123
:10314000E80083FF10C08091E800877F8093E8004B
:103150008091EB0080628093EB0005C082E190E0FB
:10316000E2EEF2E154CFAA960FB6F894DEBF0FBE9E
:10317000CDBFDF91CF911F9108951F920F920FB68F
:103180000F9211240BB60F922F933F934F935F939F
:103190006F937F938F939F93AF93BF93CF93DF935F
:1031A000EF93FF93C091E900CF708091EC00D82F8E
:1031B000D17080FDD0E81092E9008091F000877F07
:1031C0008093F00078940E94E4151092E9008091B9
:1031D000F00088608093F000CD2BCF70C093E900A1
:1031E000FF91EF91DF91CF91BF91AF919F918F911F
:1031F0007F916F915F914F913F912F910F900BBEF7
:103200000F900FBE0F901F901895E8EDF0E08081B1
:103210008C7F80831092E2001092DA001092E1001D
:10322000A0EEB0E08C9181608C9380818F77808359
:1032300019BCA7EDB0E08C918E7F8C9380818F7E3E
:10324000808310929F010895CF92DF92EF92FF92B8
:103250000F931F93CF93DF93C8EDD0E088818F7ECB
:103260008883E7EDF0E080818160808381E0809356
:103270009F0188818C7F888302EE10E0D8011C9228
:103280001092DA0081EEC82ED12CD6011C928881D2
:103290008F77888388818068888388818F7D888301
:1032A00080818068808319BC1092B5011092AC01B6
:1032B0001092AB011092AA0190EEE92EF12CF701C9
:1032C00080818B7F808388818160888342E060E099
:1032D00080E00E94FB27D6018C918E7F8C93F801B1
:1032E000808181608083808188608083D7018C9118
:1032F0008E7F8C93888180618883DF91CF911F912D
:103300000F91FF90EF90DF90CF9008951F920F9252
:103310000FB60F9211240BB60F922F933F934F933A
:103320005F936F937F938F939F93AF93BF93EF932D
:10333000FF938091E10082FF09C08091E20082FF4B
:1033400005C08091E1008B7F8093E1008091DA00DD
:1033500080FF2AC08091D80080FF26C08091DA00CB
:103360008E7F8093DA008091D90080FF18C084E1BD
:1033700089BD86E189BD09B400FEFDCF81E080935F
:10338000B50180919F0181110FC00E9405190E9413
:1033900024198091E20084608093E20005C019BC8A
:1033A0001092B50110929F018091E10080FF17C03B
:1033B0008091E20080FF13C08091E2008E7F8093B5
:1033C000E2008091E20080618093E2008091D80069
:1033D00080628093D80019BC85E08093B50180910C
:1033E000E10084FF32C08091E20084FF2EC084E1BE
:1033F00089BD86E189BD09B400FEFDCF8091D8006A
:103400008F7D8093D8008091E1008F7E8093E100D2
:103410008091E2008F7E8093E2008091E2008160E3
:103420008093E2008091AC01882311F084E007C012
:103430008091E30087FD02C081E001C083E08093BA
:10344000B5010E94491D0E94A01F8091E10083FFE9
:1034500027C08091E20083FF23C08091E100877F35
:103460008093E10082E08093B5011092AC018091DD
:10347000E1008E7F8093E1008091E2008E7F809357
:10348000E2008091E20080618093E20042E060E02F
:1034900080E00E94FB278091F00088608093F0001C
:1034A000FF91EF91BF91AF919F918F917F916F911C
:1034B0005F914F913F912F910F900BBE0F900FBED8
:1034C0000F901F9018952091E4003091E50095E64B
:1034D0004091EC00842F817040FF23C08091E80070
:1034E00080FD1DC08091B501882399F0853099F049
:1034F0008091EB0085FD11C04091E4005091E50002
:103500002417350729F3915011F09A01E1CF84E097
:10351000089582E0089583E0089581E0089580E0B1
:1035200008954091E80042FFDDCF0895EF92FF92A9
:103530000F931F93CF93DF937C018B010E94631A3B
:10354000811119C0E70101151105A1F08091E80072
:1035500085FD0AC08091E8008E778093E8000E9484
:10356000631A882381F307C089918093F100015089
:103570001109E9CF80E0DF91CF911F910F91FF906A
:10358000EF900895CF932091B5012430F9F4C091C4
:10359000E900CF703091EC00232F217030FD20E83E
:1035A000C22B22E02093E9002091E80020FF0BC00D
:1035B00040E050E060E270E00E94961A8091E800DE
:1035C0008E778093E800CF70C093E900CF91089583
:1035D0000F931F93CF93DF938091D20182958F70C9
:1035E00009F05DC08091CF01882309F458C0809113
:1035F00004021091D3016091CD017091CE01C09170
:10360000D001D091D10191E06F3F09F090E0292FD6
:1036100006E0811709F443C0209721F07F3F21F095
:1036200030E003C031E001C0322F90E030FD34C003
:10363000089FF001099FF00D1124DF01AC52BE4F2D
:1036400011963C911197371327C03C91361324C033
:1036500012963C91129731111FC013964D915C91B7
:1036600014974C1B5D0B483C5105B0F48091D2017E
:103670008F7080618093D201E752FE4F80818F70FE
:10368000806180838DEC91E00E94BF0FDF91CF912C
:103690001F910F910C94D22701968770BACFDF91BA
:1036A000CF911F910F9108950E94FB26292F2F7013
:1036B000E92FE295EF704E2F50E0FA013297EE308D
:1036C000F105B8F4EB58FF4F0C94CF29803F99F0E7
:1036D00018F4883E70F40FC0843F59F40CC0883E43
:1036E00050F0813F31F407C0822F869586958695EC
:1036F000089580E0089581E008959F92AF92BF926F
:10370000CF92DF92EF92FF920F931F93CF93DF93AD
:10371000CDB7DEB761970FB6F894DEBF0FBECDBF51
:103720008C0185E0F801DE011D9601900D928A95CD
:10373000E1F7F80190818181E2803091CD016091C3
:10374000CE014091D0015091D1014115510531F088
:103750006F3F31F421E03F3F19F403C021E001C085
:1037600020E0F22FF1709F2E20FD23C1F801C380CD
:10377000D4802DECA22E21E0B22EF090CF01F601E4
:10378000E41BF50BFF2009F4CEC02091D201E83CE8
:10379000F10508F099C0422F407F09F051C068132D
:1037A00011C039130FC0FE2CE1100CC02F70206126
:1037B0002093D201C5010E94BF0F8091D201F80170
:1037C000858337C1CD2831F08F3F31F421E09F3F11
:1037D00019F403C021E001C020E020FD03C021E076
:1037E0002E2502C020E030E0F22FF170FF2E20FFE6
:1037F0001DC0209104024091D30156E0241709F422
:10380000F6C030E0529FF001539FF00D1124EC52AE
:10381000FE4F6181861306C06081961303C06281EA
:10382000E61204C02F5F3F4F2770E8CFFE2CEE203A
:1038300009F4FFC08091D20181608093D20150C011
:10384000681307C0391305C0E11003C0F8012583D0
:103850008DC09D878E878D859E850E94541B8823F1
:1038600069F1EE2059F12091D201822F82958F705B
:1038700090E0029774F08091CD019091CE019887ED
:103880008F831986DB86CA862C87CE0107960E9415
:10389000BF0F86E0F801ADECB1E001900D928A9582
:1038A000E1F70E94E81A0DC06817E1F09D878E8746
:1038B0008D859E850E94541B81111EC0C8010E94E7
:1038C000BF0FFF24F394B5C0422F407F69F78DEC02
:1038D00091E00E94BF0F86E0F50111928A95E9F709
:1038E000F12CA7C03913E2CFE110E0CFF801258316
:1038F000C8010E94BF0F57C0EE2001F32091D201F2
:10390000822F82958F7090E002971CF28091CD01FA
:103910009091CE019A8389831B82DD82CC822E8393
:10392000CE010196B4CFE83CF105E8F5FE2CEE207F
:1039300029F2681327C0391325C02091D20120FD38
:1039400018C0822F82958F70482F50E04115510585
:1039500081F0F80125834F30510541F08F5F982F9A
:103960009295907F822F8F70892B8583C8010E944A
:10397000BF0F86E0F801ADECB1E001900D928A95A1
:10398000E1F757C09D878E878D859E850E94541BC9
:1039900081117FCF8091D20181608093D201C801D3
:1039A0000E94BF0F46C086E0F50111928A95E9F7A3
:1039B00040C0EE2009F482CF9D878E878D859E853D
:1039C0000E94541BF82E882309F478CF86E0F80172
:1039D000ADECB1E001900D928A95E1F78091CD01B7
:1039E0009091CE010E94FB260E94E81A22C09D877A
:1039F0008E878D859E850E94FB26292F22952F700C
:103A0000223028F49F7039F0811105C00BC024309A
:103A100028F49F7049F4805E883020F0C8010E942D
:103A2000BF0F9F2CF92C05C0F8019581907F99F765
:103A3000F9CF8F2D61960FB6F894DEBF0FBECDBFC4
:103A4000DF91CF911F910F91FF90EF90DF90CF907A
:103A5000BF90AF909F90089510921B0210921A028F
:103A60000E948C26EEE7F1E086E0DF011D928A9548
:103A7000E9F710927B0110927801109222020E94C5
:103A8000A42580E090E00E947C1F80E090E00C94F0
:103A9000661F10921C0286E0E7ECF1E0DF011D9248
:103AA0008A95E9F70C942C1D882341F0809590911C
:103AB0001C02892380931C020C948C260895882371
:103AC00039F090911C02892B80931C020C948C2657
:103AD0000895882309F463C0823869F40E94A01F06
:103AE00081FF5DC069E385EC91E00E94F8250E94AA
:103AF0008C2669E30EC0833891F40E94A01F80FFDA
:103B00004EC063E585EC91E00E94F8250E948C266A
:103B100063E585EC91E00E94EB250C948C268438BB
:103B200069F40E94A01F82FF3AC067E485EC91E02F
:103B30000E94F8250E948C2667E4EBCF9CEF980F3B
:103B4000913A10F4682FE5CF90E2980F983088F4FE
:103B5000877021E030E0A90102C0440F551F8A950B
:103B6000E2F7CA01809590911C02892380931C0280
:103B7000D4CF9BE5980F933020F480E090E00C9434
:103B80007C1F98E5980F973120F480E090E00C942A
:103B9000661F803F20F00E9402240C94A425089503
:103BA000CF93882309F49EC0C82F8238B1F40E94B5
:103BB000A01F81FD97C069E385EC91E00E94F82584
:103BC0000E948C262FEF81EE94E02150804090409F
:103BD000E1F700C0000069E317C08338E1F40E94F8
:103BE000A01F80FD7FC063E585EC91E00E94F82571
:103BF0000E948C262FEF81EE94E02150804090406F
:103C0000E1F700C0000063E585EC91E00E94EB2540
:103C1000CF910C948C268438B1F40E94A01F82FDB1
:103C200061C067E485EC91E00E94F8250E948C2633
:103C30002FEF81EE94E0215080409040E1F700C0EA
:103C4000000067E4E1CF8CEF8C0F813A80F4E7EC61
:103C5000F1E08DEC91E02191C217E1F18E179F0701
:103C6000D1F76C2F85EC91E00E94F825D1CF80E24E
:103C70008C0F883068F4C77081E090E001C0880F35
:103C8000CA95EAF790911C02892B80931C02C0CF41
:103C9000EBE5EC0FE33040F4F0E0E65CFE4F8081B2
:103CA00090E0CF910C947C1FE8E5EC0FE73150F4E5
:103CB000F0E0EE0FFF1FE35CFE4F80819181CF911A
:103CC0000C94661FC03F70F08C2F0E94C924CF91C6
:103CD0000C94A4256C2F85EC91E00E94EB250E94AA
:103CE0008C26BFCFCF910895CF93C82F0E94D01DAF
:103CF000C93349F42FEF87EE93E021508040904084
:103D0000E1F700C000008C2FCF910C94691D9091B9
:103D1000730192FF0DC0282F2871283019F4877F76
:103D2000846006C0282F2471243011F48B7F8860B2
:103D300093FF0DC0282F2871283119F4877E8461E4
:103D400006C0282F2471243111F48B7E88612091C4
:103D5000740120FF0DC0382F3871383019F4877F77
:103D6000816006C0382F3171313011F48E7F886048
:103D700021FF0DC0282F2871283119F4877E816119
:103D800006C0282F2171213111F48E7E886194FDA7
:103D9000877E08951F93CF93DF93CDB7DEB76797E4
:103DA0000FB6F894DEBF0FBECDBF4B8B5C8B6D8B17
:103DB0007E8B8F8B86E09E01235F3F4FD901E82FDA
:103DC0001D92EA95E9F795E0FE017396D9010190FD
:103DD0000D929A95E1F7F901DE01179601900D9287
:103DE0008A95E1F7CE0107960E947D1B81113EC0A6
:103DF00086E0FE013796DE01119601900D928A95BC
:103E0000E1F7FF81E8856A857B856115710531F0F1
:103E1000EF3F31F481E0FF3F19F403C081E001C0BE
:103E200080E080FD23C02091D30130E0C9010196DC
:103E3000877099274091040250E08417950779F123
:103E4000F983EA837D836C8396E0929FD001939FF0
:103E5000B00D1124AC52BE4FFE01319601900D926F
:103E60009A95E1F78093D3010E94D22716E08091C2
:103E700004029091D3018917F9F0189FC001112411
:103E80008C529E4F0E947D1B8823B1F080910402CA
:103E900090E001968770992780930402E8CF0E94F2
:103EA000491D1092D30110920402EDECF1E086E07E
:103EB000DF011D928A95E9F767960FB6F894DEBF89
:103EC0000FBECDBFDF91CF911F9108952091C30107
:103ED0003091C4012817390771F09093C401809381
:103EE000C301E0917501F0917601309721F00084D3
:103EF000F185E02D099408952091C1013091C2010E
:103F00002817390771F09093C2018093C101E091A5
:103F10007501F0917601309721F00680F781E02D50
:103F200009940895E0917501F0917601309739F088
:103F300022E0DC012C930480F581E02D09940895A2
:103F4000E0917501F0917601309721F00190F081B8
:103F5000E02D099480E00895CF93DF93CEEED0E07A
:103F600060E0CE010E9473292196C11588E0D80730
:103F7000B9F7DF91CF910895CF92DF92EF92FF9240
:103F80000F931F93CF93DF93C0E0D0E08E010E5CC0
:103F90001F4F6E018AE0C80ED11CFE01E25EFC4E8E
:103FA000E590F4906F2DCE0186960E9473296E2DB8
:103FB000CE0187960E9473292296CC15DD0569F7FC
:103FC0000C171D0731F7E801083C1105F9F6DF91E0
:103FD000CF911F910F91FF90EF90DF90CF900895B8
:103FE0000F931F93CF93DF93C42FD0E0CC0FDD1F2F
:103FF0002AE0629FC00DD11D112432E3839FC00DC2
:10400000D11D1124CE0186960E946529082F10E04B
:10401000102F0027CE0187960E9465299801282B32
:10402000C901DF91CF911F910F910895462F8430E0
:1040300038F4753028F4653018F4672F0C94F01FAD
:1040400080E090E00895CF93C82F811102C06FEFF8
:1040500001C060E282E290E00E947329C11102C0B7
:104060006FEF01C061E183E290E00E947329C1110A
:1040700002C06FEF01C067E284E290E0CF910C9440
:104080007329CF93DF930E941620EC0182389105AB
:1040900059F1A0F48133910509F473C040F48932D9
:1040A000910509F467C08A9709F472C084C085330A
:1040B000910509F458C0C997B9F07DC0833E9105B8
:1040C00071F138F4803E9105B1F0823E910511F115
:1040D00072C0863E9105B9F1873E9105C9F1843ED3
:1040E000910509F068C024C08091730180FD5DC016
:1040F00081FD5BC060C08091730180FD50C08091E4
:10410000740180FF49C18091730184FD43C1C3EEF6
:10411000D0E042C18091730182FF3EC1F4CF809113
:10412000730182FD3FC08091740180FD3EC0EBCFE2
:104130008091740181FF30C18091730184FD2AC197
:10414000C7EED0E029C18091730183FF25C1F4CF70
:104150008091730183FD2CC08091740181FFECCFAD
:10416000C4EED0E019C18091730185FF15C1C9E289
:10417000D0E012C18091730185FF0EC1C5E3D0E08C
:104180000BC18091730186FF07C1CAE2D0E004C170
:104190008091730186FF00C1C1E3D0E0FDC0C9E397
:1041A000D0E0FAC0C2EED0E0F7C0C0EED0E0F4C07C
:1041B000C6EED0E0F1C0C11581E5D80708F066C0B1
:1041C000C11520E5D207E0F0CE0174E09695879501
:1041D0007A95E1F783709C2F937021E030E002C064
:1041E000220F331F9A95E2F73C68382BCF70C695A3
:1041F000C69540E2C49FE0011124C22BD32BCCC052
:10420000C83ED10560F5C03ED10508F0C5C0C83A2A
:10421000D105B0F4C53AD10540F0C55AD0E0C65C2E
:10422000DE4FC881D0E0D064B7C0C130D10509F4F9
:10423000B3C008F4AFC0C430D10508F4ABC0ACC003
:10424000CF3BD10508F0A6C0C85AD0E0CC0FDD1F87
:10425000C35CDE4F0990D881C02DD4649DC0C115C8
:1042600040E2D40758F4C11581E0D80708F094C0A3
:10427000C03FD10508F48EC0D0658EC0C11520E4C2
:10428000D20708F487C0DF70D06A86C0C11545E543
:10429000D40708F042C0C11584E5D80728F0DC2F08
:1042A000CC27C46FD06A78C0C11523E5D207B0F01F
:1042B000CE018370992721E030E002C0220F331F26
:1042C0008A95E2F78C2F8695869540E2849FC001FF
:1042D0001124E901C82BD92BDA685EC0C11542E56B
:1042E000D40728F4DC2FCC27C16FD06A55C0CE018B
:1042F0008370992721E030E002C0220F331F8A9596
:10430000E2F78C2F8695869540E2849FC0011124A8
:10431000E901C82BD92BDC683FC0C11589E5D80756
:10432000B8F4C11528E5D20728F0DC2FCC27C06FE0
:10433000D06A32C0C11546E5D40760F58C2F0E94C3
:10434000871E8F71C82FD0E0DC2FCC27D06224C00D
:10435000C1158AE5D80780F48C2F8F700E94871EC4
:1043600094E0D695C7959A95E1F7CF70D0E0DC2F11
:10437000CC27D069C82B10C0CE0190568115904231
:1043800048F48D2F8F710E94871EDD27D0628F71B8
:10439000D82B02C0C0E0D0E0CE01DF91CF910895CC
:1043A00022E030E043E060E080E30E94942895E062
:1043B0009A95F1F700000895CF93C82F0E94D0215D
:1043C0008C2F8F770E940D290E942529C82F85E008
:1043D0008A95F1F7000085E68A95F1F700000E94C2
:1043E0003D298C2FCF910895CF93DF93C82FD62FDF
:1043F000803511F0109284010E94D0218C2F8068AA
:104400000E940D298D2F0E940D29EC018AE68A95C4
:10441000F1F700C08FE891E00197F1F700C00000CC
:104420000E943D29CE01DF91CF9108950F931F93F4
:10443000CF93DF93C42FD22FFC0182818823C9F050
:1044400040939D010E9498259093C0018093BF01E5
:1044500080E28C0F883008F057C0C77081E001C03F
:10446000880FCA95EAF7DF91CF911F910F910C94B5
:104470005F1D80919D01481330C08091BF019091D4
:10448000C0010E948925883C910538F510E21D0F76
:10449000CD17B9F080E28C0F883040F4C77081E00E
:1044A00001C0880FCA95EAF70E94541D183028F5FC
:1044B00081E09D2F977001C0880F9A95EAF70E94BE
:1044C0005F1D802F0E94741E1830F0F4D77081E0B9
:1044D00001C0880FDA95EAF70AC080E28C0F8830B5
:1044E00098F4C77081E001C0880FCA95EAF7DF91A0
:1044F000CF911F910F910C94541D802FDF91CF917C
:104500001F910F910C94741EDF91CF911F910F9109
:1045100008958F929F92AF92BF92CF92DF92EF92C7
:10452000FF920F931F93CF93DF93CEE6D1E062E12A
:1045300071E0FE0110E0EE24E394F12C80E090E0C5
:1045400050E09B01280F391FD9014C914F3FD1F00A
:10455000242F22952F7030E0D90190962C9130E0D5
:104560004F7002C0359527954A95E2F720FD07C0A8
:104570009701082E01C0220F0A94EAF702C020E03A
:1045800030E0522B019685309105D9F68081851750
:1045900019F0508381E001C080E0182B31966B5FE9
:1045A0007F4FB1E06B327B0749F60E949825AC0142
:1045B0006091BB017091BC019093BC018093BB01E1
:1045C0009091BA01292F30E0261B370BC901840FC7
:1045D000951F6BEF70E00E94A729082F8093BA0106
:1045E000D090BE01DD20B1F11092BE01E0916C01CE
:1045F000F0916D01DF015996C12C2BEFB22E3BEFEC
:10460000E32EF12C9F012B5F3F4F40814B3FC9F0C0
:10461000642F70E0041720F0AC01461B570B05C057
:10462000A701461B570B480F591F052E000C660BA0
:10463000770B453051056105710510F0B08201C05E
:10464000CD2C3196E217F30701F7AE17BF07D1F66D
:10465000C092BE01111104C08091BD018823E1F117
:104660001092BD0180916C0190916D01A090BE01EE
:10467000A4E9B1E07C0129E1E20EF11CB12CCC24CB
:10468000C394D12C39912C913227FC0140E050E0A9
:10469000B601042E01C0660F0A94EAF7932E962203
:1046A00061F090807BEF872E981005C0008326274D
:1046B000AA24A39402C0BB24B39431964F5F5F4FEA
:1046C0004530510529F705962D93E816F906D1F6E0
:1046D000A092BE01B092BD01812FDF91CF911F91B9
:1046E0000F91FF90EF90DF90CF90BF90AF909F9091
:1046F0008F9008958091A1010895CF93DF9300D00A
:104700001F92CDB7DEB79091B501943011F5898332
:104710007B836A839093E9008FEF9091E80081504A
:1047200095FD06C095ED9A95F1F700008111F5CF42
:104730008091E80085FF0DC040E050E063E070E04C
:10474000CE0101960E94961A8091E8008E778093A0
:10475000E8000F900F900F90DF91CF910895BC016A
:1047600084E00C947D23BC0183E00C947D2324E041
:104770002093E9002FEF3091E800215035FD06C06D
:1047800035ED3A95F1F700002111F5CF2091E800C1
:1047900025FF0BC040E050E066E070E00E94961AF2
:1047A0008091E8008E778093E8000895CF93DF939F
:1047B00021E02093E9002FEF3091E800215035FDF2
:1047C00006C035ED3A95F1F700002111F5CF2091A3
:1047D000E80025FF14C0EC0140E050E068E070E024
:1047E0000E94961A8091E8008E778093E80088E016
:1047F000FE01A2EAB1E001900D928A95E1F7DF9106
:10480000CF910895803F39F48091810187FF6AC07C
:104810001092810167C0813F29F4809181011816AF
:10482000BCF360C090918001823F29F497FF5AC089
:104830001092800157C0833F19F41916CCF352C06F
:1048400090918201893F31F419160CF04BC01092FF
:10485000820148C08A3F19F497FF44C0F8CF8B3FCC
:1048600039F48091830187FF3DC0109283013AC0E3
:104870008C3F29F4809183011816BCF333C0843F28
:1048800021F480917F018E7F17C0853F21F48091B4
:104890007F018D7F11C0863F21F480917F018B7F46
:1048A0000BC0873F21F480917F01877F05C0883F3F
:1048B00031F480917F018F7E80937F0113C08D3F03
:1048C00021F4809122028E7F0BC08E3F21F48091D3
:1048D00022028D7F05C08F3F29F4809122028B7FB9
:1048E0008093220280918001811106C08091810114
:1048F000811102C010927B0180918201811106C05A
:1049000080918301811102C01092780108958091F5
:10491000220280FD16C081FD16C082FD18C0809164
:104920007801882391F0883290F428E0829FC001BA
:10493000112468E270E00E94BB29862F672B29F0C2
:1049400007C082E0089584E0089581E0089588E03A
:1049500008958091220280FD14C081FD14C082FD63
:1049600016C080917B01882381F0843180F422E39A
:10497000829FC001112464E170E00E94BB29862F50
:1049800008958CE0089589E1089585E0089582E313
:104990000895803F21F40E94A924819504C0813F9D
:1049A00029F40E94A924809381010895823F21F473
:1049B0000E94A924819504C0833F29F40E94A92460
:1049C000809380010895893F19F40E94872405C0CF
:1049D0008A3F31F40E948724819580938201089553
:1049E0008B3F21F40E948724819504C08C3F29F4D9
:1049F0000E948724809383010895843F21F480914D
:104A00007F01816017C0853F21F480917F01826022
:104A100011C0863F21F480917F0184600BC0873FE5
:104A200021F480917F01886005C0883F31F4809136
:104A30007F01806180937F0108958D3F21F48091F3
:104A4000220281600BC08E3F21F48091220282609D
:104A500005C08F3F29F48091220284608093220256
:104A60000895F89481E08093E00080E28093D8007C
:104A7000E9ECF0E010828FE19EE40197F1F700C0CD
:104A800000001DBA109268001CBC10BE1FBA109224
:104A90007A0010926E0010926F00109270001092C7
:104AA000710010821092BC0011B814B817B81AB86F
:104AB0001DB810BA12B815B818B81BB81EB811BA7C
:104AC0000C9400FE089578941F920F920FB60F92E7
:104AD00011248F939F93AF93BF93809199019091ED
:104AE0009A01A0919B01B0919C010196A11DB11D5D
:104AF0008093990190939A01A0939B01B0939C019C
:104B0000BF91AF919F918F910F900FBE0F901F900B
:104B100018959C014FB7F8948091990190919A0152
:104B2000A0919B01B0919C014FBF821B930B0895F4
:104B30002FB7F8948091990190919A01A0919B01CF
:104B4000B0919C012FBF08950E949825209180016B
:104B5000211104C020918101222321F090937D0135
:104B600080937C0120918201211104C02091830156
:104B7000222321F090937A01809379018EE791E0CE
:104B80000C94921F1F920F920FB60F9211248F93C5
:104B90009F93AF93BF9380917701811113C0809150
:104BA000990190919A01A0919B01B0919C0141962D
:104BB000A11DB11D8093990190939A01A0939B012F
:104BC000B0939C01BF91AF919F918F910F900FBEB9
:104BD0000F901F9018959C012A5F3F4FFC01428166
:104BE000461301C01282019682179307B9F7089500
:104BF0009C01FC0132969FEF80E04191461789F0BD
:104C00009F3F19F4411101C0982F8F5F8630A9F79B
:104C10009F3F39F0F901E90FF11D97FDFA95628385
:104C200008950895CF9384E090E00E946529C82FED
:104C300081E290E00E9465292C2F30E0A901582BD9
:104C4000CA01CF9108956CEE7EEF80E090E00E9463
:104C5000912960E082E090E00E94732960E083E0A7
:104C600090E00E94732910921E0210921F0210926F
:104C700020021092210260E084E090E00E947329FB
:104C800060E081E290E00E94732960E085E090E0BE
:104C90000E94732960E086E090E00E9473296FEF24
:104CA00087E090E00E94732940E050E0BA0188E07C
:104CB00090E00E94852960E08DE090E00E947329D9
:104CC00040E050E0BA0188E190E00E94852960E070
:104CD00087E190E00E94732940E050E0BA018CE146
:104CE00090E00E94852960E080E290E00E947329B4
:104CF00040E050E0BA018FE090E00E94852940E05A
:104D000050E0BA0183E190E00C94852980911D0266
:104D1000811110921D02089590911C0280911B0236
:104D2000892B20911A02982F922B9093C501809184
:104D30001D02882389F0892B8093C501E7ECF1E0FF
:104D400097E080E0915029F021912223D9F38F5FE1
:104D5000F9CF81110E948626E0917501F0917601CC
:104D6000309731F00280F381E02D85EC91E00994D9
:104D70000895BF92CF92DF92EF92FF920F931F930D
:104D8000CF93DF938C01C090B601D090B701E09033
:104D9000B801F090B90180911E0290911F02A0917C
:104DA0002002B0912102C82AD92AEA2AFB2ACFE19F
:104DB000D0E0D701C6010C2E04C0B695A7959795F3
:104DC00087950A94D2F780FD04C0219790F7B12C03
:104DD00007C0BC2EB8018C2F0E9441200197A9F377
:104DE0008B2DDF91CF911F910F91FF90EF90DF906E
:104DF000CF90BF900895CF93DF93EC010E94B92626
:104E0000BE010E944120DF91CF91089524E0929F3E
:104E1000900D1124890F682F669566956695982FD9
:104E2000977085E0689FB001112440E050E080E079
:104E3000FB01E40FF51FEB5FFD4F208130E0092EF1
:104E400002C0369527950A94E2F721703327042E85
:104E500001C0220F0A94EAF7822B4F5F5F4F453063
:104E6000510531F7089524E0929F900D1124890F88
:104E7000E82FE695E695E695877051E001C0550F5D
:104E80008A95EAF785E0E89FF0011124EB5FFD4F7A
:104E900020E030E070E04081CB01022E02C0969508
:104EA00087950A94E2F7817081958427852384276A
:104EB00081932F5F3F4F2530310569F70895609347
:104EC000B6017093B7018093B8019093B9010C9427
:104ED0002C1D0F931F9341E050E060E070E004C090
:104EE000440F551F661F771F8A95D2F7409550953E
:104EF000609570958091B6019091B701A091B8012D
:104F0000B091B9018A019B01082319232A233B236D
:104F1000C901B8011F910F910C945F2720911902CC
:104F20008095822380931902982F977079F430E04E
:104F3000482F082E000C550B2417350739F085959E
:104F4000859585950E9469271092190208950F93FF
:104F50001F9341E050E060E070E004C0440F551F33
:104F6000661F771F8A95D2F78091B6019091B7019D
:104F7000A091B801B091B9018A019B01082B192BAE
:104F80002A2B3B2BC901B8011F910F910C945F276D
:104F900060931E0270931F0280932002909321025F
:104FA0000C942C1D809104029091D301891719F063
:104FB0008F5F8770FBCF08958091AD0187FF11C08F
:104FC0008091E80082FD05C08091B5018111F8CF84
:104FD00011C08091E8008B770BC08091B5018823C8
:104FE00049F08091E80080FFF8CF8091E8008E774B
:104FF0008093E8000895982F973068F59093E90022
:10500000981739F07091EC002091ED005091F0006C
:1050100003C0242F762F50E021FD02C09F5FECCF0C
:105020003091EB003E7F3093EB003091ED003D7FFF
:105030003093ED003091EB0031603093EB007093D2
:10504000EC002093ED005093F0002091EE0027FD3E
:10505000E5CF80E008958F708093E90081E00895A6
:105060002091B3013091B4012617370748F061153C
:10507000710539F42091E8002E772093E80001C0F3
:10508000B901FC0120E06115710569F18091B5015C
:105090008823E1F18530E1F18091E80083FD3AC099
:1050A0008091E80082FD2CC08091E80080FFEBCF6A
:1050B0008091F2009091F3006115710551F08830F4
:1050C000910538F421912093F10061507109019606
:1050D000F3CF21E0089709F020E08091E8008E7777
:1050E0008093E800D0CF2111D1CF0AC08091B501C3
:1050F000882361F0853061F08091E80083FD0AC06B
:105100008091E80082FFF2CF80E0089582E0089568
:1051100083E0089581E00895289A219A229A23989D
:105120002B9880E58CBD0895909111019F3F09F067
:1051300072C08F3F09F46FC0611103C01092240246
:1051400003C090E290932402423041F0433051F08A
:10515000413069F490912402946007C09091240238
:10516000986003C0909124029C609093240241E0D7
:1051700050E04217530718F4440F551FFACF90918F
:10518000240240315105F1F050F442305105B1F0A4
:1051900048305105E1F421E02093230213C040344C
:1051A000510591F04038510539F04032510579F4FC
:1051B00021E02093230208C0936007C091E0909300
:1051C000230205C0916001C09260909324022CB527
:1051D00090912402922B9CBD90912302992319F067
:1051E0009DB591609DBD80931101E82FE295EF7010
:1051F000F0E031A1282F2F7081E090E001C0880FEE
:105200002A95EAF7932F982B91A392A18095892351
:1052100082A381E0089580E00895CF93DF938EBD4F
:105220000E949825EC010DB407FC0AC00E94982545
:105230008C1B9D0B84369105B0F38EEF9FEF02C05F
:105240008EB590E0DF91CF910895CF93DF931EBC90
:105250000E949825EC010DB407FC0AC00E94982515
:105260008C1B9D0B84369105B0F38EEF9FEF02C02F
:105270008EB590E0DF91CF910895809111018F3F1D
:1052800019F1E82FE295EF70F0E031A1282F2F708F
:1052900081E090E001C0880F2A95EAF7932F982BC0
:1052A00091A392A1892B82A38FEF809311018DB5D9
:1052B0008E7F8DBD9CB580912402809589238CBD05
:1052C00010922402109223020895F999FECF92BD04
:1052D00081BDF89A992780B50895A8E1B0E042E031
:1052E00050E00C949929262FF999FECF92BD81BDEB
:1052F000F89A019700B4021639F01FBA20BD0FB614
:10530000F894FA9AF99A0FBE08950396272F0E94EF
:1053100074290E947329252F0E947429242F0C942C
:1053200074290196272F0E9474290C947329DC019B
:10533000CB01FC01F999FECF06C0F2BDE1BDF89AA0
:10534000319600B40D9241505040B8F70895AA1B11
:10535000BB1B51E107C0AA1FBB1FA617B70710F060
:10536000A61BB70B881F991F5A95A9F78095909592
:10537000BC01CD01089597FB072E16F4009407D0C9
:1053800077FD09D00E94A72907FC05D03EF490952F
:1053900081959F4F0895709561957F4F0895EE0F09
:1053A000FF1F0024001C0BBE0790F691E02D09940E
:1053B00069279627692778278727782708950F93E5
:1053C0001F93CF93DF938230910510F482E090E039
:1053D000E0912702F091280220E030E0A0E0B0E068
:1053E000309719F140815181028113814817590783
:1053F000C8F08417950769F4109731F012960C9352
:10540000129713961C9327C000932702109328022B
:1054100022C02115310519F04217530718F49A01DB
:10542000BD01EF01DF01F801DBCF21153105F9F0F6
:10543000281B390B2430310580F48A819B8161154A
:10544000710521F0FB019383828304C090932802AD
:1054500080932702FE01329644C0FE01E20FF31F43
:105460008193919322503109398328833AC0209146
:10547000250230912602232B41F420910201309124
:1054800003013093260220932502209100013091E0
:1054900001012115310541F42DB73EB740910401BA
:1054A00050910501241B350BE0912502F091260255
:1054B000E217F307A0F42E1B3F0B2817390778F0EB
:1054C000AC014E5F5F4F2417350748F04E0F5F1F4A
:1054D00050932602409325028193919302C0E0E00D
:1054E000F0E0CF01DF91CF911F910F910895CF93FD
:1054F000DF93009709F481C0FC0132971382128276
:10550000A0912702B0912802109781F42081318167
:10551000820F931F20912502309126022817390708
:1055200051F5F0932602E093250267C0ED0120E0DB
:1055300030E0CE17DF0740F44A815B819E014115C0
:105540005105F1F0EA01F5CFD383C2834081518147
:10555000840F951FC817D90759F488819981840F42
:10556000951F0296918380838A819B819383828396
:105570002115310529F4F0932802E09327023DC05C
:10558000E901FB83EA8349915991C40FD51FEC17B8
:10559000FD0761F480819181840F951F0296E901D6
:1055A00099838883828193819B838A83E0E0F0E002
:1055B00012968D919C911397009719F0FD01DC01D3
:1055C000F7CF8D919C9111979D012E5F3F4F820FD8
:1055D000931F20912502309126022817390769F47C
:1055E000309729F4109228021092270202C01382E9
:1055F0001282B0932602A0932502DF91CF910895E5
:04560000F894FFCF4C
:105604000000290220007A23D623B723B323AF2333
:1056140001FFFF6093FFFFFFC192F7F3FFC091F614
:10562400F2619590F5F1FF9437F4F040228147122E
:105634002512A4119912B212D212818283E200E9D6
:1056440000EA00B500B600B700CD008301CC008AA3
:105654000192019401210223022402250226022739
:0C566400022A02B300B4006F00700000C6
:00000001FF
