:100000000C941A0B0C94390B0C94390B0C94390B7F
:100010000C94390B0C94390B0C94390B0C94390B50
:100020000C94390B0C94390B0C94C82D0C949E2E07
:100030000C9446270C94390B0C94390B0C94390B07
:100040000C94390B0C94390B0C94390B0C94390B20
:100050000C94390B0C949F270C94390B0C94390B8E
:100060000C94390B0C94390B0C94390B0C94390B00
:100070000C94390B0C94390B0C94390B0C94390BF0
:100080000C94390B0C94390B0C94390B0C94390BE0
:100090000C94390B0C94390B0F16121632164316AA
:1000A0004B165616AE16AE16AE169C169F16591661
:1000B0005C1661166E167B167E1682168F16C01D94
:1000C000C01DF21DF21D3F1E661F661F661F5D1ECE
:1000D000F61E071F071F02200220142014200B20E9
:1000E0001420142014200220022010201420142098
:1000F00010200F2F362F2E30362F2E30822FA52F87
:100100002E30FC2F0B300A006275727374206F6EF4
:100110000025632563256325632563256325632502
:10012000637C0001048E966E773EFE7E5F1DB8F202
:10013000664EFF5D19B0C20469542AD62EBFDD1980
:10014000B0C3E529B1E023A5A9B1C10082674C1A6B
:10015000978D795120C7068E7C7C7A764FFD593079
:10016000E2460E9EBEDF1D9991A0A5A1A9D022C690
:10017000EF5C1B958990A2A7CCFB5528B3E44AF706
:100180006C3BF46A562EDE1F9DB8D3058892A6CE2E
:100190001EBEDF1D99B0E246EF5C07115D980B9D16
:1001A0009497EE4E45336B44C729562730C6A7D5E2
:1001B000F256DFB43862CBA0B6E30F84062405659F
:1001C0006F7689B577412782666582CCD5E620D5E2
:1001D0002717C5F803237C5F64A51DC1D636CB4C19
:1001E000D4DB66D78BB1997E6F4C364006D6EBD701
:1001F000A2E4F495515A5496D55344D78CE0B940B3
:1002000068D218E9DD9A239248EE7F43AFEA773847
:10021000848C0A72AF69F8DDF12483A3F84ABFF534
:100220009413DBBBD8B4B3A0FB45506030591231F6
:1002300071A2D313E7FAE7CE0F63150B6B94BB37AC
:100240008326059DFB4692FC0A15D10D7392D68C30
:100250001B8CB8558ACEBDFE8EFCED0912839182AF
:10026000513123FBB40C76AD7CD9B44BB267140981
:100270009C7F0C18BA3BD68E142AE41B529F2B7D10
:10028000E1FB6A3302FAAC5AF23E887EAED1F378D3
:10029000E805D1E3DC21F6E19ABD170ED9469B882B
:1002A00003EAF666BE0E1B5049964097F1F1E480D2
:1002B000A66EE87734BF294044C2FF4E98D39CA372
:1002C000322B76510409E7A9D1A632B12353E24774
:1002D000ABD6F5695C3E5FFAAE4520E5D244FF3906
:1002E000326DFD27575CFDF0DEC1B599E5F51C7751
:1002F0000175C56D5892F2B247000126967A30FF1B
:10030000B7F0EF77C18A5DDCC0D129301E77387A2B
:1003100094F1B87A7EEFA4D1AC314AF25D643DB27B
:10032000E2F00899FC70EE24A77EEE1E20697D4461
:10033000BF8742DF883B0CDA42C904F94550FC8391
:100340008F116A72BC9995F0AC3DA73BCD1CE28839
:100350007937115F3989950A16847AF68AA428E4D8
:10036000ED83803BB123A50310F466EABB0C0FC5F7
:10037000EC6C69C5D324ABD42AB799887608A0A8B9
:10038000957CD8386DCD5902514BF1B52B50E3B661
:10039000BDD072CF9EFD6EBB44C8248A77188A13E5
:1003A00006EF977DFA81F031E6FA77ED3106315BA1
:1003B000548A9F3068DBE240F84E73FAAB748B10BE
:1003C0005813DCD2E678D1322E8A9F2C5806482763
:1003D000C5A95E8147894621910370A43E889CDAB5
:1003E000330ACEBC8B8ECF9FD3718043CF6BA95184
:1003F00083763082C56A853911501A82DC1E1CD57D
:100400007DA9719933471997B35AB1DFEDA4F2E68C
:100410002684A2289A9EDFA66AF4D6FC2E5B9D1A3B
:100420002A2768FBC183214B90E036DD5B314255C2
:10043000A013F7D089537199570929C5F321F837CB
:100440002F40F3D4AF16083602FC77C58B049056C4
:10045000B9C9679A99E800D386FF972D08E9B7B321
:1004600091BCDF45C6ED0F8C4C1EE65B6E3830E468
:10047000AAE395DEB9E49AF5B2559A879BF66AB27B
:10048000F2779A31F47A31D11D04C07C32A29E9A5F
:10049000F562F8278DBF51FFD3DF64373F2A6F76AF
:1004A0003A7D77069E777F5EEB3251F916669A09A0
:1004B000F3B008A470964630FFDA4FE91BED8DF8D3
:1004C000741F3192B3731736DB9130D688556B3475
:1004D00077877AE7EE06C61C8C190C4846235E9C8B
:1004E000075CBFB47ED64F749CE2C5508BC58B159C
:1004F0009060625729D01343A18088910044C74D72
:100500001986CC2F2A755AFCEB972A70E378D8917C
:10051000B04F9907A395EA2421D5DE512093270AED
:100520003073A8FF8A97E9A76A8E0DE8F0DFECEA3E
:10053000B46C1D392A622D3D5A8B65F890052E7ECC
:10054000912C78EF8E7AC12FAC78EEAF2845064C0F
:1005500026AF3BA2DBA39306B53CA5D8EE8FAF2513
:10056000CC3F856848A962CC978F7F2AEAE0150ABC
:10057000AD6207BD45F841D836CB4CDB6EE63AE7B5
:10058000DA15E9291E1210A0142C0E3DF4BF3941D2
:1005900092750B257BA3CE399C1564C8FA3DEF7389
:1005A00027FE262ECEDA6EFD718EDDFE76EEDC1293
:1005B0005C02C53A4E4E4FBFCA4015C76E8D41F121
:1005C00010E04F7E977F1CAE478E6BB12531B07324
:1005D000C71B9779F980D366223007741EE4D08058
:1005E00021D6EE6B6C4FBFF5B7D909872FA914BE82
:1005F00027D9725001D41373A6A751027525E1B310
:1006000045347DA88EEBF31649CB4F8CA1B93685C6
:1006100039755D0800AEEBF6EAD7133A215A5F3020
:1006200084522695C914F257556BB110C2E1BD3BF7
:1006300051C0B7554C711226C70DF951A4380205A7
:100640007FB8F1724BBF718914F37738D97124F3F5
:100650000011A1D8D46927083735C9119D901C0E07
:10066000E71CFF2D1EE892E11810957CE080F496BF
:100670004321F975216438DD9F1E9516DA561D4F0A
:100680009A53B2E2E418CB6B1A65EB56C63BE5FE13
:10069000D8263F3A84597266A2F375FFFB60B322F5
:1006A000AD3F2D6BF9EBEA057CD88F6D2C989E2B16
:1006B00093F15E46F08749297368D77FF9F0E57DAD
:1006C000DB1D7519F3C4589B1788A892E0BEBD8B3B
:1006D0001D8D9F5676ADAF29E2D9D552F6B5563568
:1006E000573AC8E156431994D3049B6D35D80B5F34
:1006F0004D198EECFA64910A72202BBC1A4AFE8BBB
:10070000FDBBED1B23EAAD7282A1299971BDF09565
:10071000C103DD7BC2B23C2854D368A472C866967C
:10072000E0D1D87FF8D1262BF7ADBA55CA15B9322A
:10073000C3E588978E5CFB92258BBFA245557AA7AF
:100740006F8B575BCF0ECB1DFB208277A88CCC160E
:10075000CE1DFADECC0B62FECCE1B7F0C381647330
:1007600040A0C24D8911753355338DE84AFDEA6EBC
:10077000300BD7312CDE47E3BFF85542E27F59E515
:1007800017EF99346991B1238E20872DA8FED58A61
:10079000F3843AF037E4090054EE674993E481703A
:1007A000E3904DEFFE41B7997BC183BA62126F7D32
:1007B000DE6BAFDA16F95551EEA60C2B02A3FD8DB8
:1007C000FB3017E46FDF3671C4CA872548B047ECA9
:1007D000EAB4BFA54D9B9F0293C4E3E4E8422D68B1
:1007E00081150AEB845BD6A874FB7D1DCB2CDA4601
:1007F0002A7662CEBC5C9E8BE7CFBE78F57CEBB3ED
:100800003A9CAA6FCC72D159F21123D63F48D1B786
:10081000CEB0BFCBEA80DE57D45E972F75D1508E15
:10082000802C6679BF724BBD8A816CD3E101DCD22A
:100830001526C536DA2C1AC02794EDB79B850B5EBA
:100840008097C5EC4FEC885D50073547DC0B3B3D8E
:10085000DD60AFA85D813824255D5C15D1DEB3ABCA
:10086000EC0569EF83ED5754B8646411163269DA08
:100870009F2D7F36BB445A34E87FBF03EB007F597E
:10088000682279CF736C2C29A7A15F38A11DF020B5
:1008900053E01A6314587110AA080C3E161A60220D
:1008A000827FBAA443A0D0AC1BD56B64B51493313E
:1008B0009E5350D05766EE5A4FFB032A695876F183
:1008C00083F74EBA8C4206605D6DCE6088AEA4C3DD
:1008D000F103A54B98A1FF67E1ACA2B862D76FA066
:1008E00031B4D277AF211006C69AFF1D09170E5FEB
:1008F000F1AA54344B458A8763A6DCF9243067C6D5
:10090000B2D6613369EE50615728E77EEEEC3A5A71
:10091000734EA88DE418EAEC4164C8E2E866B62D8F
:10092000B6FB6A6C16B3DD4643B973006A71ED4ECF
:100930009D251AC33C4A95159935811402D6989B7A
:10094000ECD8233B8429AF0C9983A69A344FFAE85C
:10095000D03C4BD0FBB668B89E8FCDF7602D7A2285
:10096000E57DAB651B95A7A87FB677477B5F8B12AC
:1009700072D0D491EFDE19503CA78BC4A9B323CB1E
:1009800076E681F0C1048FA3B8545B97AC19FF3FA2
:1009900055272FE01D429B57FC4B4E0FCE98A94385
:1009A0005703BDE7C894DF6E367332B4EF2E857AF5
:1009B0006EFC6C188275359007F3E49F3EDC68F39B
:1009C000B5F31980920699A2E86FFF2E7FAE42A47C
:1009D0005FFBD40E812BC304FF2BB3744E365B9C9C
:1009E0001500C6472BE88B3DF19C039A587F9B9CD2
:1009F000BF854979352E567B411439478326AA078E
:100A00008998111B86E7737AD87D786153E979F567
:100A1000368D449284F91350583BA46A3665498E4A
:100A20003C0EF16FD284C47E8E3F39AE7C84F1637C
:100A3000378E3CCC3E448145F14BB9ED6B365DBB06
:100A400020601A0FA3AA55773AA9AE374DBAB886D7
:100A50006BBC0850F6CCA4BD1D4072A586FAE2100E
:100A6000AE3D584B97F34374A99EEB21B701A48682
:100A70009397EE2F4F3B86A1416F412690785C7F84
:100A800030384B3FAAECED5C6F0EAD4387FD9335DC
:100A9000E601EF412690999EFB195BADD2918AE069
:100AA00046AF65FA4F84C1A12DCF458BD3855055F4
:100AB0007CF96788D44EE9D76B6154A1A4A6A2C281
:100AC000BF309C409F5FD7692B24825ED9D6A71286
:100AD000541AF7559F7650A99584E66B6DB59654D8
:100AE000D6CDB3A19B46A7944DC494B498E3E1E25C
:100AF00034D533160754CDB77753DB4F4D469DE9B8
:100B0000D49C8A36B6B838266C0EFF9C1B438B806B
:100B1000CCB93DDAC7F18AF26DB8D7742F7E1EB713
:100B2000D34AB4ACFC79486CBC96B69446572DB009
:100B3000A3FC1EB95260852D41D043011E1CD57DFA
:100B4000FCF3960DC7CB2A299A93DD882D375DAA31
:100B5000FB4968A09C50867F685657F9791839D4AC
:100B6000E001843361CAA5D2D6E4C98A4A23444E3F
:100B7000BCF0DC24A1A0C4E2073C10C4B5254B6541
:100B800063F480E7CF61B1718221872CF591003247
:100B90000CECA9B59A7485E3368F764F9C6DCEBC6C
:100BA000AD0A4BED7604CBC3B9339E019396697DB4
:100BB000C5A245799B045C8409ED8843C7AB9314B7
:100BC00026A140B5CE4EBF2A42853E2C3B54E812AA
:100BD0001F0E9759B22789FAF2DF8E6859DC06BCDE
:100BE000B6850D0622ECB1CBE504E63DB3B041730A
:100BF000083F3C588663EB50EE1D2C3774A9D31880
:100C0000A3476E9354AD0A5DB82A555D78F6EEBEE3
:100C10008E3C7669B940C234EC2AB9ED7E20E48D71
:100C20000038C7E68F44A886CEEB2AE990F14CDF66
:100C300032FB731B6D921E95FEB4DB65DF4D2354B2
:100C40008948BF4A2E70D6D762B43329B13A334CA3
:100C5000236DA676A5216348E6905DED90950B7A0D
:100C600084BEB80D5E630C62264C145AB3AC23A448
:100C700074A76F333005600142A028B7EE1938F130
:100C800064808243E141271F1F90547AD5232ED1DF
:100C90003DCB28BA587FDC7C9124E92851836EC56E
:100CA000562142EDA05622A140806BA8F794CA13AA
:100CB0006B0C39D9FDE9F36FA69EFC708AB3BC5961
:100CC0003C1E1D6CF97CAFF9887195EB5700BD9FF8
:100CD0008C4FE12483C522EAFDD30CE217187C6A0D
:100CE0004CDE77B4539B4C81CD2360AA0E25739CB8
:100CF00002793230DF74DF7519F4A5145CF77AA835
:100D0000A591847C6003063BCD50B6279CFEB1DDE7
:100D1000CCD3B05924B2CAE21C81229D078F8EB970
:100D2000BE4EFAFC3965BABF9D12375E977EF389D5
:100D3000F55DF5E3098C62B5209D0C538A681BD2E2
:100D40008F75175DD4E5DA756219146A262DEBF8F4
:100D5000AF37F06CA455B1BCE233C09ACAB01149A8
:100D60004F689B3B6B3CCC13F6C785616842AEBBBA
:100D7000DDCD4516291DEADBC803943CEE4F8211F8
:100D8000C3EC28BD970599DED7BB5E221FD4EB6468
:100D9000D992D985B76A056AE42441F1CDF0D83FEC
:100DA000F89E0ECD0B7A706B5A750A6A3388EC1771
:100DB000750870102F24CFC4E942006194CA1F3A0D
:100DC0007606FAD24881F077600345D961F4A46FC2
:100DD0003DD930C3046B542AB7EC3BF44BF5685251
:100DE00026CEFF5D1991A0A3A5A9B1E023C40A777F
:100DF0004DF95120A3A5A9B1C10082868E7F5D194E
:100E000091A0A3C4EB540B756852078C9A978D7907
:100E1000706246EF5C1B95897141E121A1A1A1C0DF
:100E200002674C1AB6CFFD785324ABB5C9F16023E5
:100E3000A5C812876D5813858892876D5832C70CE4
:100E40009A97ACDA36EE5E3EDF1DB8F2662FBDF83B
:100E50007247ED5813858892878C7B550990A2C6FE
:100E6000EF3DF85324ABD42AB7EC5A36EE5E3EDFA2
:100E70003CFA764FFD5930E246EF3DF853056931B3
:100E8000C10082868E7F5D19B0E227CCFB744B14C3
:100E90008B948B756833C50892878C9AB6CF1CBA31
:100EA000D70D98B2E62FDC1B9589716023C40A9692
:100EB0008F9CBAF66E3FFC5B15A8D226AFBDF872C8
:100EC000662FDC1BB4CB148B94AAB7CDF9510180EB
:100ED00082866F3DD930E227CCFB744B14AAB7CD84
:100EE000F97043046B35C9F16023A5C8F345089236
:100EF000876D5832E62FBDF872664E1EBEFE7E7EAE
:100F00007E5F1D9991A0A3C40A774D1893A4ABD41A
:100F10000B754910A2C6EF3DF85324ABB5E833E496
:100F20004A16AEDE1FBCDB15A8B3C5087345E93110
:100F3000C1E121A1A1A1C002866F5C3AD70D9893AF
:100F4000A4CA16AEDE1F9D99B0E246EF3DF8724787
:100F50000C9AB6CFFD5911A0A3A5C8F345089287F6
:100F60006D39F043048A96AEDE3EDF1D9991A0C232
:100F7000066F3DF872470C9A978D98938588734554
:100F8000E931E023A5A9D003848A96AEDE1FBCDB3D
:100F900015A8D226CEFF5D1991818082672DD813C6
:100FA000A4ABD40B94AAB7CDF95120A3A5C8F3459F
:100FB000E95022C6EF5C3AD70D9893858873644A4E
:100FC000F74DF95120A3C40A96AEDE3EFE7E7E7E2A
:100FD0005F3CFA764FFD7872662FBDD930C3E54885
:100FE00012878C7B5528D2078C9A97ACDA178D79AB
:100FF0005120A3C4EB540B948B94AAD62EBFFC5B58
:1010000015A8D226AFDC1BB4EA37EC3BF46A37CD27
:101010001893856931C1E140E325C812878C9AB6DF
:10102000CFFD5911A0C2068E7F5D38F2470C7B744C
:101030006A37EC5A36EE3FFC7A764F1C9B958971E5
:1010400041006344EB542AD60F9CBAD70D98938580
:101050006931C10082868E9EBEDF3CFA572CDA369B
:10106000EE3FFC5B158971410082868E7F5D38F210
:1010700047ED5813A4CAF74DF95101806344EB546E
:101080002AD62EBFDD1991A0A3A5A9B1E042068EF4
:101090007F5D1991A0A3C40A968F7D7872470C7B5F
:1010A000746A562EDE1FBCFA570D7951016121A1D9
:1010B000C0E325A9B1C1E14002674C1A978D98930E
:1010C000A4ABD42AD60F9C9BB4CB14AAB7CDF951AC
:1010D00020A3C4EB35C9F16042068E7F7C7A766E20
:1010E0003FFC7A766E5E3EFE7E5F3CDB1589714189
:1010F000E121C0E344EB542AB7CDF9706227ADD8A3
:1011000032C70C7B744B14AAB7EC3BD528D2076DC1
:1011100039D120C2E74C1A978D98B2C70C5928F3E1
:101120009B4B4C3A206B633A2025752C20636F6CE7
:101130003A2025752C20726F773A2025752C207067
:101140007265737365643A2025750A00436F6E7388
:101150005D20583A2025642C20593A2025640A0045
:10116000507265205D20583A2025642C20593A2081
:1011700025640A0044656C745D20643A202564206F
:10118000743A2025750A005374617274696E672081
:101190006D6F74696F6E2E0A00000048002B00000E
:1011A0000000000000560055005400620000005F7F
:1011B000006000610057005C00F400F5005D005E17
:1011C00000000059005A005B0063000000010001AC
:1011D000000000000000000100010001000100000B
:1011E00000010001000100010001000100010001F7
:1011F00000010000000100010001000100000001E9
:1012000000010000000000000001000100010001D9
:1012100000000001000100010001000100010001C7
:1012200000010001000000010001000100010000B8
:1012300000010001000000000000000100010001A9
:101240000001000000010001000100010001000197
:101250000001000100010000000100010001000187
:10126000000000010001000000000000000100017A
:101270000001000100000001000100010001000167
:101280000001000100010001000000010001000157
:10129000000100000001000100000000000000014A
:1012A0000001000100010000000100010001000137
:1012B0000001000100010001000100000001000127
:1012C000000100010000000100010000000000001A
:1012D0000001000100010001000000010001000107
:1012E00000010001000100010001000100000001F7
:1012F00000010001000100000001000100000000E9
:1013000000000001000100010001000000010001D7
:1013100000010001000100010001000100010000C6
:1013200000010001000100010044454255473A20F8
:1013300064697361626C65642E0A004445425547D6
:101340003A20656E61626C65642E0A000000000040
:10135000000000002A2B2800000000000000000010
:101360000000000000000029000000002C1E3420B6
:10137000212224342627252E362D3738271E1F20DC
:101380002122232425263333362E37381F04050621
:101390000708090A0B0C0D0E0F1011121314151665
:1013A0001718191A1B1C1D2F3130232D3504050663
:1013B0000708090A0B0C0D0E0F1011121314151645
:1013C0001718191A1B1C1D2F3130354C0000000056
:1013D000000000000000000000000000000000000D
:1013E0007E0F00D4FFFFFFC7000000780A00253001
:1013F0003862003A200025303258000A722F6320EC
:1014000030313233343536370A000A00253032584D
:1014100020006B6579626F6172645F7265706F72D4
:10142000743A20000A0025303258006B6579626FEB
:101430006172645F7365745F6C65643A20005B730E
:101440005D004B6579626F617264207374617274C0
:101450002E0A005B575D005B535D005B525D005BD5
:10146000445D005B435D001603540052004100439D
:10147000004B007A00650072006F006E00000006ED
:10148000034D004B00000004030904090294000509
:101490000100A0320904000001030101000921112B
:1014A0000100012240000705810308000109040131
:1014B000000203000000092111010001222200079F
:1014C000058303200001070504032000010904022D
:1014D000000103010200092111010001224D000752
:1014E000058203080001090403000103000000094C
:1014F00021110100012232000705850320000109A6
:10150000040400020300000009211101000122224D
:1015100000070586032000010705060320000112CD
:10152000011001000000086B6D7A740100010200D7
:10153000010631FF0974A1010975150026FF009508
:1015400020750881020976150026FF009520750890
:101550009102C00660FF0961A1010962150026FF22
:10156000009520750881020963150026FF0095206B
:1015700075089102C005010980A101850319012A9E
:10158000B700150126B700950175108100C0050C44
:101590000901A101850419012AA002150126A00252
:1015A000950175108100C005010902A1010901A181
:1015B0000005091901290515002501950575018109
:1015C0000295017503810105010930093115812555
:1015D0007F95027508810609381581257F9501756B
:1015E000088106050C0A38021581257F95017508CA
:1015F0008106C0C005010906A101050719E029E718
:101600001500250195087501810295017508810174
:101610000507190029FF150026FF009506750881AA
:1016200000050819012905950575019102950175B7
:10163000039101C011241FBECFEFD0E2DEBFCDBFAA
:1016400011E0A0E0B1E0E6EBF1E600E00BBF02C084
:1016500007900D92A83AB107D9F722E0A8EAB1E0C5
:1016600001C01D92AE35B207E1F70E94862A0C94A4
:10167000D9300C940000FF93EF93E091A801F09112
:10168000A901309709F00995EF91FF910895FC01A8
:101690008591803011F0EFDFFBCF0895FF27E0E266
:1016A00030E247FF0CC0419597FF09C0EDE260951D
:1016B000709580959095611D711D811D911D27FF6D
:1016C00002C0219530E350E2AA27660F771F881FDA
:1016D000991FAA1FA41710F0A41B63955A95A9F788
:1016E000AA3008F0A95FA05DAF93F395611571056D
:1016F0008105910541F7ED3211F4EF93F395F2175F
:1017000018F43F93F395FBCF8F91B5DFFA95E1F78E
:101710000895E991F9918591803021F0853219F091
:10172000AADFF9CF089520E0E89455915532C1F32E
:10173000503311F4689455915A3348F4505390F350
:10174000220F022E220F220F200D250FF4CF0EF4B0
:10175000219589919991533619F3533729F15335CE
:1017600059F1BC0188279927E8945C3621F48991C6
:10177000999168945591543639F446EF7EF077FF8D
:101780000DC08FEF9FEF0AC055374AE039F058354A
:1017900040E121F0523642E009F00895FF93EF93C3
:1017A0007DDFEF91FF91B7CFFF93EF93FC01819124
:1017B0008030B9F360DFFBCFFF93EF9368DFF1CFA9
:1017C000DF93CF93CDB7DEB72596A3DFCF91DF911F
:1017D000089590912E0290FF45C080FD02C070E3F5
:1017E00001C071E381FD02C060E301C061E382FDDD
:1017F00002C050E301C051E383FD02C040E301C0D9
:1018000041E384FD02C030E301C031E385FD02C045
:1018100020E301C021E386FD02C090E301C091E313
:10182000881F8827881F805D1F927F931F926F9368
:101830001F925F931F924F931F923F931F922F937C
:101840001F929F931F928F9381E191E09F938F93BB
:101850000E94E00B8DB79EB742960FB6F8949EBFDC
:101860000FBE8DBF089522E030E043E060E080E3EA
:101870000E946B1A95E09A95F1F70000089585E0B3
:101880008A95F1F700000C94141BCF93DF93C82FB7
:10189000D62F803511F01092AA010E94330C8C2FA4
:1018A00080680E94E41A8D2F0E94E41AEC018AE6F7
:1018B0008A95F1F700C08FE891E00197F1F700C039
:1018C00000000E94141BCE01DF91CF910895CF93A9
:1018D000C82F0E94330C8C2F8F770E94E41A0E942D
:1018E000FC1AC82F85E08A95F1F7000085E68A95F5
:1018F000F1F700000E94141B8C2FCF910895CF9315
:10190000DF93EC010E94330CCE0164E670E00E948C
:101910006D30615071096837710510F067E770E04C
:101920008FE00E94450CDF91CF910C94141BCF9354
:10193000DF9360E080E10E94450C60E081E10E945D
:10194000450C6DE183E10E94450C8FE39CE9019712
:10195000F1F700C0000068E183E10E94450C0E949D
:10196000330C82EE0E94E41A90E59A95F1F7C3E2F7
:10197000D1E081E1C132D80749F0FE0184910E9493
:10198000E41AF0E5FA95F1F72196F3CFEFE1F3E0F1
:101990003197F1F700C000008AE20E94670C60E016
:1019A00080E10E94450C0E94141B8FE39CE9019783
:1019B000F1F700C00000DF91CF910895CF93DF933E
:1019C00080E00E94670CD82F8FE30E94670CC82F1D
:1019D0008AE20E94670CD23441F4CD3B31F491E0AD
:1019E000843009F090E0892F01C080E08170DF91A0
:1019F000CF9108950E94631A1092AA010E94141BAD
:101A00000E94330C0E94141B66EB8BE30E94450C72
:101A10002FEF85EA9EE0215080409040E1F700C022
:101A200000000E94330C25ED2A95F1F700000E947A
:101A30003F0C85ED8A95F1F700006AE58AE30E9484
:101A4000450C9FEF20E782E0915020408040E1F775
:101A500000C0000082E00E94670C83E00E94670CD7
:101A600084E00E94670C85E00E94670C86E00E947B
:101A7000670C0E94970C0E943F0C8FE39CE9019732
:101A8000F1F700C0000080E496E00E947F0C8FE92F
:101A90009FE00197F1F700C000000C94DE0C9F92CC
:101AA000AF92BF92CF92DF92EF92FF920F931F936C
:101AB000CF93DF93EC018091AA01811113C0809133
:101AC0002E0280FF08C088E091E09F938F930E94D0
:101AD000E00B0F900F9060E080E50E94450C81E0E4
:101AE0008093AA010E94330C80E50E94E41A8AEBDD
:101AF0008A95F1F700C00E94FC1AF82E80E00E943F
:101B0000E41A0E94FC1A6C010E94FC1AB82E0E9472
:101B1000FC1A8C010E94FC1AE82E0E94141B8F2DC7
:101B20000E94E90B8C2D0E94E90B8B2D0E94E90B82
:101B3000802F0E94E90B8E2D0E94E90B80912E02CE
:101B400080FF08C086E091E09F938F930E94E00B96
:101B50000F900F909F2C991C9924991CAA24A39450
:101B6000F3FCA12C8B2D0B2C000C990B982F8827A4
:101B7000C82AD92AD194C194D1088E2D0E2C000CDC
:101B8000990B982F8827082B192B1195019511096E
:101B90000E94141B8F2D877011F01092AA01F882F9
:101BA0009982AA82DC82CB82BD821F830E83E88663
:101BB000CE01DF91CF911F910F91FF90EF90DF90B9
:101BC000CF90BF90AF909F900895FC0161834283B6
:101BD0000895AF92BF92CF92DF92EF92FF920F9350
:101BE0001F93CF93DF93CDB7DEB729970FB6F89445
:101BF000DEBF0FBECDBF6C01CE0101960E944F0D1E
:101C00008B81882309F4AAC08A81882309F4A6C09D
:101C10000C811D81AF80B8848091AB019091AC01A3
:101C2000892BA1F480912E0283FF0AC080FF08C097
:101C300087E891E19F938F930E94E00B0F900F90A4
:101C40000E9478279093AC018093AB0180912E0283
:101C500083FF24C080FF22C08091AC018F938091CC
:101C6000AB018F93980117FF03C03195219531097E
:101C7000C501B7FE03C0919581959109820F931F0D
:101C80009F938F9384E791E19F938F930E94E00B42
:101C90000F900F900F900F900F900F9080912E0249
:101CA00083FF12C080FF10C0BF92AF921F930F93AB
:101CB00080E691E19F938F930E94E00B0F900F902D
:101CC0000F900F900F900F907801003811051CF0C5
:101CD0009FE7E92EF12C81E8E8168FEFF80624F44F
:101CE00081E8E82EFF24FA9485010038110514F0EC
:101CF0000FE710E001388FEF180714F401E81FEF29
:101D000080912E0283FF12C080FF10C01F930F939B
:101D1000FF92EF928CE491E19F938F930E94E00BEE
:101D20000F900F900F900F900F900F904427552712
:101D3000401B510BB701C60129960FB6F894DEBFC0
:101D40000FBECDBFDF91CF911F910F91FF90EF900C
:101D5000DF90CF90BF90AF900C94E50D29960FB611
:101D6000F894DEBF0FBECDBFDF91CF911F910F91D1
:101D7000FF90EF90DF90CF90BF90AF900895DF92EB
:101D8000EF92FF920F931F93CF93DF9300D000D079
:101D90001F92CDB7DEB78C017B01FB0182811F92C0
:101DA0008F9381811F928F9380811F928F931F93B6
:101DB0000F9381E291E19F938F930E94E00BB70113
:101DC000C8010E94DA0FD82E0FB6F894DEBF0FBEFE
:101DD000CDBF882309F448C009329DE5190719F5DC
:101DE000F70182818823F9F080913D0290E001960D
:101DF00063E070E00E946D3080933D0260913D028F
:101E000070913E0280913F02909140020E943726DD
:101E1000E0913D02F0E0EE0FFF1FE050FF4F8081A8
:101E200091810E947F0C045F110905301105E0F4D7
:101E30000E9424153A834B835C836D83F701828172
:101E400041E050E001C0440F0A95EAF7882311F001
:101E5000422B02C0409542235A816B817C818D8147
:101E60000E9444150E94EE148D2D0F900F900F903C
:101E70000F900F90DF91CF911F910F91FF90EF90F6
:101E8000DF9008950C94DD1B0C94FA0CEF92FF92F6
:101E90000F931F93CF93DF93CDB7DEB72A970FB67B
:101EA000F894DEBF0FBECDBF41110DC0E1100BC0D5
:101EB000511109C0F11007C0611105C081E0011185
:101EC00003C080E001C081E081702A960FB6F894CB
:101ED000DEBF0FBECDBFDF91CF911F910F91FF905D
:101EE000EF900895EF92FF920F931F93CF93DF939C
:101EF000CDB7DEB72A970FB6F894DEBF0FBECDBFC1
:101F00000E9424152E833F83488759876A87CE0114
:101F100006960E94E90D4E815F81688579858A85E4
:101F20000E9444150E94241579018A01262F4E81B2
:101F30005F81688579858A850E94460F81110E949C
:101F4000EE142A960FB6F894DEBF0FBECDBFDF9118
:101F5000CF911F910F91FF90EF90089581E08093B2
:101F60003D0260913D0270913E0280913F0290914E
:101F700040020C9437260E94332660933D027093F2
:101F80003E0280933F0290934002643010F00E9422
:101F9000AE0F0C94E813E0913D02F0E0EE0FFF1F4E
:101FA000E050FF4F808191810E947F0C0C94DB1BDD
:101FB00081E0089581E0089508950C94DC0F1F934B
:101FC000CF93DF9300D000D01F92CDB7DEB7498307
:101FD0005A836B833091CC0189819A81311114C06D
:101FE000662359F0222349F00E94C024182F682F3D
:101FF00089819A810E94672403C00E949324182F2C
:1020000069817A81812F04C00E94C02469817A810C
:102010000F900F900F900F900F90DF91CF911F9125
:102020000C948017FC01262F4081518162817381BD
:1020300084810C94DF0FCF93DF93EC0160E00E946A
:102040001210BE01DF91CF910C94DD0FFF920F9320
:102050001F93CF93DF93E82FF0E0E45BFC4EF49006
:10206000C82FC695C695C695D0E0FE01E452FC4E39
:102070000491877010E0082E02C0159507950A9408
:10208000E2F701701127FE01E453FC4EC491D0E049
:1020900002C0D595C7958A95E2F7C170DD27011575
:1020A000110519F081EE0E94EB1C209719F086EEC5
:1020B0000E94EB1C8F2D0E94651DCD2B19F086EE22
:1020C0000E94391D012B41F081EEDF91CF911F91CC
:1020D0000F91FF900C94391DDF91CF911F910F91BB
:1020E000FF900895EF92FF920F931F93CF93DF938A
:1020F000EC01162F0AE08881882309F455C081304D
:1021000009F043C08981813041F47E0182E0E80E0C
:10211000F11C8A810E94651D09C0823049F47E014C
:10212000E2E0EE0EF11C8A810E94EB1CE7012FC059
:10213000833041F47E01F2E0EF0EF11C8A810E94AF
:10214000391DF4CF843011F0219621C02A812296C6
:1021500080E090E030E0205331092A30310558F416
:10216000089FA001099F500D1124C901840F951FDC
:1021700021962881EFCF009751F0EFE9FFE03197EA
:10218000F1F700C000000197F6CF0E9426102196BB
:10219000812F882309F4AFCFEFE9FFE03197F1F702
:1021A00000C000008150F5CFDF91CF911F910F91BA
:1021B000FF90EF90089560E00C9472108F929F92C0
:1021C000AF92BF92CF92DF92EF92FF920F931F9345
:1021D0006B017C0181E090E0A0E0B0E04C015D018A
:1021E00004C0880C991CAA1CBB1C4A95D2F7AC01F0
:1021F000BD0104C0440F551F661F771F2A95D2F7F3
:10220000482959296A297B2904C0880F991FAA1FC8
:10221000BB1F0A95D2F78A019B010C211D212E219B
:102220003F21401751076207730739F4BC01CD0104
:102230006C297D298E299F290AC080959095A095AB
:10224000B095BC01CD016C217D218E219F211F9174
:102250000F91FF90EF90DF90CF90BF90AF909F9045
:102260008F9008950F93382F262F60911902709147
:102270001A0280911B0290911C02042F432F0E948E
:10228000DE100F910C94A3230E94F9270E940226CE
:10229000811102C00E949B260C94BB0F0C94E61384
:1022A00008950E94F01F0E9450112FEF84E39CE0DC
:1022B000215080409040E1F700C000000C94C527F9
:1022C0000F931F93CF93DF93EC0161E00E941210F4
:1022D0008C01BE010E94BE15882309F449C0BE01CD
:1022E000C8010E94BF0E882309F442C0BE01C80184
:1022F0000E94B5188823E1F1BE01C8010E940719A8
:102300008823B1F1BE01C8010E94321A882381F1ED
:102310008A81882331F101308CE5180751F00F3D97
:102320008CE51807D9F001151C45D9F40E9451110C
:102330001FC080912E02C82FC095C170C0FB80F9CC
:1023400080932E02CC2329F08BE393E10E94470B6C
:102350000FC089E293E10E94470B0BC00E949B26AD
:1023600007C0CE01DF91CF911F910F910C94D80F30
:10237000C0E08C2FDF91CF911F910F9108950895A8
:102380000C94BF1181E008950C94C211CF93C82F13
:102390000E94C0118C2F0E94C411CF910895CF9339
:1023A000DF930E9480170E94C012EC0181159245B4
:1023B000F0F5C11581E5D80708F0A9C0C83ED105E0
:1023C00028F5C03ED10508F0D7C0C83AD10578F449
:1023D000C53AD10508F074C0C130D10509F4CCC0AC
:1023E00008F4C8C0C430D10508F0C6C0C3C0CF3B94
:1023F000D10508F0BFC0C85AD0E0CC0FDD1FCC5EBD
:10240000DE4F0990D881C02DD464B6C0C11590E5C7
:10241000D90708F060C0C11520E4D20708F058C001
:10242000CE019A9581159F4108F4A6C0A3C0C1159D
:1024300086E5D80718F5C11595E5D90708F080C0DD
:10244000C11524E5D20708F076C09E01237033271A
:102450008C2F86958695C115D34508F05DC0C1E0E7
:10246000D0E002C0CC0FDD1F2A95E2F720E2829F68
:10247000C0011124C82BD92BDC687EC0C1152AE508
:10248000D20778F4C11589E5D80708F063C0C115F3
:1024900098E5D90708F46EC0DC2FCC27C06FD06A4E
:1024A0006BC0CE0190568115904208F063C08D2F0D
:1024B0008F710E945413DD27D0628F71D82B5CC0BE
:1024C000C55AD0E0CE5BDE4FC881D0E0D06454C0A6
:1024D000DF70D06A51C0CE0174E0969587957A95E9
:1024E000E1F783709C2F937021E030E002C0220F4F
:1024F000331F9A95E2F73C68382BCF70C695C69586
:1025000080E2C89FE0011124C22BD32B35C0DC2F01
:10251000CC27C16FD06A30C0C1E0D0E002C0CC0F80
:10252000DD1F2A95E2F720E2829FC0011124C82B0B
:10253000D92BDA6821C0DC2FCC27C46FD06A1CC02D
:102540008C2F0E9454138F71C82FD0E0DC2FCC2722
:10255000D06212C08C2F8F700E94541394E0D695D5
:10256000C7959A95E1F7CF70D0E0DC2FCC27D069E2
:10257000C82B02C0C0E0D0E0CE01DF91CF9108951A
:102580008238910569F1B0F48133910509F46DC089
:1025900048F48932910509F463C08A32910509F43F
:1025A00069C008958533910509F455C089339105B3
:1025B000B9F00895833E910569F138F4803E9105A4
:1025C000B1F0823E910509F10895863E9105A9F189
:1025D000873E9105B9F1843E910509F064C023C09E
:1025E00020914F0220FD4FC021FD4DC008958091E4
:1025F0004F0280FD44C08091500280FF44C0809112
:102600004F0284FD42C083EE4DC080914F0282FF95
:1026100038C0F5CF80914F0282FD33C080915002C7
:1026200080FD31C0ECCF8091500281FF32C080919B
:102630004F0284FD2AC087EE35C080914F0283FF90
:1026400026C0F5CF80914F0283FD21C080915002BA
:1026500081FD1FC0ECCF80914F0285FD1CC01DC0C5
:1026600080914F0285FD19C016C080914F0286FDF2
:1026700016C017C080914F0286FD13C010C089E3B9
:1026800011C082EE0FC080EE0DC080E00BC086EE60
:1026900009C084EE07C089E205C085E303C08AE271
:1026A00001C081E390E0089590914F0292FF0DC028
:1026B000282F2871283019F4877F846006C0282FBE
:1026C0002471243011F48B7F886093FF0DC0282F74
:1026D0002871283119F4877E846106C0282F24715F
:1026E000243111F48B7E88612091500220FF0DC0AF
:1026F000382F3871383019F4877F816006C0382F41
:102700003171313011F48E7F886021FF0DC0282F88
:102710002871283119F4877E816106C0282F217124
:10272000213111F48E7E886194FD877E0895E82F13
:10273000F0E0EA5BFD4F80810895CF92DF92EF9247
:10274000FF920F931F93CF93DF938BEF93E10E9440
:10275000470B86E4E82E82E0F82EC0E0D0E096EF4A
:10276000C92E93E1D92E0EEE13E1DF93CF93DF92C2
:10277000CF920E94E00B83EF93E10E94470BF70199
:1027800081917F010E94EA251F928F931F930F93DF
:102790000E94E00B8CEE93E10E94470B21968DB7CF
:1027A0009EB708960FB6F8949EBF0FBE8DBFC5307A
:1027B000D105D9F6DF91CF911F910F91FF90EF9046
:1027C000DF90CF90089508950C94E3130C94E413D4
:1027D0000C94E313CF93DF9345E451E0A1E0B0E024
:1027E00020E030E0FA01E20FF31F80818F3FA1F07B
:1027F000E82FE295EF70F0E061A18F70ED0102C06B
:10280000CC0FDD1F8A95E2F7CE019C2F9095962381
:1028100091A392A1892B82A32F5F3F4F25303105D1
:1028200009F74B5F5F4FD1E04E355D07C9F6E1E434
:10283000F2E0A6E4B2E011921D9282E0E634F807DD
:10284000D1F785E00E947814DF91CF910C94441168
:102850000F931F93CF93DF93E1E4F2E065E471E01F
:10286000C0E001E010E080E090E050E0DB01A80F64
:10287000B91F4C914F3FC9F0A42FA295AF70B0E0A3
:1028800090962C9130E04F7002C0359527954A956F
:10289000E2F720FD07C09801082E01C0220F0A941C
:1028A000EAF702C020E030E0522B01968530910516
:1028B000E9F68081851719F0508381E001C080E03E
:1028C000C82B31966B5F7F4F81E06E35780759F6E4
:1028D0002C2F45E066E472E081E492E00E947914D6
:1028E0000E944E118C2FDF91CF911F910F9108956F
:1028F0000895FF920F931F93CF93DF938C01F62ED1
:10290000D72FC42F222349F081E08093AF010E948A
:1029100078279093AE018093AD018091AF01882319
:10292000C1F08091AD019091AE010E949027069771
:1029300080F0EF2DFD2FD8014C2F50E0CD01801BF2
:10294000910B841795071CF48D918193F7CF10920A
:10295000AF01DF91CF911F910F91FF900895EF92FA
:10296000FF920F931F93CF93DF93CDB7DEB72A97D4
:102970000FB6F894DEBF0FBECDBF6B837C838D8313
:10298000088719872A874E1118C0552311F0F512B0
:1029900014C08B81882319F0988598130EC08D81FF
:1029A000882319F09A85981308C09C81992339F0DF
:1029B00081E02985291304C002C081E001C080E0C4
:1029C00081702A960FB6F894DEBF0FBECDBFDF919F
:1029D000CF911F910F91FF90EF900895EF92FF928A
:1029E0000F931F93E090B001F090B1010091B201FC
:1029F0001091B3012091B4014091B5015091B601FD
:102A00006091B7017091B8018091B9010E94AF1433
:102A1000882321F085EB91E00E94961B1092B6016D
:102A20001092B7011092B8011092B90185E0E5EB60
:102A3000F1E0A0EBB1E001900D928A95E1F71F91D2
:102A40000F91FF90EF900895CF93DF9300D000D0C7
:102A50001F92CDB7DEB785E0E5EBF1E0DE01119620
:102A600001900D928A95E1F729813A814B815C8131
:102A70006D8170E080E090E00F900F900F900F90CC
:102A80000F90DF91CF910895CF93DF9300D000D0C6
:102A90001F92CDB7DEB749835A836B837C838D83C6
:102AA00085E0FE013196A5EBB1E001900D928A958B
:102AB000E1F70F900F900F900F900F90DF91CF9153
:102AC000089582E290E00E949130813281F483E2A5
:102AD00090E00E949130823051F484E290E00E94B4
:102AE000913091E0853009F090E0892F01C080E0BD
:102AF00081700895CF93C82F811102C06FEF01C07C
:102B000061E282E290E00E94A530C11102C06FEF45
:102B100001C062E083E290E00E94A530C11102C0D2
:102B20006FEF01C065E084E290E0CF910C94A53096
:102B300080E00E947A150C94FC25089585E290E0CF
:102B40000E949130682F70E080E090E0089585E267
:102B500090E00C94A5300E949D150E946115811192
:102B60000CC060E070E0CB010E94A7150E94FB162C
:102B70000E94DA1781E00C947A150895CF93FB0137
:102B8000C281CC23E9F09C0122513F45203131051F
:102B900020F482510E94EA170CC08031FFE59F07A4
:102BA00051F481E00E94C92343E062E081E00E9489
:102BB0003211C0E018C081319F45A9F482E0F2CF04
:102BC0008031EFE59E0711F481E004C081319F451B
:102BD00049F482E00E94EA2343E062E081E00E943F
:102BE000321101C0C1E08C2FCF9108952FEFFC016D
:102BF00020830895EF92FF920F931F93CF93DF935B
:102C0000EC01162FE8818E2F90E0FC013197E33123
:102C1000F10508F0A3C0E45BFF4F0C9481301982EA
:102C200089E04DC08981823039F0833061F0813094
:102C300029F50E94842702C00E949E159A838B83E7
:102C40007C836D838DC07E0122E0E20EF11C00E0EA
:102C5000802F0E949713F70181937F010F5F05304A
:102C6000B9F77EC08981823049F46A817B818C8189
:102C70009D810E948A300E94A71572C0612FCE01EB
:102C80000E94F6156DC04B816A8189810E94CD1624
:102C90009C838D8365C02C813D8132272327322779
:102CA0004B816A8189810E94E6165AC00E94FB16F8
:102CB00057C00E948D1724C00E948F1799838A8362
:102CC0004FC06B8170E089819A81AE014C5F5F4F8C
:102CD0009827892798270E94921742C06B8170E03D
:102CE00089819A81AE014C5F5F4F98278927982789
:102CF0000E94B71735C00E94DA1732C00E94BA1678
:102D000089832EC06B8170E089819A81AE014C5F0E
:102D10005F4F9827892798270E943A1721C06B8117
:102D200070E089819A81AE014C5F5F4F98278927B7
:102D300098270E945E1714C00E94981511C0CE01FA
:102D40000E941B29FFEF21EE84E0F15020408040DB
:102D5000E1F700C000000E94C52702C08FEF888302
:102D6000612FCE01DF91CF911F910F91FF90EF90D6
:102D70000C941B2988E0089550E0440F551F2AE069
:102D8000629F400D511D11249A0162E3869F200D20
:102D9000311D1124C901869608950F931F93CF9377
:102DA000DF930E94BC168C010E949130C82FD0E0A6
:102DB000DC2FCC27C80101960E9491309E01282B60
:102DC000C901DF91CF911F910F9108950F931F9328
:102DD000CF93DF93122F032F0E94BC16EC01602FBC
:102DE0000E94A530612FCE010196DF91CF911F91F6
:102DF0000F910C94A530AF92BF92CF92DF92EF92D9
:102E0000FF920F931F93CF93DF93A12CE12CF12C12
:102E1000B12C00E010E0C0E0D0E06701C00ED11E90
:102E2000FE01EE0FFF1FEC0DFD1DE756FE4E259136
:102E300034914C2F6B2D8A2D0E94E6162196C530B9
:102E4000D10571F7065F1F4FB39485E0B812E3CF49
:102E500082E3E80EF11CA39488E0A812D9CFDF9199
:102E6000CF911F910F91FF90EF90DF90CF90BF9087
:102E7000AF900895EF92FF920F931F93CF93DF933C
:102E8000EA017A01E60EF71E8C01C8018696CE157E
:102E9000DF0569F0003921E0120720F40E9491302B
:102EA000888301C0188221960F5F1F4FEECFDF91FC
:102EB000CF911F910F91FF90EF900895EF92FF92A5
:102EC0000F931F93CF93DF93EA017A01E60EF71E6B
:102ED0008C01C8018696CE15DF0559F0003921E036
:102EE000120718F468810E94A53021960F5F1F4FCA
:102EF000F0CFDF91CF911F910F91FF90EF90089548
:102F0000462F883038F4753028F4653018F4672F70
:102F10000C94CD1680E090E0089580E108958AE455
:102F200096E00895EF92FF920F931F93CF93DF9354
:102F3000EA017A01E60EF71E8C01C8018A549E4F01
:102F4000CE15DF0569F00A3426E0120720F40E944E
:102F50009130888301C0188221960F5F1F4FEDCFFB
:102F6000DF91CF911F910F91FF90EF900895EF9215
:102F7000FF920F931F93CF93DF93EA017A01E60E3E
:102F8000F71E8C01C8018A549E4FCE15DF0559F0FB
:102F90000A3426E0120718F468810E94A5302196B1
:102FA0000F5F1F4FEFCFDF91CF911F910F91FF90D8
:102FB000EF900895CF93DF93C6EBD1E060E0CE01B0
:102FC0000E94A5302196C11588E0D807B9F7DF9196
:102FD000CF910895DF92EF92FF920F931F93CF93BB
:102FE000DF9300D000D0CDB7DEB7F82E8FE08F157D
:102FF000E8F18FEF97E00E949130811137C006EB26
:1030000011E0FF2069F0011588E0180779F1C80187
:103010000E949130811101C0FA940F5F1F4FF1CFD0
:1030200019821A821B821C82DD24D39478018FEFCF
:10303000E81AF80AC8010E94913089831A8288230D
:10304000A9F09FEF980F933058F48A83D9820E5FCE
:103050001F4FC7010E9491308B83882339F078017C
:10306000CE0101960E94DB108701E0CF0F900F90F8
:103070000F900F90DF91CF911F910F91FF90EF90E4
:10308000DF9008950F931F93CF93DF93C42FD22F18
:10309000FC0182818823C9F04093BC010E947827FB
:1030A0009093BB018093BA0180E28C0F883008F0C6
:1030B00057C0C77081E001C0880FCA95EAF7DF9159
:1030C000CF911F910F910C94781D8091BC014813F2
:1030D00030C08091BA019091BB010E949027883C3A
:1030E000910538F510E21D0FCD17B9F080E28C0F75
:1030F000883040F4C77081E001C0880FCA95EAF7B4
:103100000E947F1D183028F581E09D2F977001C027
:10311000880F9A95EAF70E94781D802F0E94651DFE
:103120001830F0F4D77081E001C0880FDA95EAF723
:103130000AC080E28C0F883098F4C77081E001C02B
:10314000880FCA95EAF7DF91CF911F910F910C94E8
:103150007F1D802FDF91CF911F910F910C94651DE2
:10316000DF91CF911F910F9108950F939C01CB0197
:10317000243F4CE5340731F188F4293DFCE53F0755
:10318000D9F02A3D4CE5340779F1283D3C45A9F5B5
:1031900006E221EE41EE68ED7CE52BC0263FFCE522
:1031A0003F07E1F0A8F0273F3C4539F507E225EE5F
:1031B00046EE67EF7CE51DC007E225EE45EE69EDC2
:1031C0007CE517C006E221EE40EE64EF7CE511C01D
:1031D00007E225EE44EE65EF7CE50BC006E221EE4A
:1031E00042EE66EF7CE505C008E221E045EE6AEDBF
:1031F0007CE50E94421880E008C0FC01828188239F
:1032000019F01092BC0101C081E00F910895CF9395
:10321000DF93EC01FB018281882309F41FC1C230D6
:10322000FCE5DF0708F41BC1C6319CE5D90738F07F
:103230009E012B5F3C452930310508F010C10E94EA
:1032400015269093500280934F02C031ECE5DE07C3
:1032500009F4C3C008F041C0C8308CE5D80709F4B0
:103260009AC0F0F4C430ECE5DE0709F487C068F4D6
:10327000C2308CE5D80709F477C0C330DC4509F0CB
:10328000E3C080914F02826076C0C630ECE5DE0775
:1032900009F46EC008F07BC080914F0288606BC05B
:1032A000CC308CE5D80709F485C068F4CA30ECE569
:1032B000DE0709F474C008F079C00E94F01F809105
:1032C0004F02806858C0CE308CE5D80709F476C02C
:1032D00008F07FC080914F028BC0CC3FECE5DE0749
:1032E00009F44FC018F5C3318CE5D80709F47DC047
:1032F00078F4C131ECE5DE0709F473C0C231DC4576
:1033000009F0A2C00E94F01F80914F028F7733C056
:10331000C5318CE5D80709F472C008F486C0CB3FEC
:10332000DC4509F091C0809150023EC0C115FDE519
:10333000DF0709F45FC058F4CE3F9CE5D90709F4D4
:1033400044C008F43FC08091500282602DC0C2305A
:10335000FDE5DF0709F475C008F45DC0C330DD4545
:1033600009F072C080E06EC080914F02816003C09E
:1033700080914F02806180934F0266C080914F021E
:1033800011C0809150028260809350025DC0809194
:103390004F028062F0CF80914F028064ECCF809129
:1033A0004F0288608460E7CF8160EECF80914F024A
:1033B0008E7FE1CF80914F028D7FDDCF80914F02D4
:1033C000877FD9CF8091500218C0809150028D7FA5
:1033D000DBCF80914F028F7ECECF80914F028F7DC9
:1033E000CACF80914F028F7BC6CF80914F02877FDB
:1033F0008B7FC1CF809150028D7F8E7FC5CF809112
:103400004F0282FB222720F991E0922790FB82F95C
:1034100090FB83F9B0CF80915002982F90959170D6
:103420008E7F892B90FB81F9AFCF0E94F01F809196
:103430004F0287FB222720F991E0922790FB87F922
:103440009ACF81E00E949D2680914F029091500278
:103450000E9426260E94F01F80E001C081E0DF91DB
:10346000CF910895CF93DF9386319C4541F5EB01D1
:103470000E944125982F8A812091070130910801EF
:10348000882379F09A7A81E009F480E08093BD0185
:10349000911102C069E201C065E3C9010E94E426FE
:1034A0000AC08091BD01811102C069E201C065E3DB
:1034B000C9010E94E6260E94822580E001C081E0C9
:1034C000DF91CF910895289A219A229A23982B98D8
:1034D00080E58CBD0895909106019F3F09F072C070
:1034E0008F3F09F46FC0611103C01092BF0103C088
:1034F00090E29093BF01423041F0433051F04130AF
:1035000069F49091BF01946007C09091BF019860E9
:1035100003C09091BF019C609093BF0141E050E0D7
:103520004217530718F4440F551FFACF9091BF016B
:1035300040315105F1F050F442305105B1F04830BE
:103540005105E1F421E02093BE0113C04034510540
:1035500091F04038510539F04032510579F421E0BD
:103560002093BE0108C0936007C091E09093BE0114
:1035700005C0916001C092609093BF012CB59091FD
:10358000BF01922B9CBD9091BE01992319F09DB56E
:1035900091609DBD80930601E82FE295EF70F0E009
:1035A00031A1282F2F7081E090E001C0880F2A956B
:1035B000EAF7932F982B91A392A18095892382A358
:1035C00081E0089580E00895CF93DF938EBD0E943F
:1035D0007827EC010DB407FC0AC00E9478278C1BE9
:1035E0009D0B84369105B0F38EEF9FEF02C08EB530
:1035F00090E0DF91CF910895CF93DF931EBC0E949E
:103600007827EC010DB407FC0AC00E9478278C1BB8
:103610009D0B84369105B0F38EEF9FEF02C08EB5FF
:1036200090E0DF91CF910895809106018F3F19F1CD
:10363000E82FE295EF70F0E031A1282F2F7081E0A4
:1036400090E001C0880F2A95EAF7932F982B91A359
:1036500092A1892B82A38FEF809306018DB58E7F77
:103660008DBD9CB58091BF01809589238CBD109242
:10367000BF011092BE0108959093C5018093C401CB
:103680000895E091C401F091C501309721F00190B7
:10369000F081E02D099480E00895EF92FF920F935E
:1036A0001F93CF93DF93E091C401F091C501309750
:1036B000B1F18C010280F381E02D099580912E02F9
:1036C00082FF2DC080FF04C082E194E10E94470B7D
:1036D000E80118E08CE0E82E84E1F82E80912E02BB
:1036E00080FF0BC088811F928F93FF92EF920E9400
:1036F000E00B0F900F900F900F9011502196111129
:10370000EDCF80912E0280FF0AC08AE094E1DF9124
:10371000CF911F910F91FF90EF900C94470BDF9189
:10372000CF911F910F91FF90EF900895E091C40108
:10373000F091C501309721F00480F581E02D0994C6
:1037400008952091C2013091C3012817390771F003
:103750009093C3018093C201E091C401F091C5012F
:10376000309721F00680F781E02D0994089520918B
:10377000C0013091C1012817390771F09093C10140
:103780008093C001E091C401F091C501309721F010
:103790000084F185E02D0994089585B7806885BF80
:1037A00085B7806885BF089581E008950C94D41B87
:1037B00008950C94D81B0C94D81B0C94D81B0C9413
:1037C000D81B0E94CD1B0E94DF1B0C94420F0E944D
:1037D0006F270E94EA130E94AB150E940D280E94D9
:1037E000440F0C94CB0FCF93C82F80912E0282FFF1
:1037F0001EC080FF04C08BE294E10E94470B8091C1
:103800002E0280FF0CC01F92CF9386E294E19F931B
:103810008F930E94E00B0F900F900F900F9080916C
:103820002E0280FF04C084E294E10E94470B8C2F9B
:10383000CF910C94C611AF92BF92CF92DF92EF92CC
:10384000FF920F931F93CF93DF93CDB7DEB72A97E5
:103850000FB6F894DEBF0FBECDBF0E94D91B0E94E9
:10386000D81B0E9428140E94D61B811111C08FEF13
:1038700089838A831B820E9478278160782F9D83A9
:103880008C8349815A816B818D810E94B71C40C015
:1038900087ECA82E81E0B82E00E010E0C02E802F2B
:1038A0000E949713E82EF501D1905F01D82631F4DC
:1038B0000F5F1F4F0530110589F7D9CF80912E0278
:1038C00081FD0E949D1380E0FF24F3949D2D9F2194
:1038D000D1F08E83CF82EF2081E009F480E08887E9
:1038E0000E9478278160782F9A8789874E815F812F
:1038F00068858A850E94B71CF801E953FE4F8081D4
:10390000F826F08205C08F5FFF0C8530F9F6D0CF26
:103910000E94720F0E94411B9091C6018917B1F05D
:103920000E94411B8093C6012A960FB6F894DEBF11
:103930000FBECDBFDF91CF911F910F91FF90EF9000
:10394000DF90CF90BF90AF900C94F31B2A960FB6E8
:10395000F894DEBF0FBECDBFDF91CF911F910F91C5
:10396000FF90EF90DF90CF90BF90AF900895CF93EE
:10397000DF93CDB7DEB72B970FB6F894DEBF0FBE3F
:10398000CDBF4F83588769877A878B87DE01119671
:1039900086E0FD0111928A95E9F785E0FE013796F0
:1039A00001900D928A95E1F749815A816B817C8162
:1039B0008D819E810E94A9222B960FB6F894DEBFBE
:1039C0000FBECDBFDF91CF910895FC018081918121
:1039D0000E9402250895CF93882309F448C0C82F78
:1039E0008CEF8C0F813AD0F46C2F8091070190916D
:1039F00008010E94AE26882349F06C2F80910701B0
:103A0000909108010E94E6260E9482256C2F8091E9
:103A10000701909108010E94E4260CC080E28C0FFF
:103A2000883058F4C77081E001C0880FCA95EAF762
:103A30000E944425CF910C948225EBE5EC0FE330F6
:103A400040F4F0E0E457FE4F808190E0CF910C9479
:103A5000A11BC85AC73158F4EC2FF0E0EE0FFF1F3E
:103A6000E25AFE4F80819181CF910C94B71BCF9188
:103A70000895882349F1682F8CEF860F813A38F436
:103A800080910701909108010E94E6260CC080E217
:103A9000860F883050F4677081E001C0880F6A9506
:103AA000EAF70E944A250C9482258BE5860F833025
:103AB00020F480E090E00C94A11B685A673120F458
:103AC00080E090E00C94B71B0895CF93C82F0E941C
:103AD000EB1CC93349F42FEF87EE93E0215080406F
:103AE0009040E1F700C000008C2FCF910C94391D5D
:103AF000882321F00E9444250C9482250895882370
:103B000021F00E944A250C9482250895CF92DF92DD
:103B1000EF92FF920F931F93CF93DF937C01D62FE9
:103B2000C72FFC01058102950F70128111110E94AF
:103B300061250E943A25882399F0112389F08C2F62
:103B4000807F803421F080E28D0F883048F082E061
:103B50000E94CC250E943A2591E0D82ED92601C09A
:103B6000D12CCC2EC2948FE0C8228C2D90E08C30CA
:103B7000910508F0ABC1FC01E15AFF4F0C94813074
:103B80008C2F807FCF70882311F0C295C07F1123C6
:103B900099F0CC2309F486C180E28D0F883010F0B3
:103BA000D11104C08C2F0E94442503C08C2F0E9489
:103BB00054250E94822576C18D2F0E94391DCC2369
:103BC00009F484C180E28D0F883010F0D11104C057
:103BD0008C2F0E944A2503C08C2F0E945A250E94D8
:103BE000822574C18C2F807FCF70803211F0C295F6
:103BF000C07FDD2319F0D130C9F022C0112371F04C
:103C0000002341F0013031F40E9467258C2B0E9483
:103C10006F255CC10E9467258C2B1DC0002319F005
:103C2000013009F453C10E94782525C0112321F0E9
:103C3000063008F04BC10EC0053008F047C11BC06C
:103C4000112361F0002331F0F701858180FF2AC143
:103C50008F7085838C2F0E94781D38C1002359F006
:103C6000D93309F030C1FFEF07EE13E0F150004007
:103C70001040E1F726C18C2F0E947F1D27C18C2F99
:103C800086958695837019F0813061F01FC11123EC
:103C900021F08D2F9C2F937002C080E090E00E9455
:103CA000A11B1CC1112321F08D2F9C2F937002C0EA
:103CB00080E090E00E94B71B11C18C2F837009F047
:103CC00047C0111107C12D2F229526952770220F6D
:103CD000220F6D2F6F70862F90E0A0E0B0E0022ED3
:103CE00004C0880F991FAA1FBB1F0A94D2F7D4FFE4
:103CF00010C04FE050E060E070E004C0440F551F7A
:103D0000661F771F2A95D2F740955095609570955C
:103D100003C040E050E0BA01C695C695C3708A0161
:103D20009B01082B192B2A2B3B2BC901B801C23050
:103D300049F058F4C13019F00E947D23CBC00E9495
:103D40006B23C8C00E948F23C5C00E946923C2C0D4
:103D5000112319F08C2F817001C08695882309F4F6
:103D6000B9C02D2F229526952770220F220F6D2F77
:103D70006F70862F90E0A0E0B0E0022E04C0880FA4
:103D8000991FAA1FBB1F0A94D2F7D4FF10C04FE09F
:103D900050E060E070E004C0440F551F661F771FBD
:103DA0002A95D2F7409550956095709503C040E0F4
:103DB00050E0BA01C695C695C3708A019B01082BD5
:103DC000192B2A2B3B2BC901B801C23049F058F4FA
:103DD000C13019F00E9442247DC00E9430247AC074
:103DE0000E94542477C00E94A32374C0CF70112373
:103DF00039F08C2F0E94C9238D2F0E94781D6AC034
:103E00008D2F0E947F1D8C2F0E94EA2363C0D23F1A
:103E100001F128F4D03F41F0D13FA1F03FC0D33FA2
:103E2000F9F0D43F39F13AC0112341F0053008F0E0
:103E30004DC08C2F8F710E940F2448C0063008F0AF
:103E400045C0F7CF112339F08C2F8F710E94C92301
:103E50003DC01123C9F38C2F8F710E94EA2336C015
:103E6000112329F08C2F8F710E94B4232FC00E9440
:103E7000AF232CC0112349F0CF718C2F0E94C9238E
:103E800063E08C2F0E94B72521C081E00E94CC25E1
:103E90000230E0F082E00E94CC2518C0112331F0FE
:103EA000002391F28D2F0E94EB1C10C0002399F289
:103EB000D93349F41FEF27EE33E011502040304052
:103EC000E1F700C000008D2F0E94391D88EF8C0D96
:103ED000843020F40E94411B0E94C611DD20C9F0ED
:103EE0000E94362580FD15C0F70112820E94302500
:103EF0000E94C923C7010E94AA1F0E943025DF919A
:103F0000CF911F910F91FF90EF90DF90CF900C9485
:103F1000EA23DF91CF911F910F91FF90EF90DF90F7
:103F2000CF9008950F931F93CF93DF93EC01688197
:103F300079818A810E940D258C010E9466240E944D
:103F40005723B801CE010E94861DDF91CF911F91AA
:103F50000F910895CF93DF93EC01988189812B8194
:103F60003C81232B31F08F3F31F481E09F3F19F4E6
:103F700003C081E001C080E080FD19C0CE010E9435
:103F8000601181110CC00E943A25882381F08A813A
:103F9000882369F082E0DF91CF910C94CC25CE018B
:103FA0000E94921FCE01DF91CF910C941B10DF91E4
:103FB000CF9108950E9461250E9464250E94822568
:103FC00080E090E00E94A11B80E090E00C94B71B81
:103FD00080910701909108010E94E8260C94DA1F55
:103FE0000E9451250C94E81FE92FE295EF704E2FA7
:103FF00050E0FA013297EE30F105B0F4E559FF4F89
:104000000C948130803F91F018F4883E68F40EC023
:10401000843F51F40BC0883E48F0813F29F406C02C
:1040200093FB882780F9089580E0089581E0089542
:104030000E9402250E94F41F0895CF93DF9300D0C1
:1040400000D01F92CDB7DEB70F900F900F900F905A
:104050000F90DF91CF910895CF93DF9300D000D0E0
:1040600000D0CDB7DEB726960FB6F894DEBF0FBEF0
:10407000CDBFDF91CF9108951F93CF93DF93C09170
:10408000CD0116E08091CE01C81799F0D0E01C9FB9
:10409000F0011D9FF00D1124E153FE4F408151812D
:1040A00062817381848195810E942C202196C77042
:1040B000E9CFDF91CF911F9108954091FF01509179
:1040C00000026091010270910202809103029091BE
:1040D00004020C942C200F931F93CF93DF938091B5
:1040E000040282958F7009F05DC0809101028823DF
:1040F00009F458C08091CD011091CE016091FF016B
:1041000070910002C0910202D091030291E06F3FD2
:1041100009F090E0292F06E0811709F443C02097A9
:1041200021F07F3F21F030E003C031E001C0322FA9
:1041300090E030FD34C0089FF001099FF00D11247C
:10414000DF01A153BE4F11963C911197371327C041
:104150003C91361324C012963C91129731111FC026
:1041600013964D915C9114974C1B5D0B483C510587
:10417000B0F4809104028F70806180930402EC524D
:10418000FE4F80818F70806180838FEF91E00E946D
:10419000AA1FDF91CF911F910F910C943C200196A3
:1041A0008770BACFDF91CF911F910F9108959F92A1
:1041B000AF92BF92CF92DF92EF92FF920F931F9335
:1041C000CF93DF93CDB7DEB761970FB6F894DEBF1C
:1041D0000FBECDBF8C0185E0F801DE011D96019078
:1041E0000D928A95E1F7F80140815181E28090912A
:1041F000FF0160910002209102023091030221151B
:10420000310531F06F3F31F481E09F3F19F403C075
:1042100081E001C080E0F82FF1709F2E80FD46C143
:10422000F801A380B4808FEFC82E81E0D82EF090E3
:104230000102F501E21BF30BFF2009F4DFC08091BE
:104240000402E83CF10508F09BC0282F207F09F00C
:1042500052C0561313C0491311C0FE2CE1100EC0FA
:104260008F708061809304020E945D20C6010E94CD
:10427000AA1F80910402F801858358C1AB2831F050
:104280005F3F31F481E04F3F19F403C081E001C08A
:1042900080E080FD03C081E08E2502C080E090E0D8
:1042A000F82FF170FF2E80FF1CC08091CD0120916E
:1042B000CE0136E0821709F417C190E0389FF00173
:1042C000399FF00D1124E153FE4F6181561306C052
:1042D0006081461303C06281E61203C001968770B5
:1042E000E9CFFE2CEE2009F421C180910402816007
:1042F000809304025AC0561306C0491304C0E1104B
:1043000002C0F8019FC04D875E878D859E850E9403
:104310001820882379F1EE2069F120910402822F80
:1043200082958F7090E0029774F08091FF019091D8
:10433000000298878F831986BB86AA862C87CE01B8
:1043400007960E94AA1F86E0F801AFEFB1E0019046
:104350000D928A95E1F70E946B200E945D200DC0AE
:10436000561729F14D875E878D859E850E941820FE
:1043700081112CC0C8010E94AA1FFF24F394D6C04B
:10438000282F207F69F77A2DB98AA88A6E2D89890E
:104390000E941D208FEF91E00E94AA1F86E0F60187
:1043A00011928A95E9F70E945D20F12CBFC0491354
:1043B000D9CFE110D7CFF8018583C8010E94AA1F89
:1043C00086E0F60111928A95E9F7B0C0EE2091F2ED
:1043D00020910402822F82958F7090E002970CF456
:1043E000B2CF8091FF01909100029A8389831B8252
:1043F000BD82AC822E83CE010196A3CFE83CF105AD
:1044000008F047C0FE2CEE2009F4B4CF561330C09C
:1044100049132EC02091040220FD21C0822F8295D5
:104420008F70482F50E041155105C9F0F8012583E0
:104430004F30510541F08F5F982F9295907F822FDA
:104440008F70892B8583C8010E94AA1F86E0F8011E
:10445000AFEFB1E001900D928A95E1F742C086E09E
:10446000F801AFEFB1E001900D928A95E1F75EC0DF
:104470004D875E878D859E850E941820811163CFB0
:1044800080910402816080930402C8010E94AA1FE7
:104490004DC07A2DB98AA88A6E2D89890E941D2067
:1044A00086E0F60111928A95E9F71BC0EE2009F427
:1044B00061CF4D875E878D859E850E941820F82EDE
:1044C000882309F457CF86E0F801AFEFB1E00190FF
:1044D0000D928A95E1F78FEF91E00E94E51C0E9412
:1044E0006B200E945D2022C04D875E878D859E8552
:1044F0000E940225292F22952F70223028F49F70C8
:1045000039F0811105C00BC0243028F49F7049F4A4
:10451000805E883020F0C8010E94AA1F9F2CF92CD1
:1045200005C0F8019581907F99F7F9CF8F2D61969D
:104530000FB6F894DEBF0FBECDBFDF91CF911F91B4
:104540000F91FF90EF90DF90CF90BF90AF909F9032
:1045500008951F93CF93DF93CDB7DEB72C970FB697
:10456000F894DEBF0FBECDBF4F83588769877A8727
:104570008B879C87CE0107960E94D7208823D1F095
:104580009F8188852A853B85232B31F08F3F31F42D
:1045900081E09F3F19F403C081E001C080E080FD0D
:1045A00047C04F81588569857A858B859C850E9497
:1045B0002C203EC086E0FE013796DE011196019068
:1045C0000D928A95E1F7FF81E8856A857B85611503
:1045D000710531F0EF3F31F481E0FF3F19F403C082
:1045E00081E001C080E080FD23C02091CE0130E059
:1045F000C9010196877099274091CD0150E0841739
:104600009507F1F1F983EA837D836C8396E0929FAD
:10461000D001939FB00D1124A153BE4FFE013196DE
:1046200001900D929A95E1F78093CE010E943C2073
:1046300016E08091CD019091CE01891771F1189FFC
:10464000C001112481539E4F0E94D720882329F155
:10465000E091CD011E9FF0011124E153FE4F4081F6
:10466000518162817381848195810E942C20809187
:10467000CD0190E00196877099278093CD01D9CF25
:104680000E94F01F1092CE011092CD01EFEFF1E0E9
:1046900086E0DF011D928A95E9F72C960FB6F89413
:1046A000DEBF0FBECDBFDF91CF911F91089508955A
:1046B00008950C9458230C9459230E945B23609313
:1046C0001D0270931E0280931F02909320020C948F
:1046D000DA1F0C945D230F931F9300911D0210911C
:1046E0001E0220911F0230912002602B712B822B21
:1046F000932B1F910F910C945D230F931F930091A7
:104700001D0210911E0220911F0230912002602391
:104710007123822393231F910F910C945D230F9398
:104720001F9300911D0210911E0220911F023091D3
:10473000200260277127822793271F910F910C94E5
:104740005D230C9458230E94A12360931902709357
:104750001A0280931B0290931C020C94DA1F60E0F3
:1047600070E0CB010C94A3230F931F9341E050E022
:1047700060E070E08A019B0104C0000F111F221F3E
:10478000331F8A95D2F7C901B8011F910F910C947C
:10479000A3230F931F9341E050E060E070E004C05A
:1047A000440F551F661F771F8A95D2F78091190213
:1047B00090911A02A0911B02B0911C028A019B01E8
:1047C000082B192B2A2B3B2BC901B8011F910F91E4
:1047D0000C94A3230F931F9341E050E060E070E03E
:1047E00004C0440F551F661F771F8A95D2F7409566
:1047F0005095609570958091190290911A02A09140
:104800001B02B0911C028A019B01082319232A2351
:104810003B23C901B8011F910F910C94A3230F935F
:104820001F9341E050E060E070E004C0440F551F6A
:10483000661F771F8A95D2F78091190290911A020C
:10484000A0911B02B0911C028A019B010827192725
:104850002A273B27C901B8011F910F910C94A3236C
:104860000F931F930091190210911A0220911B02BD
:1048700030911C02602B712B822B932B1F910F9177
:104880000C94A3230F931F930091190210911A0205
:1048900020911B0230911C026023712382239323F9
:1048A0001F910F910C94A3230F931F930091190252
:1048B00010911A0220911B0230911C02602771276F
:1048C000822793271F910F910C94A323089524E02E
:1048D000929F900D1124890FE82FE695E695E695B5
:1048E000877051E001C0550F8A95EAF785E0E89F8F
:1048F000F0011124EB5FFD4F20E030E070E04081DB
:10490000CB01022E02C0969587950A94E2F781703A
:10491000819584278523842781932F5F3F4F2530FE
:10492000310569F7089524E0929F900D1124890FB5
:10493000682F669566956695982F977085E0689FB5
:10494000B001112440E050E080E0FB01E40FF51FCE
:10495000EB5FFD4F208130E0092E02C03695279590
:104960000A94E2F721703327042E01C0220F0A9423
:10497000EAF7822B4F5F5F4F4530510531F70895BD
:10498000BF92CF92DF92EF92FF920F931F93CF933C
:10499000DF938C01C0901902D0901A02E0901B02A4
:1049A000F0901C0280911D0290911E02A0911F02A6
:1049B000B0912002C82AD92AEA2AFB2ACFE1D0E006
:1049C000D701C6010C2E04C0B695A795979587957B
:1049D0000A94D2F780FD04C0219790F7B12C07C04C
:1049E000BC2EB8018C2F0E94CF110197A9F38B2DFB
:1049F000DF91CF911F910F91FF90EF90DF90CF90BB
:104A0000BF900895CF93DF93EC010E94C024BE01B4
:104A10000E94CF11DF91CF9108951F93CF93DF9321
:104A2000EB019091CC01992321F0CB010E9402254A
:104A300013C0882349F0CB010E94C024182F682F8F
:104A4000CE010E94672404C0CB010E949324182F3A
:104A5000BE01812F0E94CF11DF91CF911F91089548
:104A600080912102859585958595089580912102F3
:104A70008770089590912102977081E009F480E099
:104A8000089580912D02089590912D02892B809395
:104A90002D020895809590912D02892380932D02F7
:104AA000089510922D02089590912C02892B8093E5
:104AB0002C020895809590912C02892380932C02DA
:104AC000089510922C02089510922B02089580915F
:104AD0002202089508950C946A250C946B259091F8
:104AE0002202981721F0809322020C946D250895DC
:104AF00080912202882329F01092220280E00C94F7
:104B00006D250895E0910701F091080180912D0233
:104B10008083E0910701F0910801908180912C023F
:104B2000892B8083E0910701F091080190818091A9
:104B30002B02892B808380912202882381F0E091CF
:104B40000701F09108019081892B808380910701F2
:104B5000909108010E94A22681110E9478258091DF
:104B60000701909108010C944D1B0C946A2598E064
:104B7000899F90011124262B209321020E94C92392
:104B8000809121028595859585950C94B525109287
:104B9000210280E00C94B52520912102809582238A
:104BA00080932102982F977079F430E0482F082ED7
:104BB000000C550B2417350739F08595859585959B
:104BC0000E94EA230C94C72508959093A90180932D
:104BD000A80108958295982F937344E0949F9001C3
:104BE00011248C7C86958695282B822F8575880FBD
:104BF0002A7A2695822B08956FEF7FEF80E090E070
:104C00000C94C33080E090E00E949F3021E08C3E05
:104C10009E4F09F020E0822F089582E090E00C94EE
:104C2000913083E090E00C949130CF9384E090E059
:104C30000E949130C82F81E290E00E9491302C2F89
:104C400030E0A901582BCA01CF910895CF93C92F05
:104C5000682F84E090E00E94A5306C2F81E290E004
:104C6000CF910C94A5308FE090E00C949930AB017B
:104C7000BC018FE090E00C94B7306CEE7EEF80E0EA
:104C800090E00E94C33060E082E090E00E94A53096
:104C900060E083E090E00E94A53010921D02109227
:104CA0001E0210921F021092200260E084E090E049
:104CB0000E94A53060E081E290E00E94A53060E0B3
:104CC00085E090E00E94A53060E086E090E00E94E0
:104CD000A5306FEF87E090E00E94A53040E050E003
:104CE000BA0188E090E00E94B73060E08DE090E08B
:104CF0000E94A53040E050E0BA0188E190E00E94B7
:104D0000B73060E087E190E00E94A53040E050E0DD
:104D1000BA018CE190E00E94B73060E080E290E060
:104D20000E94A53040E050E0BA0188E190E00E9486
:104D3000B7300C94AE0F0C943D26682F8EE090E0B7
:104D40000C94A530FC01329697E080E0915029F058
:104D500021912223D9F38F5FF9CF0895662349F07B
:104D6000FC01329608962191621729F0E817F9079D
:104D7000D1F780E0089581E008959C01FC0132960E
:104D80009FEF80E04191461789F09F3F19F4411150
:104D900001C0982F8F5F8630A9F79F3F39F0F90146
:104DA000E90FF11D97FDFA956283089508959C011E
:104DB0002A5F3F4FFC014281461301C012820196D7
:104DC00082179307B9F708950C94BD260C94D72643
:104DD000029626E0FC0111922A95E9F708950895BC
:104DE0000C94EF260C94EF26CF930E94F2260E949B
:104DF00028140E94F026C0E08C2F0E949713811186
:104E000004C0CF5FC530C1F701C081E0CF910895E4
:104E10000C94EF260C9408270E940A2780915502D3
:104E2000843049F110922F0220E488E190E00FB61F
:104E3000F894A895809360000FBE2093600080E0F6
:104E40000E94C6110E940A2783B7817F846083BFB6
:104E500083B7816083BF7894889583B78E7F83BF43
:104E60000FB6F894A89580916000886180936000E7
:104E7000109260000FBE08950C94EF260E94F01F60
:104E80000E94411B0E94C6110C943C271F920F9256
:104E90000FB60F9211248F939F93AF93BF9380917E
:104EA0002F02811113C080914B0290914C02A0916E
:104EB0004D02B0914E024196A11DB11D80934B024F
:104EC00090934C02A0934D02B0934E02BF91AF91CC
:104ED0009F918F910F900FBE0F901F90189582E0B9
:104EE00084BD93E095BD9AEF97BD80936E000895C1
:104EF0002FB7F89480914B0290914C02A0914D02F3
:104F0000B0914E022FBF08952FB7F89460914B02D5
:104F100070914C0280914D0290914E022FBF0895E6
:104F20009C014FB7F89480914B0290914C02A09154
:104F30004D02B0914E024FBF821B930B089578949F
:104F40001F920F920FB60F9211248F939F93AF93DE
:104F5000BF9380914B0290914C02A0914D02B09171
:104F60004E020196A11DB11D80934B0290934C02FD
:104F7000A0934D02B0934E02BF91AF919F918F913C
:104F80000F900FBE0F901F901895F89481E08093BA
:104F9000E00080E28093D800E9ECF0E010828FE13D
:104FA0009EE40197F1F700C000001DBA109268005E
:104FB0001CBC10BE1FBA10927A0010926E001092A4
:104FC0006F00109270001092710010821092BC005D
:104FD00011B814B817B81AB81DB810BA12B815B865
:104FE00018B81BB81EB811BA0C9400FE08950C94A2
:104FF00098150E9428148FE39CE90197F1F700C0EF
:1050000000000E94281480E00E94971380FF04C0D3
:105010000E94F7270C94C52708950E94022681114B
:1050200002C00E949B260E940D2680932E020E94A1
:1050300015269093500280934F020E941126682FEC
:1050400070E080E090E00E94692360911902709105
:105050001A0280911B0290911C020C94A123809152
:105060003B0208959FB7F894109232029FBF90912F
:105070005502943009F057C09091E9009F7030912B
:10508000EC00232F217030FD20E8922B26E02093A6
:10509000E9002091EB0020FF43C02091EE0027FFA4
:1050A0003FC020913002222321F02091E80025FF0B
:1050B00037C01092300226E03091E80035FD15C06F
:1050C00030915502343061F53091EB0035FD28C048
:1050D000215021F481E08093300222C0EFE9FFE00B
:1050E0003197F1F700C00000E7CF8093F100809185
:1050F000E80085FD0AC08091E80080FFFCCF809128
:10510000E8008E778093E80006C08FB7F89421E01E
:10511000209332028FBF9F709093E90080E0089542
:105120009F709093E9008FEF0895CF93DF9300D0A5
:105130001F92CDB7DEB790915502943019F589834F
:105140007B836A8385E08093E9008FEF9091E8008C
:10515000815095FD06C095ED9A95F1F700008111FB
:10516000F5CF8091E80085FF0DC040E050E063E09E
:1051700070E0CE0101960E94722B8091E8008E773C
:105180008093E8000F900F900F90DF91CF910895DA
:10519000BC0184E00C949528BC0183E00C94952814
:1051A00022E02093E9002FEF3091E800215035FDF7
:1051B00006C035ED3A95F1F700002111F5CF2091A9
:1051C000E80025FF0BC040E050E065E070E00E9481
:1051D000722B8091E8008E778093E8000895CF933A
:1051E000DF9321E02093E9002FEF3091E800215078
:1051F00035FD06C035ED3A95F1F700002111F5CFE8
:105200002091E80025FF14C0EC0140E050E068E088
:1052100070E00E94722B8091E8008E778093E80006
:1052200088E0FE01A3E3B2E001900D928A95E1F7D8
:10523000DF91CF910895CF93603219F520915502F7
:105240002430F9F4C091E900CF703091EC00232FA5
:10525000217030FD20E8C22B23E02093E90020914B
:10526000E80020FF0BC040E050E060E270E00E94E8
:10527000722B8091E8008E778093E800CF70C09306
:10528000E900CF91089583E694E10E94470B809155
:105290005402811109C00E944A2D0E94AC2D8091B8
:1052A000E20084608093E20008958FE594E10E941B
:1052B000470B1092540208958BE594E10C94470B30
:1052C00087E594E10C94470B83E594E10E94470B3A
:1052D0000C943E27209131022F5F822F62E30E94BF
:1052E0006130992319F02093310208951092310210
:1052F00080913202882371F180915502843041F50A
:105300008091E9008F702091EC00922F917020FD28
:1053100090E8892B96E09093E9009091EB0090FF44
:1053200014C09091EE0097FF10C09091E80095FF97
:1053300003C01092F100F9CF9091E80090FF05C0F2
:105340009091E8009E779093E8008F708093E90039
:1053500010923202089542E061EC81E00E94C32C79
:1053600042E061EC82E00E94C32C42E261EC85E005
:105370000E94C32C42E261EC83E00E94C32C42E213
:1053800060EC84E00E94C32C42E261EC86E00C9465
:10539000C32C80915702833009F460C030F481300F
:1053A00071F0823009F499C008958A3009F485C0FB
:1053B0008B3009F46BC0893009F0A7C020C0809100
:1053C0005602813A09F0A1C08091E800877F80935E
:1053D000E80080915A0290915B02892B21F468E0E9
:1053E00083E392E003C060E080E090E070E00E9420
:1053F000082C8091E8008B778093E80008958091D5
:105400005602813209F081C080915A0290915B026C
:10541000009719F0039709F078C08091E800877F22
:105420008093E8008091E80082FD05C080915502DC
:105430008111F8CF6AC08091F2009091F300029739
:1054400029F48091F1008B7F813021F48091F1006B
:1054500080933B028091E8008B7753C08091560285
:10546000813A09F052C080915A0290915B02892BD7
:1054700009F04BC08091E800877F8093E80080911D
:10548000E80080FFFCCF8091130136C08091560266
:105490008132D9F580915A0290915B02892BA9F54E
:1054A0008091E800877F8093E8000E94F82C80912B
:1054B0005802809313010C94F01F809156028132A0
:1054C00021F58091E800877F8093E8000E94F82C06
:1054D0008091590280933C02089580915602813A4E
:1054E000A1F48091E800877F8093E8008091E80034
:1054F00080FFFCCF80913C028093F1008091E80016
:105500008E778093E8000C94F82C0895CF93DF9366
:10551000CDB7DEB7A0970FB6F894DEBF0FBECDBFF4
:1055200084B7877F84BF0FB6F894A89580916000F8
:10553000886180936000109260000FBE90E080E868
:105540000FB6F89480936100909361000FBE0E94A3
:10555000E11B0E944A2D0E94AC2D8091E2008460E4
:105560008093E20082E398E20E94E52578940E940D
:1055700046300E94E71B89E091E00E943C1B82E4D8
:1055800094E10E94470B80915502853089F48EE3A7
:1055900094E10E94470B0E940C27809153028823BC
:1055A00091F30E94F426882371F30E945C2BEBCFC9
:1055B0000E941B1C80915502843009F58093E900FC
:1055C0008091E80082FF1BC08091E80085FF0AC03F
:1055D00040E050E060E270E0CE0101960E94BD2BF9
:1055E00091E001C090E08091E8008B778093E80023
:1055F000992329F060E2CE0101960E94FA150E94DB
:10560000D91B0E94D81BBFCF0C94062B292F332700
:1056100023303105C9F060F42130310581F02230AA
:10562000310509F041C084E990E02BE834E140C045
:1056300021323105E1F02232310531F135C082E10C
:1056400090E02FE135E134C099278130910549F090
:1056500028F0029749F5E7E6F4E105C0E7E8F4E150
:1056600002C0EFE7F4E1849190E09F0121C0653032
:105670007105D0F4660F771FFB01E256FE4F2081C3
:10568000318189E090E014C06530710568F4FB0158
:10569000EE0FFF1FEC56FE4F20813181FB01E157D9
:1056A000FE4F808190E004C080E090E020E030E098
:1056B000FA0131832083089584E189BD86E189BDA3
:1056C00009B400FEFDCF8091D8008F7D8093D80073
:1056D0008091E00082608093E0008091E00081FD95
:1056E000FCCF0895CF92DF92EF92FF920F931F931A
:1056F000CF93DF93EC018B017A010E94172D81116A
:1057000033C0E114F10439F0F70180819181081B65
:10571000190BC80FD91FC12CD12C0115110519F176
:105720008091E80085FD16C08091E8008E77809317
:10573000E800E114F10449F0F70180819181C80E7D
:10574000D91ED182C08285E00FC00E94172D882308
:1057500021F30AC089918093F10001501109FFEFF4
:10576000CF1ADF0ADACF80E0DF91CF911F910F913E
:10577000FF90EF90DF90CF900895CF92DF92EF925D
:10578000FF920F931F93CF93DF93EC018B017A016C
:105790000E94172D811133C0E114F10439F0F70193
:1057A00080819181081B190BC80FD91FC12CD12CE6
:1057B0000115110519F18091E80085FD16C0809151
:1057C000E8008B778093E800E114F10449F0F701D9
:1057D00080819181C80ED91ED182C08285E00FC020
:1057E0000E94172D882321F30AC08091F10089932C
:1057F00001501109FFEFCF1ADF0ADACF80E0DF9105
:10580000CF911F910F91FF90EF90DF90CF9008956F
:1058100020915C0230915D022617370748F0611530
:10582000710539F42091E8002E772093E80001C03B
:10583000B901FC0120E06115710569F18091550203
:105840008823E1F18530E1F18091E80083FD3AC0E1
:105850008091E80082FD2CC08091E80080FFEBCFB2
:105860008091F2009091F3006115710551F088303C
:10587000910538F421912093F1006150710901964E
:10588000F3CF21E0089709F020E08091E8008E77BF
:105890008093E800D0CF2111D1CF0AC0809155026A
:1058A000882361F0853061F08091E80083FD0AC0B3
:1058B0008091E80082FFF2CF80E0089582E00895B1
:1058C00083E0089581E0089520915C0230915D02AB
:1058D0002617370748F06115710539F42091E80063
:1058E0002E772093E80001C0B901FC0120E061158A
:1058F000710581F180915502882309F43EC08530FD
:1059000009F43DC08091E80083FD3BC08091E80030
:1059100082FD2DC08091E80080FFE9CF8091F200E8
:105920009091F3006115710559F08830910540F4AC
:1059300024912093F1003196615071090196F2CFC4
:1059400021E0089709F020E08091E8008E778093AD
:10595000E800CDCF2111CECF0AC080915502882317
:1059600061F0853061F08091E80083FD0AC080918C
:10597000E80082FFF2CF80E0089582E0089583E09E
:10598000089581E00895982F973068F59093E90085
:10599000981739F07091EC002091ED005091F000D3
:1059A00003C0242F762F50E021FD02C09F5FECCF73
:1059B0003091EB003E7F3093EB003091ED003D7F66
:1059C0003093ED003091EB0031603093EB00709339
:1059D000EC002093ED005093F0002091EE0027FDA5
:1059E000E5CF80E008958F708093E90081E008950D
:1059F0008091560287FF11C08091E80082FD05C0AA
:105A0000809155028111F8CF11C08091E8008B7709
:105A10000BC080915502882349F08091E80080FFF7
:105A2000F8CF8091E8008E778093E8000895209168
:105A3000E4003091E50095E64091EC00842F817000
:105A400040FF23C08091E80080FD1DC08091550279
:105A5000882399F0853099F08091EB0085FD11C085
:105A60004091E4005091E5002417350729F3915047
:105A700011F09A01E1CF84E0089582E0089583E077
:105A8000089581E0089580E008954091E80042FF84
:105A9000DDCF08950E94BB2D0E94C32DE0EEF0E003
:105AA000808181608083E8EDF0E080818F77808362
:105AB00019BCA7EDB0E08C918E7F8C9380818F7E96
:105AC00080831092540208950F931F93CF93DF9316
:105AD0000E94BB2D0E94C32DC8EDD0E088818F7736
